:1000000000000420B5020000DD020000DF02000055
:10001000E1020000E3020000E50200000000000031
:10002000000000000000000000000000E7020000E7
:10003000E902000000000000EB020000ED020000F9
:10004000D11E0000C54E0000A91A0000EF020000FA
:10005000EF020000EF02000089230000EF02000021
:10006000AD650000EF020000EF020000551C00002B
:10007000EF020000EF020000EF020000EF020000BC
:10008000EF020000051D0000EF020000EF0200007B
:10009000EF02000089580000EF020000EF020000AC
:1000A000EF020000EF020000EF020000EF0200008C
:1000B000EF020000EF02000000000000000000005E
:1000C000EF020000EF020000EF020000EF0200006C
:1000D000B51D0000EF020000EF020000EF0200007B
:1000E000EF020000EF020000EF020000000000003D
:1000F00000000000EF02000000000000EF0200001E
:1001000000000000000000000000000000000000EF
:1001100000000000000000000000000000000000DF
:1001200000000000000000000000000000000000CF
:1001300000000000000000000000000000000000BF
:1001400000000000000000000000000000000000AF
:10015000000000000000000000000000000000009F
:10016000000000000000000000000000000000008F
:10017000000000000000000000000000000000007F
:10018000000000000000000000000000000000006F
:10019000000000000000000000000000000000005F
:1001A000000000000000000000000000000000004F
:1001B000000000000000000000000000000000003F
:1001C000000000000000000000000000000000002F
:1001D000000000000000000000000000000000001F
:1001E000000000000000000000000000000000000F
:1001F00000000000000000000000000000000000FF
:1002000010B5054C237833B9044B13B10448AFF350
:1002100000800123237010BD90000020000000002A
:10022000306A000008B5034B1BB103490348AFF324
:10023000008008BD0000000094000020306A00002B
:10024000154B002B08BF134B9D46A3F5803A0021A8
:100250008B460F461348144A121A06F025FA0F4B24
:10026000002B00D098470E4B002B00D09847002061
:10027000002104000D000D48002802D00C48AFF307
:10028000008006F0DFF92000290001F0CBFF06F026
:10029000C5F900BF000008000000042000000000B5
:1002A0000000000090000020A80D002000000000C9
:1002B000000000000649074A074B9B1A03DD043B78
:1002C000C858D050FBDC02F0C5F9FFF7B9FF0000B9
:1002D000986A00000000002090000020FEE7FEE782
:1002E000FEE7FEE7FEE7FEE7FEE7FEE7FEE7FEE7E6
:1002F000704700BF00B583B0044B0093044A40230D
:1003000000F036F803B05DF804FB00BF15030000F1
:10031000B000002002B32DE9F843114B114E88467E
:10032000144643F0010903270025224608EB050186
:10033000002002F08FF803461D444FF47A40E41A7F
:1003400023B9337833B1C847013F06D00123337056
:10035000002CEAD1BDE8F88370473770BDE8F88318
:1003600000670000AC000020704700BF02F030B909
:10037000F0B595B0002415460F4608461E4601F01C
:1003800083FA384623460895082205A91A9D09963E
:100390000D950A948DF82C400C9401F0D9FA9DF833
:1003A00014308DF81140DDE9061003F00302012A34
:1003B000CDE9020127D0022A04D0384601F068FABC
:1003C00015B0F0BDBDF81650C3F3C2038DF8103060
:1003D000AD090826082D2C4628BF0824334622469E
:1003E0000EA9384601F0B4FA2D1B214608AB02AA2B
:1003F0000EA8264400F076FC002DEBD1384601F023
:1004000047FA15B0F0BDBDF81460059DC6F383161C
:10041000C3F3C204B2000EA9384608238DF8104079
:10042000C5F3952501F094FA08AB324628460EA98B
:10043000009302AB00F0E0FB384601F029FA15B05A
:10044000F0BD00BF08B5FFF791FF0421034800F09D
:1004500059FB034B01225A7108BD00BF6C6A0000B2
:100460000000002038B50C4B0C4800240025002269
:10047000FF21C3E90045C3F81824996083F82024BC
:10048000C3F8142401F0B2F9044610B9044801F08D
:1004900093FA204638BD00BFC00100207C6A0000EE
:1004A00024670000A9B1124B12495B1ADB081AD06D
:1004B00030B4114C2288824217D0002203E034F875
:1004C000225085420AD001329342F8D1002030BC3C
:1004D0007047084A02EBC0021068704701EBC20285
:1004E000106830BC7047184670470A46F8E700BFEE
:1004F0006C6A0000346A000090000020094B01394A
:1005000003EBC00003290BD8DFE801F00208060462
:100510000220704740797047007970470420704787
:1005200000207047346A00002DE9F047944CD4E96C
:1005300000239A4284B063D00023C4F81834BFF378
:100540004F8FD4E9013503EA0501CA1C04EB82068A
:1005500014F82220500719D52768327802F00302D8
:10056000012A43D0022A03D17288023303EB92138B
:1005700005EA0301D4F81804CA1C04EB820628B962
:100580009F4239D914F822205207E6D404EB8101A6
:100590005A1CC96801912A4004EB820201F0030150
:1005A000D2680292022903F102062DD0012900F03F
:1005B0009080D4F810543DB12B6828469B6898472A
:1005C000EB681D68002DF7D16E486F4B6F49C01A5C
:1005D000C008000440F0020000F0DEF8D4E900306A
:1005E000C01A18BF012004B0BDE8F087328802337A
:1005F000C2F383121344BBE7676004B0BDE8F08721
:10060000002004B0BDE8F087BDF8063060484FEA2E
:100610009319B9F1500FC84628BF4FF0500868F33E
:100620008F1308F10801ADF8063001F0E1F8074634
:100630000028BED025EA060A0AF1010A01F024F9D1
:100640004FEA8A0A0023082201A9384601F04CF932
:10065000D04579D9BAF1000F00F0898005EA06018A
:100660000331A8EB0A0504EB810108235246384602
:10067000EDB201F039F92A460AF108034549384636
:1006800001F032F909F1030906EB9909D4F818349D
:10069000002B68D1D4F8105465B1EB685A7928461C
:1006A0003946002A5BD02B681B689847EB681D68A9
:1006B000002DF2D1384601F0EBF8002000F090FB5D
:1006C000D4F818340BB9C4F80490002000F090FB63
:1006D00084E7BDF804202E48C2F38313062B28BFFD
:1006E000062363F3891202339900ADF8042001F068
:1006F0007FF8074600283FF45CAF01F0C5F80023FF
:10070000082201A9384601F0EFF8BDF8043013F4CF
:10071000707F33D04FF0000805EA06014FEA8803E6
:100720000331083304EB81010422384601F0DCF880
:10073000BDF8043008F10108C3F3831306F1010981
:1007400043454E46E8D8A1E705EA0601033104EB2C
:10075000810142460823384601F0C6F892E71D6839
:10076000002D9AD1A6E7384601F092F836E74246C6
:1007700008230849384601F0B7F883E7B14685E712
:10078000C00100205C6A0000346A0000306700008D
:100790007C6A0000CC0100202DE9F04F654C87B049
:1007A000804600200191A56800F01AFBD4E90123DE
:1007B00026681A440132921B012A00F2B88004F222
:1007C0001C4704F214490121384600F025FB5A4821
:1007D00000F03AFB484600F037FBD4E9013E03EA5B
:1007E0000E00C21C04EB820114F8222012F0040255
:1007F00000F09A8003F1020C91F800B00BF0030BAB
:10080000BBF1010FE24600F08A80BBF1020F00F15C
:10081000030B74D004EB8B01002AEDD104EB8000B4
:100820000133C268039203EA0E0304EB830302F070
:100830000302012AD9685AD0022A55D1BDF80E30D8
:100840009B0903334FEA114B0AEB930A484600F029
:1008500007FB5946002845D03846C4F804A000F0EC
:10086000DBFAD4E90113226819440131891A0129FC
:10087000A9D91340033302320521002044F8231084
:10088000226000F0B5FA00212C4800F0BBFA80F39A
:100890001000731C2B4004EB830300043540033528
:1008A00040EA1840D86014F8253068F3C50304F80E
:1008B0002530019B54F8252063F39F2222F47173A5
:1008C00023F0030343F0010344F8252024F82530E6
:1008D00094F820341BB1FFF727FE0028FBD107B0A6
:1008E000BDE8F08F3846BAE74FF0000BAEE7BDF831
:1008F0000C30C3F383134FEA114B9A44A6E74B889D
:100900000CEB93130EEA0300C11C03F1020C14F864
:100910002120E24604EB810102F004027CE70B880F
:10092000C3F383136344EDE703F1020A76E732462B
:100930009FE700BFC0010020D8050020DC05002093
:100940002DE9F04F6C4C89B080460020CDE90112B2
:100950000393A56800F044FAD4E9012326681A44F9
:100960000132921B032A00F2C58004F21C4704F2F4
:1009700014490121384600F04FFA604800F064FA4B
:10098000484600F061FAD4E9013E03EA0E00C21CB9
:1009900004EB820114F8222012F0040200F0A78078
:1009A00003F1020C91F800B00BF0030BBBF1010F47
:1009B000E24600F09780BBF1020F00F1030B00F05C
:1009C000818004EB8B01002AECD104EB8000013321
:1009D000C268059203EA0E0304EB830302F00302EC
:1009E000012AD96866D0022A61D1BDF816309B0968
:1009F00003334FEA114B0AEB930A484600F030FAF2
:100A00005946002851D03846C4F804A000F004FA32
:100A1000D4E90113226819440131891A0329A8D99C
:100A20001340033304328521002044F82310226050
:100A300000F0DEF9B21C2A40F31C2B4004EB8202CA
:100A400004EB8303029FD7600021039A2C48DA60ED
:100A500000F0D8F980F31000731C2B4004EB8303E3
:100A600000043540033540EA1840D86014F82530BA
:100A700068F3C50304F82530019B54F8252063F37F
:100A80009F2222F4717323F0030343F0810344F89F
:100A9000252024F8253094F820341BB1FFF744FDBD
:100AA0000028FBD109B0BDE8F08F3846AEE74FF023
:100AB000000BA2E7BDF81430C3F383134FEA114BC8
:100AC0009A449AE74B880CEB93130EEA0300C11C7F
:100AD00003F1020C14F82120E24604EB810102F03C
:100AE000040270E70B88C3F383136344EDE703F15B
:100AF000020A6AE7324693E7C0010020D8050020C9
:100B0000DC050020F0B41B4ED6F810340746002B4D
:100B10002DD0DC68257900218D42084617D0234668
:100B200003E0DB681A798A4211D01B68002BF8D1E8
:100B3000FB681871D6F810349BB1DA68FB6812684C
:100B40001A60D6F81034DB681F60F0BC70470929C2
:100B500001F1010301D01946DEE74FF0FF30F0BC90
:100B60007047C6F81074FA681360F0BC70471846F6
:100B7000DEE700BFC001002030B5C38883B0044663
:100B80000D4613BB217A05291DD0637AA08873B95D
:100B9000124B53F821400021FFF784FC1049034613
:100BA0002246284603B0BDE8304000F0C9B9FFF73F
:100BB000A5FC0C4B0C4953F82020284600F0C0F946
:100BC000217AA088E4E703B030BD084A00920849C2
:100BD000084A284600F0B4F9D4E700BFBC6700001B
:100BE000B067000048670000AC670000A467000021
:100BF0008C670000846700002DE9F04385B01D4636
:100C00000C9C002381460E46174694F80C802373F3
:100C100021462846FFF7B0FF062F09D8DFE807F086
:100C2000042E343B444F1F004946204600F088F90B
:100C30002B7A052B05D06B7A5BB92749204600F04B
:100C40007FF9204600F070F984F80C8005B0BDE80B
:100C5000F083224A2249204600F072F9EDE7D6E9F6
:100C60000413F2680393B3680291CDE90032494658
:100C7000D6E90023204600F063F9D9E732684946F7
:100C8000204600F05DF9D3E74946D6E90023204627
:100C900000F056F9CCE7B36800934946D6E9002343
:100CA000204600F04DF9C3E7D6E9023201920093E5
:100CB0004946D6E90023204600F042F9B8E7D6E9D4
:100CC0000321B3680291CDE900324946D6E90023F9
:100CD000204600F035F9ABE780670000A46700000C
:100CE000AC670000082900D970472DE9F04F1D4678
:100CF00083B000241B7B2C7307460E461046294602
:100D000091460193DFF8C8A0DFF8C880FFF734FFF1
:100D100005E03A5D013400F013F9082C09D0A64231
:100D200041462846F5D85146013400F009F9082C0F
:100D3000F5D12249DFF8A0A0214CDFF8A080284699
:100D400000F0FEF84FF0000B0EE012F8081011F062
:100D5000970F08BF2E22214628460BF1010B00F009
:100D6000EFF8BBF1080F10D05E4505D917F80B203E
:100D70007E2AEAD92E22EEE7514628460BF1010BD6
:100D800000F0DEF8BBF1080FEED199F80830052B22
:100D900002D099F809305BB90A49284600F0D0F82A
:100DA000284600F0C1F8019B2B7303B0BDE8F08F1B
:100DB000054A0649284600F0C3F8EDE778670000C9
:100DC0007C67000080670000A4670000AC6700003B
:100DD000746700006C670000B867000029690000B4
:100DE00072B6024A13680133136070477C06002014
:100DF000034A1368013B136003B962B6704700BF32
:100E00007C06002050E8002F0B4640E8003C9CF098
:100E1000000FF7D11046704750E8003F03EB010286
:100E200040E8002C9CF0000FF6D11046704700BF40
:100E300050E8003FA3EB010240E8002C9CF0000FBB
:100E4000F6D11046704700BF012350E8002F42EA58
:100E5000030C40E800C191F0000FF6D160467047E6
:100E6000002350E800CF0CEA030240E8002191F093
:100E7000000FF6D160467047B8B130B4D0E9011226
:100E8000521A0468D2B2531E2160DBB242B101682B
:100E90000A685C1E551C0D601370E3B2FF2BF6D17F
:100EA00003680020187130BC70470E20704700BFE7
:100EB00038B504460020FFF793FFD4E900311A68E3
:100EC0008A4215D9511E19602168A3680868258ACD
:100ED00012F8012CE4681B1A0879DBB2984205FB72
:100EE000024400D20B710020FFF782FF204638BD7C
:100EF00000240020FFF77CFF204638BD38B50546AA
:100F000000200C46FFF76CFF2A681368591C11601B
:100F1000E9682A8A641AB4FBF2F41C700020BDE868
:100F20003840FFF765BF00BF826842B110B5044684
:100F300043690168006998470023A36010BD7047AA
:100F40000EB400B582B0039921B104AB01AA01939C
:100F500000F0B2F802B05DF804EB03B0704700BFD8
:100F60002DE9F04F8A4683B09245164605469846CD
:100F7000DDE90CB1C0F09C8053460127B3FBF6F3CA
:100F80009E4207F10107F9D9474538BF474611F09E
:100F90000103AA68009302D1BBF1000F68D10124BC
:100FA00003E008F1FF3806FB04F4B8F1010FF8D8AC
:100FB000BAFBF4F08642F6D9DFF8F8904FF00D084E
:100FC00007E0B442B4FBF6F31CD3BAFBF3F0AA6813
:100FD0001C4619F8003029680A2B04FB10AA01EB03
:100FE000020E02F1010028D0A8608EF80030D5E989
:100FF00001329A42E5D32846FFF796FFB4FBF6F399
:10100000B442E2D2009BABB1BBF1000F12D0BB45A2
:1010100010D92024AB682A68591CA960D454D5E99A
:1010200001329A420BF1FF3B1ED2BBF1000F01D0FF
:10103000BB45EFD103B0BDE8F08FA86001F8028096
:10104000D5E90120904204D22A6802EB000E01305B
:10105000CAE728460193FFF767FFAA682968019B42
:10106000501C01EB020EBFE72846FFF75DFFDCE7EF
:101070008B0717D42024BB4591D92B68511CA9603C
:101080009C54D5E901329A420BF1FF3B05D2BBF1EA
:10109000000F84D0BB45F0D181E72846FFF744FF1D
:1010A000AA68F4E7B8F1000F0CBF30242024E2E76F
:1010B000012769E728680000002900F0E8822DE98F
:1010C000F04F054685B091460C460E78DFF814A720
:1010D0004FF00D0B13E0AB6828680A2E03F10102F4
:1010E00000EB030100F02681AA600E70D5E9013201
:1010F0009A4280F011812678002E00F0148101348C
:10110000002E00F01081252EE5D12146002711F890
:10111000012B2D2A00F0E580302A00F0E6802B2AF2
:1011200000F0D6802A2A00F01181A2F13006F3B235
:10113000092B03D922E2A3F130060146084606EB4B
:10114000860310F8012BA2F13004092C02EB4303B3
:10115000F1D92E2A00F006814FF0000802F0FB03BF
:10116000682B01F1010405D114F8012B02F0FB03F7
:10117000682BF9D0253A532ABDD801A353F822F0A1
:1011800015150000F7100000F7100000F710000020
:10119000F7100000F7100000F7100000F710000033
:1011A000F7100000F7100000F7100000F710000023
:1011B000F7100000F7100000F7100000F710000013
:1011C000F7100000F7100000F7100000F710000003
:1011D000F7100000F7100000F7100000F7100000F3
:1011E000F7100000F7100000F7100000F7100000E3
:1011F000F7100000F7100000F7100000F7100000D3
:10120000F7100000F7100000F7100000F7100000C2
:10121000F7100000F7100000F7100000F7100000B2
:10122000F7100000F7100000F7100000F7100000A2
:10123000F7100000F7100000F7100000F710000092
:10124000F7100000F7100000F71000002D15000047
:10125000F7100000F7100000F7100000F710000072
:10126000F7100000F7100000F7100000F710000062
:10127000F7100000F7100000F31200008F140000B8
:10128000F7100000F7100000F7100000F710000042
:101290008F140000F7100000F7100000F710000096
:1012A000F7100000F7100000F7100000071400000E
:1012B000F7100000F7100000AD130000F710000059
:1012C00091130000F7100000F71000002D1500002A
:1012D00047F004070C46214611F8012B2D2A7FF414
:1012E0001BAF47F001070C46F5E747F002070C4635
:1012F000F1E7D9F800301A1DC9F800201E78AB6854
:101300000A2E00F04C822A68591CA960D654D5E9EF
:1013100001329A42FFF4EFAE2846FFF705FE267829
:10132000002E7FF4ECAE2B7B002B40F0218105B02A
:10133000BDE8F08FAA6000F803B0D5E901329A4207
:1013400080F00E81296811440132CDE6D9F80030D1
:101350001A1DC9F8002062781E682E2A04F10200C6
:101360007FF4FAAE4A78A2F13003092B01464FF020
:1013700000083FF6F3AE08EB880802EB480811F8C6
:10138000012FA2F13003092BA8F13008F3D9E5E6CB
:10139000D9F800301A1DC9F8002019680197434692
:1013A00000960A222846FFF7DBFDA4E6D9F80030B4
:1013B0001A1DC9F8002017F00107D3F8008040F08B
:1013C000EA80B8F1000F03D0404605F07DF90746EA
:1013D000BE4240F25D81002E00F05A81202102E0E1
:1013E000BE4200F05581AA682B68501CA860995431
:1013F000D5E90123934206F1FF36F1D32846FFF7E2
:1014000093FD2021ECE7D9F80020131DC9F8003026
:10141000AB6829681768581C3022A860CA54D5E9FF
:101420000123934280F0F1802A68581C7821A8603B
:10143000D154D5E90123934280F0E2800F2F03D9E4
:101440003A4612090F2AFCD84FF0805606E00F2EBC
:101450004FEA16137FF64FAE1E46AB68B7FBF6F2A7
:101460001AF802802868B8F10A0F06FB127700EB21
:10147000030103F1010267D0AA6081F80080D5E979
:1014800001329A42E3D32846FFF74EFDDFE7D9F851
:1014900000301A1DC9F80020196881EAE172A2EB38
:1014A000E172092A4FF001000BDDDFF83CC300E0D8
:1014B0001A46ACFB02E3632A00F101004FEAD303B2
:1014C000F6DC4045034638BF4346029307F002036B
:1014D000002E57D00029C0F29D80780700F19A8035
:1014E000002B00F09980B8F1000F40F095800029A2
:1014F000C0F236817B0700F1468107F00303022B1F
:1015000000F0FD80CDE9006743460A222846FFF738
:1015100027FDF0E5AB682A68581C2521A860D15446
:10152000D5E901329A42FFF4E6ADF5E6D9F800308C
:101530001A1DC9F800201968019743460096102229
:101540002846FFF70DFDD6E5AA6000F803B0D5E9FF
:1015500001329A4280F093802B68991801328BE710
:101560002846FFF7E1FCAB6829685A1C1944BBE523
:10157000284605B0BDE8F04FFFF7D6BC0846002668
:101580002146E6E52BB1B8F1000F00F02581FB07FD
:10159000ADD40026ABE798F80020002A00F02081A7
:1015A000AB684746C8F10101D5F800E00A2A01EB13
:1015B00007080EEB030C03F1010054D0A8608CF86F
:1015C0000020D5E90123934242D217F8012F002AC7
:1015D000EAD146457FF68FAD202702E046453FF42D
:1015E0008AADAA682B68511CA9609F54D5E90132C5
:1015F0009A4206F1FF36F1D32846FFF795FCEDE756
:101600002846FFF791FCAB6818E72846FFF78CFCEB
:10161000AB6809E7013E63E7FA073FF568AF002EC4
:10162000B7D0029B9E427FF662AF2023AA68501C6F
:10163000A86028688354D5E90102824206F1FF368A
:1016400080F0BC80002EA4D0029A9642EED14EE7E4
:1016500028460291FFF768FC17F8012F002AB8D03E
:10166000AB680299A0E7A8600EF803B0D5E9013095
:10167000984260D22B6803EB000C01309EE72846AD
:10168000FFF752FCA9682B684A1C1944F4E670471E
:1016900098F80060002E3FF42EADAB6828680A2E43
:1016A00003F1010200EB030111D0AA600E70D5E92D
:1016B000012393421BD218F8016F002E3FF41BAD9B
:1016C00028680A2E03F1010200EB0301EDD1AA60A4
:1016D00000F803B0D5E901329A4239D229681144A1
:1016E0000132AA600E70D5E901239342E3D3284664
:1016F000FFF71AFC18F8016F002ECED1FBE4B8F109
:10170000000F7FF4FFAE002E68D0029B9E427FF652
:10171000F9AE3023AA68501CA86028688354D5E924
:101720000102824206F1FF364FD2002E56D0029AB5
:101730009642EFD1E6E62846CDE90221FFF7F4FB19
:10174000AB682A68581C02EB030CDDE9022135E77F
:101750002846FFF7E9FBAB6829685A1C1944A4E73F
:10176000AA68531CAB602B682D209854D5E9013230
:101770009A42C1F10001FFF4C0AE28460391FFF781
:10178000D3FB0399B9E6AA68531CAB602B682B20E6
:101790009854D5E901329A42FFF4AFAEEDE72A68DA
:1017A000591CA96002F803B0D5E901239342FFF464
:1017B000AAAD2846FFF7B8FBAB68A4E5284603911D
:1017C000FFF7B2FB202303993CE728460391FFF77C
:1017D000ABFB30230399A8E7464688E6002691E64E
:1017E0009046F6E628680000CDCCCCCCFFF744BB91
:1017F0002DE9F041058ACF1C043D2F440646B7FB76
:10180000F5F7FFF755FB002834D0FFB24FF4807393
:10181000013F0446C580066083802CD080460025A9
:1018200009E06379AF4203F101036371C8F8000076
:10183000066080461FD03046FFF73AFB013500288E
:10184000EFD194F805802768B8F1010316D03D4622
:10185000013083422D68FBD1B8F1000F0AD0002679
:1018600001E03C463F68214601362846FFF746FB2B
:10187000B045F6D800242046BDE8F0812146384620
:10188000FFF73CFBF6E700BF04300121FFF7C4BAC5
:101890002DE9F041012104460430FFF7C9FAC0B236
:1018A00008B1BDE8F08194F805802568B8F101031E
:1018B00014D02E46013083423668FBD1B8F1000FB8
:1018C000EFD0002701E02C462D6821460137304635
:1018D000FFF714FBB845F6D8BDE8F081214628464D
:1018E000BDE8F041FFF70ABB2DE9F8430546C6887D
:1018F0004079144606FB00F2043A04EB030C1F1D6A
:10190000624538BFD41ABE428846B7FBF6F106FBE3
:10191000117002D801392D68FCD1371AA74228BFAF
:1019200027469CB14FF000090430E41B28443A4696
:1019300008EB090104F0AAFEA642B9442D68374617
:101940004FF0000028BF2746002CEDD1BDE8F883FA
:101950002DE9F8430546C6884079144606FB00F297
:10196000043A04EB030C1F1D624538BFD41ABE4273
:101970008846B7FBF6F006FB107102D801382D68D7
:10198000FCD1771AA74228BF27469CB14FF0000927
:1019900004312944E41B3A4608EB090004F076FEC2
:1019A000A642B9442D6837464FF0000128BF2746AC
:1019B000002CEDD1BDE8F883826800239360826833
:1019C0001361826853618268D36082685360826861
:1019D0001360704710B568B90E4CA368012262709D
:1019E0003BB1D3E900230020A2609847A368002BF5
:1019F000F7D110BD0128FCD1064C2369A070002B43
:101A0000F7D0D3E900230120226198472369002BF6
:101A1000F7D110BD8006002038B50A4C237813B1E9
:101A20008525284638BD08486360A3602361E360CC
:101A300000F018FA054600F021FA01232370284629
:101A400038BD00BF80060020D519000038B5154DFF
:101A5000AB78044673B110B1436801209847002069
:101A6000FFF7BEF9EB680133EB600020BDE83840BA
:101A7000FFF7BEB903F0FF00FFF7B2F964B12A69BE
:101A800042B1944208D0134601E09C4204D01B6846
:101A9000002BFAD122602C61EB68002BE2D100F020
:101AA000FFF9DFE780060020014B1B68184700BFE5
:101AB0009406002070B41D4D43791D4C45F8232039
:101AC00003EB4303E35C6BBB8A7890F9043052016B
:101AD000002BD2B220DB03F1604303F5614383F8AE
:101AE000002390F90430134E012503F01F025B0917
:101AF00005FA02F246F8232003680A88C3F808258D
:101B000043790879C97803EB4303E218E554507030
:101B10009170002070BC7047074D03F00F031D4407
:101B20002A76DEE7082070BC704700BFA8060020B8
:101B30009C06002000E100E0FCEC00E00368044AA1
:101B400001211960437903EB43030221D15470470B
:101B50009C0600200368044901225A60437903EB84
:101B60004303CA54704700BF9C06002010B44FF4D2
:101B7000803302688B40C2F848330268D2F80443CD
:101B80001C4283B007D05031C2F80833890089B2B3
:101B900003685A5822B9002003B05DF8044B70471F
:101BA00000225A505B580193019B0D2003B05DF851
:101BB000044B7047F0B44FF480350468244E8D40D8
:101BC000C4F848530468C4F80853447904EB440447
:101BD000344482B0647822F07F425CB3046801F53B
:101BE000A87744F827200468D4F804C5ACEB0207B2
:101BF0009445427902EB4202164438BF07F1FF17C1
:101C0000B27838BF07F57F47BA421CDC2BB90020F9
:101C1000C4F8445302B0F0BC70475031890089B217
:101C200000236350625803680192019AC3F8045379
:101C30000468ECE7046801F5A87644F826200468F7
:101C4000002BE4D0E9E70D2002B0F0BC704700BFE4
:101C50009C0600202DE9F041274F284EDFF8A08098
:101C600084B000244FF48035D7F804332B4211D0D0
:101C700056F824200023E0B262B1C7F84853C7F8F1
:101C8000085346F8243056F824300393D8F800302F
:101C9000039A98470134032C4FEA4505E4D1164BCB
:101CA000D3F80423D10702D5D3F80021C2B9124BCF
:101CB000D3F80423920710D5D3F804216AB1002287
:101CC000C3F80421D3F804210D4B0192019A1B683B
:101CD000052004B0BDE8F041184704B0BDE8F0812C
:101CE0000022C3F80021064AD3F8003102930420F1
:101CF0001368029A9847DAE700B0004040B100400C
:101D0000A80600202DE9F041274F284EDFF8A080DB
:101D100084B000244FF48035D7F804332B4211D01F
:101D200056F824200023E0B262B1C7F84853C7F840
:101D3000085346F8243056F824300393D8F804307A
:101D4000039A98470134042C4FEA4505E4D1164B19
:101D5000D3F80423D10702D5D3F80021C2B9124B1E
:101D6000D3F80423920710D5D3F804216AB10022D6
:101D7000C3F80421D3F804210D4B0192019A5B684A
:101D8000052004B0BDE8F041184704B0BDE8F0817B
:101D90000022C3F80021064AD3F8003102932046FE
:101DA0005368029A9847DAE7001001404011014059
:101DB000A80600202DE9F041274F284EDFF8A0802B
:101DC00084B000244FF48035D7F804332B4211D06F
:101DD00056F824200023E0B262B1C7F84853C7F890
:101DE000085346F8243056F824300393D8F80830C6
:101DF000039A98470134042C4FEA4505E4D1164B69
:101E0000D3F80423D10702D5D3F80021C2B9124B6D
:101E1000D3F80423920710D5D3F804216AB1002225
:101E2000C3F80421D3F804210D4B0192019A9B6859
:101E3000052004B0BDE8F041184704B0BDE8F081CA
:101E40000022C3F80021064AD3F80031029320464D
:101E50009368029A9847DAE7004002404041024006
:101E6000A8060020044A137923B90121106091804B
:101E70001846704785207047B4060020074B1A6843
:101E8000D20704D4C021012283F800131A604FF056
:101E900080430122C3F81825704700BF00E100E02D
:101EA00010B4094B094A0021196083B01B680193E3
:101EB000019C4FF0804102200123C1F8040313600C
:101EC00003B05DF8044B7047040100400800004077
:101ED00010B5154B1A6882B062B10021134A19601F
:101EE0001B68507900934FF080410123009CC1F89A
:101EF0000833A8B10E4B1A6882B100221A601B6821
:101F000001934FF080420221084B0198C2F8081358
:101F10001B68012002B0BDE81040184702B010BD98
:101F2000116853718847E5E700010040B4060020BE
:101F30000401004070B50F4E0F4D104C002130468B
:101F4000FFF714FE3046FFF705FE00212846FFF795
:101F50000DFE2846FFF7FEFD00212046FFF706FE96
:101F60002046FFF7F7FD4FF080430122C3F800251C
:101F700070BD00BFD0680000D8680000C8680000CD
:101F800070B5134E134D144C00213046FFF7EEFD93
:101F90003046FFF7DFFD00212846FFF7E7FD284622
:101FA000FFF7D8FD012347F23C3200212046FFF71E
:101FB00001FE2046FFF7C2FD084B094A4FF00044DE
:101FC00000204021C3F80443C3F87C01116070BDB8
:101FD000D0680000D8680000C868000000600040B9
:101FE00000E100E0714B72482DE9F04701261E60C8
:101FF000052233460021FFF7DDFD6E4DDFF8E49149
:102000006D4CD5F800C06D4B2768D5F80480D9F821
:102010000400D4F804E04FF0A042D2F81015D9F82B
:102020000020D3F8103501EA0C0181EA020A81EAA6
:10203000070203EA080302EA0A0258404A40C9F8C4
:10204000001083EA0E0108409445C9F8043083EA81
:10205000000361D031465A489742017002D19E4533
:1020600000F09F805749584F22600020024663606D
:1020700084460646086008714FF0010EBB5D03F010
:102080000109C3F3450354F829000EFA03F3034290
:1020900002F101080AD155F8290003420EFA02F2B2
:1020A00004D011F80C301A4301F80C205FFA88F2C2
:1020B000082A28D00136232EE0D105224149434E7B
:1020C000002000F069FC42484249801BC00800041F
:1020D000D4E9002340F00300FEF732FC00213E4823
:1020E000FFF744FD3D4A3C480123136000214FF4B3
:1020F000FA72FFF75FFD3A4E33680133182B3360F5
:102100000FD8BDE8F08701360CF1010C232E5FFAE1
:102110008CFCD2D00022B1E7B8EB030118BF01213B
:1021200099E72849284F00230B601A469E469C4693
:102130000B714FF0010917F80C3003F00108C3F3DD
:10214000450354F8280009FA03F3034202F1010A97
:102150000AD155F82800034209FA02F204D011F816
:102160000E301A4301F80E205FFA8AF2082A0DD0C9
:102170000CF1010CBCF1230FDDD105221149002027
:1021800000F00AFC00233360BDE8F0870CF1010C7D
:102190000EF1010EBCF1230F5FFA8EFEEDD000228E
:1021A000C9E70378002B99D1A5E700BF08B000402C
:1021B000D0680000FC060020F40600200003005058
:1021C000F0060020DC06002094680000346A00005D
:1021D0005C6A000078680000D868000008100140C0
:1021E000EC060020E406002008B54FF40041002072
:1021F000FEF738F9FEF726F90748084B0849C01AD8
:10220000C008000440F00300FEF7C6FAFEF78CF9A0
:102210000028FBD108BD00BF5C6A0000346A0000E2
:10222000B868000080B586B0FFF7DEFF002000F040
:1022300005FB642000F068FC4448454C00F040FC7D
:10224000444800F04FFC00F08BFBFFF7E5FB00205B
:10225000FFF7FCFB94E8030020250090ADF8041084
:102260003D4A3E48ADF800506946FFF723FC94E82C
:1022700003003B4A0290ADF80C103A48ADF8085004
:1022800002A9FFF717FC94E80300374A0490ADF861
:1022900014103648ADF8105004A9FFF70BFC344D6C
:1022A000DFF8DCE03349DFF8DCC0002201274FF023
:1022B000A0461EF8023003F00104C3F3450351F8B1
:1022C000240007FA03F803F01F0343EA441348EA23
:1022D00000081F2B03F01F0000F5E07003F5E07904
:1022E00041F8248002F101022ADD232A4CF8205013
:1022F000DFD1D1E90065204A204C1660012300217E
:1023000055601648266005226560FFF753FC1348A8
:10231000FFF714FC01234FF4FA7200211148FFF774
:1023200049FC1048FFF70AFCFEF7FEF80028FBD135
:1023300040BF20BF20BFFEF7F7F80028F4D1F7E731
:10234000232A46F82950B4D1D3E700BF0403020181
:102350006068000008070605E51F0000D06800005F
:10236000811F0000D8680000351F0000C868000009
:102370000C000300FC060020F4060020E406002008
:102380009468000000030050194BD3F87C2102B977
:10239000704710B500242146C3F87C410522012373
:1023A0001448FFF707FC1348FFF7C8FB01234FF45D
:1023B000FA7221461048FFF7FDFB0F48FFF7BEFBFE
:1023C00021460E48FFF7D2FB0C48FFF7C3FB0C4A2F
:1023D0000C480D4B0D49801AC00840220004C3F878
:1023E000802040F00300BDE81040FEF7D5B900BFE3
:1023F00000600040D0680000D8680000C868000095
:10240000346A00005C6A000000E100E068680000D7
:1024100000B585B06B4683E806009DF800302022A9
:10242000039213B905B05DF804FB03AA024900F05A
:102430000DFB05B05DF804FBBC06002082B002ABCA
:1024400003E9060002B0704782B002B0704700BFD7
:10245000704700BF2DE9F04F4400DFF870B1261837
:102460000BEBC60683B0F76A012F80468A46914679
:1024700042D0002F63D0022F39D100F1010808EBC0
:102480004808756A4FEAC8080027B36A346AAB4245
:1024900003F1FF329CBF1B1903F1FF33A4EB0504CA
:1024A0008CBF531B5B1B0BEB08024C4528BF4C46F3
:1024B0009C42506828BF1C4628445146224604F0DE
:1024C000E5F8336A25449D422744A9EB0409A24458
:1024D00007D07562B9F1000FD7D1384603B0BDE817
:1024E000F08F00257562B9F1000FCED1F5E7002716
:1024F000384603B0BDE8F08FD6E90835B76AAF4279
:1025000098BFFF18461C013F06EB46067F1B0BEBEE
:10251000C606974228BF17467068A3EB05094F45CA
:1025200028442DD23A4604F0B1F8A0440BEBC80B76
:102530003D443846CBF8245003B0BDE8F08FB36A71
:10254000756AAB429CBF316A5B18013B5B1B9A42C8
:10255000C3D8044400F101080BEBC40408EB48089D
:102560000BEBC80B236ADBF804005E1BB242284465
:1025700015441BD2514604F089F84F466562ACE71A
:102580004A46019304F082F8019B7068ED1A3D44BD
:102590000AEB09012A4604F079F8A0440BEBC80BBA
:1025A0003846CBF8245003B0BDE8F08FED1A324620
:1025B000514604F06BF80AEB0601DBF804002A46EA
:1025C00004F064F84F46656287E700BF300D0020D5
:1025D00038B5114C114B1248E36110254FF40073CC
:1025E000104A11492362E06400232565E01D02259D
:1025F000A3626362E362A3656365E365A261A264AB
:10260000C4E9045504F058F82046084904F054F889
:102610002023A37138BD00BF300D00201407002017
:1026200004070020E0680000EC680000F06800008B
:10263000BFF34F8F0549064BCA6802F4E0621343AB
:10264000CB60BFF34F8F00BFFDE700BF00ED00E0A0
:102650000400FA0510B54FF080414FF08052002081
:10266000C1F80C01684BC1F81001C1F83805D2F867
:102670000414C3F82015D2F80814C3F82415D2F8AE
:102680000C14C3F82815D2F81014C3F82C15D2F87E
:102690001414C3F83015D2F81814C3F83415D2F84E
:1026A0001C14C3F84015D2F82014C3F84415D2F80E
:1026B0002414C3F84815D2F82814C3F84C15D2F8DE
:1026C0002C14C3F85015D2F83014C3F85415D2F8AE
:1026D0003414C3F86015D2F83814C3F86415D2F86E
:1026E0003C04C3F86805D2F840044849C3F86C05B7
:1026F0000968D2F84424C3F87025082926D04FF081
:102700008043D3F80024D10744BF6FF00102C3F81F
:1027100000243F4AD2F8883043F47003C2F888306E
:10272000BFF34F8FBFF36F8F4FF01023D3F80C22FE
:10273000D2074BD4D3F80022002A21DBD3F804328D
:10274000002B1DDB334B344A1A6010BD334B1B6822
:10275000002BD4D13248334A334C04603349344BD4
:10276000FB20C2F818050A681B68324822F00F02E5
:1027700003F00F0313434FF400720B600260BEE7D7
:102780002D4A0123C2F80435D2F80034002BFBD0C7
:102790004FF010231221284AC3F80012D2F8003457
:1027A000002BFBD04FF010231221234AC3F8041250
:1027B000D2F80034002BFBD000231F49C2F80435A7
:1027C000D1F80034002BFBD0FFF732FF1A4B012267
:1027D000C3F80425D3F80024002AFBD04FF01021C1
:1027E000154AD1F80C3223F00103C1F80C32D2F8AB
:1027F0000034002BFBD000230F49C2F80435D1F878
:102800000034002BFBD0DFE700C000403001001097
:1028100000ED00E0080000200090D003340100101B
:102820008C56004000F0004048810300E40E004058
:10283000580200104096024000E001402DE9F041AE
:102840003F4B404D404F002421460C2280463F48DC
:102850001C602C7003F028FF3D4801F043F93860FC
:10286000002845D0042001F09FFB3B685E7DD6B96F
:10287000384C2268531E0F2B44D83749084603F0C2
:1028800005FF2168344801F073FBB8F1010F4FF0E8
:1028900001060ED1022001F069F83B68587D98B915
:1028A00001F0C8FB13E0022326462B70B8F1010F9C
:1028B000F0D041D3B8F1020F20D005232B700026B1
:1028C0003B68587D0028EBD002232B7000260020A7
:1028D00001F080FB3B685B7DBBB1022301202B70C4
:1028E00001F094FB00231D4A1846136000F098FF86
:1028F000012300262B703046BDE8F081002001F056
:1029000035F8DDE707232B70D0E7012001F06EFBDF
:102910003B685C7D002CE0D1204601F091FB01205A
:1029200001F074FB0D4B20461C6000F079FF002E77
:10293000DED03046BDE8F081012001F017F8BFE796
:102940001C09002018090020200900202809002067
:10295000112B00001C0000200C0000202409002086
:1029600008B50B4B186878B101F05CFA80B218B169
:1029700000F05CFF012008BD01F0EAFA0028F7D161
:10298000044B11221A7008BD024B02221A7008BDB6
:102990002009002018090020072808D869B1202A3A
:1029A00010D9284B062200211A7008467047254B83
:1029B000042200211A7008467047224B03221A7025
:1029C00008467047F0B583B0054616460C4601F040
:1029D00093F9022806D91B4B09221A7000210846D8
:1029E00003B0F0BD284601F089F9022804D9154B3F
:1029F0000A221A700021F2E701F082F9012804D8B6
:102A0000104B08221A700021E9E701F00FF9437812
:102A1000067043F0010343700746324621460230F8
:102A200003F034FE3946E8B201F014F901460028FB
:102A3000D5D10190044803F059FA024B01990F22B5
:102A40001A70CCE718090020FC00050070B50D468F
:102A50001646044601F052F988B15DB1204601F0F6
:102A600049F9326803789A420DD2134B06221A7044
:102A7000002070BD104B03221A70284670BD0E4B0B
:102A80000B221A7070BD204601F02AF9044658B195
:102A90000146284611F8022B326003F0F7FD20466C
:102AA00001F0CEF8012070BD044803F01FFA024B7C
:102AB0000F221A70204670BD18090020260105005B
:102AC00008B5064B1B685B7D23B1054B02221A70CB
:102AD000002008BD01F016F9012008BD20090020E2
:102AE0001809002008B5064B1B685B7D23B1054B18
:102AF00002221A70002008BD01F09AF9012008BDD9
:102B0000200900201809002001F05EBA704700BFBC
:102B100070B5037882B00446072B00F2C380DFE86B
:102B200003F03663968492040821FFF791FC02B00B
:102B300070BD654A8379126893420AD2634A12686B
:102B40003AB102EB8303996801319960536801330C
:102B500053605F4B1B68002BE9D06179207998475F
:102B600002B070BD584A8379126893420AD2574A1C
:102B700012683AB102EB8303996801319960536896
:102B800001335360534B1B68002BE6D1CFE74E4A0D
:102B9000037C126893420AD24C4A12683AB102EBA3
:102BA0008303996C013199641368013313606D4696
:102BB00028460822002103F077FDA37B667BA168ED
:102BC000227B60688DF80030E37BCDF802108DF831
:102BD00006208DF8073001F033F8304695E80600FE
:102BE000FFF716FC02B070BD6D4628460822002192
:102BF00003F05AFD384B1B685B7D13B9374803F06F
:102C000075F9A268267B637B6068CDF802200022FC
:102C10008DF800208DF8073001F012F8304695E865
:102C20000600FFF70BFC02B070BD2D4B5A681978F7
:102C300001325A6000293FF47AAF9A68002A36D0F0
:102C4000013A9A6073E7FFF761FF02B070BD1E4A58
:102C5000037B126893420AD21C4A12683AB102EB13
:102C60008303996C01319964136801331360032263
:102C70000021684603F018FDA37A217AE27A657A8A
:102C80008DF800308DF801108DF8022064681BB1BA
:102C9000ACB1204600F0D4FF28460099FFF7D4FBE2
:102CA00002B070BD0F4803F021F902B070BD00F012
:102CB00055FE00287FF439AF00F012FE37E70A48CE
:102CC00003F014F9E5E700BF1C00002024090020F0
:102CD0001409002034090020200900203D040500CB
:102CE00028090020BC04050063040500024A034BC8
:102CF0000F21117018607047180900201C0900206E
:102D00002DE9F0475C4BD3F80024012A86B003D0AC
:102D1000D3F83435002B36D1584B594C5B681D78AD
:102D20002369202D8CBF00250125002B30D003F016
:102D300055F8012802D0534803F0D8F8524E3368B2
:102D40001B7D002B47D101F0C5FF45BB23784F4ABF
:102D50000121022B117001D063688BB102F0E4FEF7
:102D6000054601F0EBFCA27D8DF80900062301A8C1
:102D70008DF808508DF80A208DF8043002F034FDEB
:102D800006B0BDE8F0873E4C23690025002BCED16C
:102D900003F05EFB0028CAD101232361C7E70121AC
:102DA000084602F03DFE0546002840D0022816D015
:102DB00003F0F4F8364B21785A69E060022962602A
:102DC00000D092B3DB68334A0020136003F0ECF8C4
:102DD00006B0BDE8F087304803F088F8B3E702F0AA
:102DE000A9FE3368278993F916906689804602F018
:102DF0009BFE054601F0A2FCA17D8DF81300002288
:102E0000012301A88DF81090CDF80880ADF80C7062
:102E1000ADF80E608DF811508DF814108DF8042067
:102E20008DF8123002F0E0FCC2E79B68CBE702F0BD
:102E300081FE3368B4F8088093F916A0678981464B
:102E400002F072FE064601F079FCA37D8DF81300B6
:102E500001A88DF810A0CDF80890ADF80C80ADF861
:102E60000E708DF811608DF804508DF812508DF8A9
:102E7000143002F0B9FC9BE70010004098090020D4
:102E8000800900203C070900B00900204409002007
:102E90004C090020380900203D07090038B5224DB3
:102EA000224C01F017FF0123214A2B702149D2F84F
:102EB0003035096923F0FF030B43C2F83035002396
:102EC000236102F08BFFE8B902F0CAFC012821D887
:102ED000022001F0CBFD002001F032FE02F07EFF67
:102EE000032802D0144803F001F82B78012B02D0FC
:102EF000124802F0FBFF124B022100222970C4E9A4
:102F0000033238BD02F06AFF0328E1D00D4802F019
:102F1000EDFFDDE702F01AFE60600028D8D10A4814
:102F200002F0E4FFD4E700BF450900209809002023
:102F3000001000404C0900200106090007060900A6
:102F40004D2F0000F9050900F40509002DE9F041B5
:102F5000624B634CD3F80024012A88B002D0D3F826
:102F6000343503BB63681B78202B1CD85D4D5B4B4D
:102F70000321002229702260D3F80864D3F80824C2
:102F8000C3F82C25D3F80C24019402A80123009047
:102F90003146184602F048FE032800F28F80DFE831
:102FA00000F0805C382C504E4E4D33784B4A032154
:102FB000297000212160022BD2F8087401D07368B7
:102FC00073B101F0BBFBB27D8DF81100062303A89D
:102FD0008DF812208DF810708DF80C3002F004FC82
:102FE0000023CDE900331A461946184602F01CFEAC
:102FF000042802D03D4802F079FF2668002E54D004
:1030000001233B4A6375042322612B7008B0BDE89D
:10301000F081029B002B5DD0304602F027FF002894
:1030200050D0344B029F1B6893F9168001F086FB49
:103030002D4B8DF81700997D8DF814800222012305
:1030400003A804978DF815608DF818108DF80C20E2
:103050008DF8163002F0C8FBCFE7029B13B126486B
:1030600002F044FF304602F001FF78B3214B1B68A9
:1030700093F9167001F062FB1B4B8DF81700997DD8
:103080008DF814700023022203A88DF815608DF8C6
:1030900018108DF80C2004938DF8163002F0A4FB64
:1030A000ABE7164802F022FFA7E701F013FE6675B2
:1030B0002661FFF7F3FE08B0BDE8F081104802F08A
:1030C00015FF9AE70F4802F011FFAAE70E4802F039
:1030D0000DFFCBE70D4802F009FF9DE7001000400F
:1030E00098090020450900208009002058060900A1
:1030F0006D370000B00900202D06090038060900D0
:10310000490609003D0609002E0609003C06090093
:1031100030B589B003F096F9012828D11E4D01F091
:10312000D9FD08A80523002400F8143DAC706C7587
:1031300002F05AFB194A1A4B14704FF44072C3F84C
:10314000082502F04BFE80B1022820D903280CD1BB
:10315000CDE90044234622462146204602F064FD84
:10316000042802D00F4802F0C1FE09B030BD03F0C0
:1031700047F90D4B1B7F1BB94FF0804301225A606A
:103180000020054D02F08AFE00236B60C7E7214650
:10319000204602F045FCE3E78009002045090020B5
:1031A00000F00140480209004C0900202DE9F04FD1
:1031B000E34DE44FE44AE54E4FF440780024012308
:1031C000C7F85445C7F80885C5F8FC4FC5F8FC3F5B
:1031D000D5F8143523F48073C5F81435D5F81435B3
:1031E00023F00F0343F00603C5F81435D5F8143562
:1031F00023F4702343F44033C5F81435D5F818355B
:1032000023F00073C5F81835D5F8183543F08073EE
:10321000C5F81835D5F8183523F0FF0343F020031F
:10322000C5F81835D5F81835022123F47F4385B049
:10323000C5F81835C2F8801103F0B0F9C44AC54B7F
:10324000C7F85C05C7F85825C7F804851968C2484F
:1032500001F07AFAD6E90832C04996F81DA0086054
:10326000110A180A0E464FEAC31B0BF4FF474FEA38
:10327000C01E4FEAC61B0BF4FF490EF4FF4EC0F30D
:10328000C01B4BEA0E0B4FEA401E0EF0400C4BEAFF
:103290000C0EC3F3C01C4CEA070B4FEA431C0CF0A6
:1032A00040074BEA070CC6F3C01B4BEA090B4FEA79
:1032B00046194FEAC21809F040094BEA090B08F415
:1032C000FF48C2F3C019190C49EA08084FEA42192D
:1032D0000096CF01160C09F0400948EA090807F4E6
:1032E000FF474FEAC619029709F4FF49D5F8187548
:1032F000CDF80C904FEAC00909F020094EEA090EFA
:103300004FEAC309029E09F0200927F4E02747EAA3
:103310000A474CEA090CC1F3C01ACDF804C04AEAC6
:10332000060A4FEA411C009E0CF0400C4AEA0C0AC7
:103330004FEAC60C0CF0200C4BEA0C0B4FEAC20C07
:103340000CF0200C48EA0C0CCDF808C0C5F8187534
:10335000470007F010074EEA070E470807F0080776
:103360004EEA070EC70807F0040740094EEA0707B0
:1033700000F00200019E074358004FEA530E00F090
:10338000100030430EF0080E40EA0E004FEAD30E54
:103390004FEA13690EF0040E5B0940EA0E0003F0D9
:1033A000020303431B06FFB243EA0747CB0003F0C7
:1033B00020034AEA030A4B00480803F010034AEAD4
:1033C000030300F008000343C808019700F004005D
:1033D0004F09034307F002014FEA4910039E1943C6
:1033E00000F04003100CC0F3C017374306464001FD
:1033F00000F0400007434FEAE91040EAC9101843C3
:10340000009B4FEA42084FEA430E029B08F0100867
:1034100043EA0808F30003F020031F43019BC9B2ED
:1034200043EA01214FEAC90303F0200318434FEA9E
:10343000490303F0100318434FEA590303F008034C
:1034400018434FEAD90303F004034FEA59194FEA2E
:10345000126C034309F0020900984FEA4C1A43EA40
:1034600009094FEAEC1343EACC130AF0400A43EA95
:103470000A0A0EF0100E43084BEA0E0E03F0080382
:103480004EEA030E530803F0080348EA03087300EA
:1034900003F010031F434FEACC0303F020034AEA72
:1034A000030AC30803F004034EEA030ED30803F033
:1034B00004034FEA501B520948EA03080BF00200CC
:1034C000730802F0020203F008034EEA000048EA23
:1034D00002021F43C0B24FEA4C03120603F010036E
:1034E00042EA0042F0084AEA030A00F004007309C5
:1034F000384303F0020318434FEA5C034FEADC074A
:1035000003F0080307F004074AEA03034FEA5C1CD0
:103510003B430CF0020CC0B243EA0C0342EA002227
:103520005FFA89F9DBB2094E49EA01011343C5F894
:103530001C152846C5F82035FF2706F128051CE094
:103540000010004000F0014000E100E04C090020C4
:10355000041100404809002098090020B00900200B
:10356000D0F824150A40C0F82425D0F824250134C9
:103570001343082CC0F824353CD015F8012B02F079
:103580000101D3094FEA421C43EAC1130CF0400C7D
:10359000D10043EA0C0301F020014FEA420C0B4337
:1035A0000CF0100C510843EA0C0301F008014FEA3B
:1035B000D20C0B430CF0040C520904F0030102F08E
:1035C0000202C90043EA0C031343032C07FA01F279
:1035D00003FA01F36FEA0202C2D9D0F828150A40B3
:1035E000C0F82825D0F8282501341343082CC0F84A
:1035F0002835C2D12149224B91F83020C3F80C253F
:10360000D3F8342591F8311022F0FF020129C3F8D4
:10361000342524D01ED302290ED01A4802F066FCAD
:10362000164B93F832300BB1012B02D1144AC2F879
:10363000103505B0BDE8F08FD3F83425124942F0BB
:1036400002024FF6FF70C3F83425C3F83C05C3F8F7
:103650003815E5E7D3F83425C3F83425E0E7D3F887
:103660003425FF2042F0010240F20711C3F834254F
:10367000C3F83C05C3F83815D2E700BF4C09002059
:103680000010004033040900211001002DE9F04131
:103690002D4F2E4D2E4E4FF00008C7F8088002F037
:1036A00043FAC5F82C05D5F8304502F03DFA012360
:1036B00003FA00F024F0FF040443C5F8304502F09B
:1036C00039FA306002F03CFA224A234B82F800803B
:1036D000F360706002F038FCC5F8080502F05EFC8B
:1036E000B87502F07BFB012804D002F077FB0228BA
:1036F00015D1002001F0BAF902F054FF174B184A17
:10370000C3F850051268174C5268C3F85425206856
:1037100018B1037873B903792BB9BDE8F081124869
:1037200002F0E4FBE5E700F0F7FF2068BDE8F041B8
:1037300000F0D4BF02F036FF216800F06DFF206872
:103740000379002BE9D0EEE780090020001000404B
:103750009809002044090020012D000000F00140DC
:10376000B0090020480900209C06090038B5234C08
:10377000234D0523237001F0ADFA0123214A237064
:103780002149D2F83035096923F0FF030B43C2F811
:10379000303500232B6102F021FBE8B902F060F81C
:1037A000012821D8022001F061F9002001F0C8F9B8
:1037B00002F014FB032802D0144802F097FB237890
:1037C000012B02D0124802F091FB124B0221002281
:1037D0002170C5E9033238BD02F000FB0328E1D0B7
:1037E0000D4802F083FBDDE702F0B0F968600028C5
:1037F000D8D10A4802F07AFBD4E700BF450900207F
:1038000098090020001000404C0900200106090022
:10381000070609004D2F0000F9050900F40509000D
:10382000014B1860704700BF4809002038B5234C91
:10383000637D03B138BD224DFFF7B8FCAB68002BA8
:1038400034D06B6873B302F037FB38BB002002F052
:1038500025FB0123637502F0F5FD0128EAD102F092
:1038600031FB38BB00226421164802F0F7FD164BED
:103870001B7F7BB94FF08042144801210160C2F8E0
:103880000031116000BF00BF00BF00BFD2F800319F
:10389000002BFBD0BDE8384002F0A6BD0C4802F07A
:1038A00025FBD3E70B4802F021FBCCE70A4802F0E6
:1038B0001DFBC6E7094802F019FBD3E78009002089
:1038C00038090020D15E00004C090020140500409A
:1038D000D4020900CF020900CE020900B90609008E
:1038E00008B5012282F31088174B597D09B19978E8
:1038F00019B1002383F3108808BD9A7002F0A2FD6D
:103900000128F6D102F0DEFAD0B9002264210F4876
:1039100002F0A4FD0E4B1B7F7BB94FF080420D4897
:1039200001210160C2F80031116000BF00BF00BF7B
:1039300000BFD2F80031002BFBD002F055FDD8E7D4
:10394000054802F0D3FAE0E780090020D15E0000CC
:103950004C09002014050040B9060900024B587DAF
:1039600080F00100704700BF8009002070B501237E
:1039700088B083F31088514C2378834207D0627D4E
:103980006070054642B102F05DFD01282DD0002394
:1039900083F3108808B070BD002B60D0002D43D099
:1039A000474B484E0025C3F8545501F093F923784E
:1039B0003561012BC6E90055C6E9025555D0022BE9
:1039C00061D06368002B56D13F4B99683F4A08A8E5
:1039D000042300F8143D63782370116001F004FFA4
:1039E000002383F3108808B070BD02F06BFA002842
:1039F0005BD100226421364802F030FD324B1B7F40
:103A00007BB94FF08042334801210160C2F8003198
:103A1000116000BF00BF00BF00BFD2F80031002B13
:103A2000FBD002F0E1FCB2E7254B4FF44072C3F843
:103A3000082502F0D3F90028B2D002281ED90328A5
:103A4000AED1CDE900552B462A462946284602F03C
:103A5000EBF80428A4D0204802F048FAA0E7FFF7CA
:103A6000A5FB6578002D9BD1DEE702F0B7F900BB1E
:103A70002378022BA5D1144BD968A7E729462846FD
:103A800001F0CEFFE5E701F025F9144B35611D701B
:103A900002F0A4F90328EBD1CDE900552B462A46C4
:103AA0002946284602F0C0F8E2E70D4802F01EFA67
:103AB0009FE72946284601F0B3FFD9E78009002097
:103AC00000F00140980900204C090020380900202E
:103AD000D15E00001405004048020900450900209D
:103AE000B90609002DE9F0418046012787F31088C7
:103AF000424B434C434E677000250322C3E90055F7
:103B0000C3E902551D611D752270A570C4E90155F8
:103B1000C4E9035525756575C6E9015502F02CFC0D
:103B2000404601F045FE01F0EBFE284602F0AEF9FA
:103B3000304602F0DDF9344B202283F80853384632
:103B400083F8015383F81523FFF710FF2F4B3048FC
:103B5000227883F83050FF2119612E4959620425DB
:103B600069215D7718622C4D2C48196002219D62F5
:103B7000D8621E254FF416708A4283F832705D6158
:103B8000586083F83110D96034D062680F21002A60
:103B90000CBF0A46022299600021326008460122C9
:103BA000598319771A765A7602F06AF96378012BED
:103BB00002D01B4802F09AF91A491B4A002501233A
:103BC0000D6015702370A570C4E90155C4E9035553
:103BD00025756575FFF7EAFA0B4B4FF480714FF4CA
:103BE0000012C3F88011C3F8802185F310880448BF
:103BF000BDE8F0810F219960CEE700BF9809002051
:103C0000800900203809002000E100E04C09002074
:103C100004070A0D05080B0E010203040506070838
:103C20009F020900480900204409002008B501232B
:103C300083F3108802F01EF9002383F3108808BD77
:103C400008B5012383F3108802F016F9002383F3EB
:103C5000108808BD10B5012383F3108802F0C4F862
:103C6000044648B1194B9A780AB95B7D43B90023E1
:103C700083F31088204610BD80F31088204610BDC5
:103C800002F0E0FB0128F2D102F01CF9D0B90022C9
:103C900064210F4802F0E2FB0E4B1B7F7BB94FF013
:103CA00080420D4801210160C2F80031116000BF5F
:103CB00000BF00BF00BFD2F80031002BFBD002F0E4
:103CC00093FBD4E7054802F011F9E0E780090020F2
:103CD000D15E00004C09002014050040B90609001F
:103CE00008B5012383F3108802F0BCF8002383F3A6
:103CF000108808BD02F0B2B802F0AEB802F0B6B853
:103D000002F0BCB8030CF0B4DC01C3F3C0115A01DB
:103D100004F4FF440C4302F04002010ADE001443A5
:103D200006F02006CF01C501344307F4FF47C1F375
:103D3000C01605F4FF4237435D004E0105F0100543
:103D400006F040062C433E43C0F3C0155F08154300
:103D500007F00807420102F040022743C400154360
:103D600004F020042543CC00020E04F02004264376
:103D7000540104F0400CD41144EAC21444EA0C0487
:103D80004FEAD30C0CF0040C5B0947EA0C0703F074
:103D900002033B43470007F010073D434F0007F085
:103DA00010073E43D70007F020073C43470807F0C1
:103DB00008073D434F0807F008073E435700DBB2B2
:103DC00007F010073C431F02C30803F004031D4320
:103DD000CB0803F004031E43530803F008032343F6
:103DE000440904F002042C43D50805F004054909F0
:103DF00052092B4302F0020201F002013143134346
:103E0000064A074D106247EA0464C9B244EA014217
:103E1000DBB21343C5F81C35F0BC70474C090020D9
:103E200000100040014B186A704700BF4C09002089
:103E3000030CF0B4DC01C3F3C0115A0104F4FF44D5
:103E40000C4302F04002010ADE00144306F0200693
:103E5000CF01C501344307F4FF47C1F3C01605F491
:103E6000FF4237435D004E0105F0100506F04006A5
:103E70002C433E43C0F3C0155F08154307F0080705
:103E8000420102F040022743C400154304F020041D
:103E90002543CC00020E04F020042643540104F014
:103EA000400CD41144EAC21444EA0C044FEAD30C87
:103EB0000CF0040C5B0947EA0C0703F002033B43D8
:103EC000470007F010073D434F0007F010073E433F
:103ED000D70007F020073C43470807F008073D4399
:103EE0004F0807F008073E435700DBB207F0100702
:103EF0003C431F02C30803F004031D43CB0803F037
:103F000004031E43530803F008032343440904F049
:103F100002042C43D50805F00405490952092B4336
:103F200002F0020201F0020131431343064A074D39
:103F3000506247EA0464C9B244EA0142DBB2134367
:103F4000C5F82035F0BC70474C0900200010004037
:103F5000072810B5044602D9034801F0C7FF0348FB
:103F6000204490F8280010BDAF0309004C09002040
:103F700038B505460C4641B165B1084BC3E901456A
:103F80000020BDE8384001F0F5BF054801F0AEFF64
:103F9000002DF2D1034801F0A9FFEEE73809002017
:103FA000B8030900B9030900054A0649D2F81835D3
:103FB000487723F4E02343EA0043C2F818357047FA
:103FC000001000404C090020014B5883704700BF8F
:103FD0004C090020034A044B82F83000C3F80C055A
:103FE000704700BF4C09002000100040054B83F8CB
:103FF000320008B1012803D1034BC3F81005704704
:10400000704700BF4C0900200010004010B5064B5F
:104010001B68044613B1054B1C7510BD044801F024
:1040200065FF024B1C7510BDB009002098090020E7
:1040300073040900014B1876704700BF4C0900203B
:10404000014B1877704700BF4C0900202DE9F0475D
:10405000AB4C23698AB023B3636822786BB1013B10
:10406000022A63600CD0002B00F0A980A54DA64A5F
:10407000A378E96811605BB9A9E0022A40F09F804B
:10408000A04DA14AA378E9681160002B00F0F480EC
:1040900001F042FF637D002B40F002810AB0BDE8D1
:1040A000F08702F0D5F90028D6D12378012B00F053
:1040B000A580022B6ED001F02FFF6368E3B1267854
:1040C000013B022E636000D0CBB18E4D8E4FA278A3
:1040D000EB683B60D2B1637D002B40F0928001F031
:1040E000BFFB01284ED90AA8032300F8143D01F0B4
:1040F0007BFB0AB0BDE8F0872678022EE5D0814D23
:10410000814FA278AB683B60002AE4D194F801802B
:10411000B04579D0002E00F0C680B8F1000F00F055
:1041200005817A4BDFF800820026C3F8546500F061
:10413000D1FD2378C8F81060012BC8E90066C8E9F2
:10414000026600F08981022B00F094816368FBB164
:10415000EB683B600AA8042200F8142D62782270F4
:1041600001F042FB00206D6801F098FE21698D424C
:1041700040F27B816648691A012202F06FF9002340
:104180002361ACE7634801F0B1FE0AB0BDE8F087F7
:10419000AB68DEE7604B1878033801288CBF00203D
:1041A0000120002887D0574B59485B685B081946A7
:1041B0000122236102F052F90AB0BDE8F087514DA7
:1041C000514AA378A9681160002B7FF461AF01F018
:1041D000A3FE00206D6801F061FE21698D4203D8C5
:1041E0004E4801F083FE21694948691A012202F014
:1041F00035F9002323610AB0BDE8F08700F05EFDC9
:10420000CFE7FEF785FF6AE7012E00F0AE80C0F031
:104210002181022E54D0424801F068FE6E7E012EAC
:104220007FF45DAF2778022F3FF459AF6368002B0E
:104230007FF455AF002F00F06081012F40F05981CD
:1042400001F0CCFD00287FF44AAF01F085FB002887
:104250007FF445AF02F0F6F801283FF440AF02F0DA
:10426000CFF82B7F13B94FF080435F60002001F03F
:1042700015FE0023636032E7274E3378033B012BA2
:104280003BD9284F01F048FED7F8088501F05CFEC5
:1042900080450DD13378002B9BD1FEF7FFFD98E7C9
:1042A000FEF736FFFAE6FEF781FF94F8018034E767
:1042B00001F04AFEC7F8080501F070FEA075ECE7B2
:1042C000184ED6F8087501F03FFE874240F0E580B1
:1042D000114B1B780BB9FEF7E1FD00206E6801F071
:1042E000DDFD21698E4240F2B0800948711A012239
:1042F00002F0B4F80023236190E76B68044855E7A7
:10430000800900204C0900203809002000F00140FD
:10431000D15E00000B05090045090020DB060900FD
:10432000D50409000010004098090020964B4FF476
:104330004072C3F8082501F051FD00283FF4F1AEAA
:10434000022840F2B28003287FF4EBAECDE900886A
:10435000434642464146404601F066FC04283FF48D
:10436000E0AE8A4801F0C2FDDBE6039200F0B2FC49
:1043700001F034FD039A002800F09C806B8B1BB188
:104380002189994280F0D88002F062F8002840F03C
:10439000AC807F4BD3F8086501F0D6FD864202D091
:1043A0006389013363817B4E3378B3B92378022B61
:1043B00001D063688BB101F0B7FB074600F0BEF98E
:1043C000A27D8DF81900072305A88DF818708DF8C7
:1043D0001A208DF8143001F007FA0023337001F031
:1043E000B3FD6B4BC3F8080501F0D8FDA07501F0D3
:1043F000F5FC012807D001F0F1FC022802D0664844
:1044000001F074FD002000F031FB02F0CBF85E4BB0
:10441000624AC3F850051268614E5268C3F85425C9
:10442000306850B10378002B40F0A680037923B1A7
:1044300000F072F9306800F051F901202E6801F0A7
:104440002DFD21698E423FF650AF564801F04EFDDA
:1044500021694AE7104641E701F0C0FC00283FD13E
:104460002378022B3FF474AE70E64E4801F03EFD17
:1044700021697FE600F02EFC4B4BC8F810601E70DF
:1044800001F0ACFC0328EBD1CDE90066334632469F
:104490003146304601F0C8FBE2E701F055FDC6F8B1
:1044A000080501F07BFDA07515E74146404601F087
:1044B000B7FA53E701F0D4F90128BED92378022BCB
:1044C0002AD0666846BBE06801F054FD304601F032
:1044D0006BFD01F047FA0028AFD0FFF7D7F8ACE743
:1044E0003146304601F09CFABAE7304801F0FEFC54
:1044F0004FE72F4801F0FAFCF1E501F0A3FF012896
:104500003FF4EDAD01F07CFF2B7F002B7FF4AEAECE
:104510004FF080435E60A9E601F05AFD00288CD17F
:104520002B7E23B901F03AFDE368984285D101F072
:1045300019FA002881D0D0E71046314601F070FA10
:1045400001F0F8FAB4F80890B4F80A80824601F055
:10455000EBFA074600F0F2F88DF8210005A8CDF837
:1045600018A0ADF81C90ADF81E808DF820708DF865
:10457000146001F039F960E702F014F8316800F0D6
:104580004BF8306852E700BF00F0014048020900D4
:1045900000100040440900209C060900B0090020DA
:1045A00048090020DB0609004509002081050900B3
:1045B000EF04090038B5124B124D1B685B7D2BB11F
:1045C000012000F0BDFA2B8901332B810E4A0F4BDD
:1045D0000020C2F85405D3E90014641A01F05EFC0F
:1045E00029698C4203D80A4801F080FC29690948EE
:1045F000611A012201F032FF00232B6138BD00BF98
:10460000B00900208009002000F001404C09002082
:10461000DB060900D15E000070B48B682A4A0024D2
:10462000C3F840410B7B8C68A23304F5A07442F8B8
:1046300033400B7B4C78CD78A233002C36D0234C02
:1046400002EBC30304EB85045C604A7B1E4B204CE9
:10465000204EA23243F832004A7B8D68A23203EB2F
:10466000C20200205560C4F80C01C4F810018A7B16
:10467000A23243F832608A7B4878CC78A232E0B923
:10468000124803EBC20300EB840058600B7B487BAD
:104690008D7B0D4C012202FA03F302FA00F10B4369
:1046A000AA401343C4F8043570BC70470A4C02EBAF
:1046B000C30304EB85045C60C7E7074803EBC20350
:1046C00000EB84005860E1E700F0014030600040FA
:1046D000001000400C1100406060004083680C4AEC
:1046E000002110B4C3F84011C37B0A4CA23301214E
:1046F00042F83340C37B8468A23302EBC3035C609F
:10470000C37B01FA03F3C2F804355DF8044B70472C
:1047100000F00140101100404279C3792AB90C33EE
:10472000054A012142F8231070471833024A01213B
:1047300042F82310704700BF00600040014B18781A
:10474000704700BFB8090020F0B5A14CA14BA24AA8
:104750000225C4F880500026C4F880504FF0FF377F
:10476000C4F880510124C3F80873C3F80062C3F889
:1047700010611C619C611378A34200F03981023BF7
:10478000012B40F2D180013C00BF00BF00BF00BF41
:1047900000BF00BF00BF00BF00BF00BF00BF00BF21
:1047A00000BF00BF00BF00BF00BF00BF00BF00BF11
:1047B00000BF00BF00BF00BF00BF00BF00BF00BF01
:1047C00000BF00BF00BF00BF00BF00BF00BF00BFF1
:1047D00000BF00BF00BF00BF00BF00BF00BF00BFE1
:1047E00000BF00BF00BF00BF00BF00BF00BF00BFD1
:1047F00000BF00BF00BF00BF00BF00BFC3D1754CEA
:10480000734D764FDFF8E0E1DFF8E0C100234FF0B1
:10481000FF36C4F81031C4F80032C4F80863022629
:10482000C4F80C31C5F88061C4F80031C4F8103107
:10483000C4F804312E6003243960CEF800006849C2
:10484000684813705470CCF86405CCF86015D0F843
:104850006017536021F0807121F0010141F08071F7
:10486000C0F860172E60396813611375537593751E
:10487000002953D00B79002B52D08B6803200422DF
:10488000C3F80805C3F810250A7C002040F2011582
:10489000C2F181020124C3F84025C3F80052C3F8D5
:1048A0000405DC60C3F840010B79D3B1CB798A7978
:1048B00048799B0003F18043120203F5C04302F4E0
:1048C0007C5242F40032C3F81025D3F8102500289A
:1048D00072D0C3F81025D3F8102542F00302C3F8B4
:1048E00010250B78D3B1CB788A7849789B0003F1F7
:1048F0008043120203F5C04302F47C5242F40032BA
:10490000C3F81025D3F8102500294AD0C3F8102584
:10491000D3F8102542F00302C3F810252E48F0BD4D
:104920000B78002BFAD0A8E7013D00BF00BF00BF05
:1049300000BF00BF00BF00BF00BF00BF00BF00BF7F
:1049400000BF00BF00BF00BF00BF00BF00BF00BF6F
:1049500000BF00BF00BF00BF00BF00BF00BF00BF5F
:1049600000BF00BF00BF00BF00BF00BF00BF00BF4F
:1049700000BF00BF00BF00BF00BF00BF00BF00BF3F
:1049800000BF00BF00BF00BF00BF00BF00BF00BF2F
:1049900000BF00BF00BF00BF00BF00BF00BFC3D14A
:1049A0002DE742F48012C3F81025D3F8102542F009
:1049B0000302C3F81025B1E742F48012C3F81025B2
:1049C000D3F8102542F00302C3F8102589E700BF91
:1049D00000E100E000100040BC090020D8090020E0
:1049E0000411004014100040B409002000F0014000
:1049F0000623013B00BF00BF00BF00BF00BF00BFD8
:104A000000BF00BF00BF00BF00BF00BF00BF00BFAE
:104A100000BF00BF00BF00BF00BF00BF00BF00BF9E
:104A200000BF00BF00BF00BF00BF00BF00BF00BF8E
:104A300000BF00BF00BF00BF00BF00BF00BF00BF7E
:104A400000BF00BF00BF00BF00BF00BF00BF00BF6E
:104A500000BF00BF00BF00BF00BF00BF00BF00BF5E
:104A600000BF00BF00BF00BFC3D1C8E62DE9F843B7
:104A70002C4A2D4BDFF8C4802C4C2D4E4FF0FF35C7
:104A80000221C2F80853C3F88011D8F800106070F2
:104A900000236375D1F800E0C4F808E00701D1F8FD
:104AA00004C0F559A3610228C4E903C3656006EB9D
:104AB000070921D8054699F80B0099F80890C2F823
:104AC0000092C2F80C31C2F81031C8B9C2F804E53E
:104AD000D2F8043503B3F319124A5B7AC2F80433EF
:104AE0000B7D4BB1022D07D102F5F0324FF48061FE
:104AF0000023C2F80415A37501236375BDE8F8838C
:104B0000C2F804C5D2F80435002BE4D1094801F0FD
:104B1000EDF9D8F80010DEE7074801F0E7F9D8F81A
:104B20000010D8E70010004000E100E0BC090020C0
:104B3000F8680000A1020A009C020A00B4090020E3
:104B4000F8B5504C637D65780646002B3CD0237D3C
:104B5000002B35D101220023022D227563752AD83E
:104B600056B9494B1B6813B11A79002A30D147490D
:104B70002B010122CB581A606B1E012B10D9444B1C
:104B80001B681B7D5BB1022D09D1424BD3F8043564
:104B90005B0564D5404BD3F80435002B5AD0F8BDE3
:104BA0003A4B03EB05139B7A2370394B1B681B7D33
:104BB000002BE8D1F3E73948BDE8F84001F096B999
:104BC000374801F093F9C5E7364801F08FF9BEE7A1
:104BD0009A68304FC2F84061197B9868A23100F59D
:104BE000A07047F831001A7B5979D879A232002990
:104BF00039D12D4907EBC20201EB80005060264AF3
:104C000024492A480026C2F80C615A7BA23241F896
:104C100032005A7B5879DE79A23258BB244801EB26
:104C2000C20200EB860050601A7B597B194E0120AE
:104C300000FA01F100FA02F20A434FF0A041C6F86F
:104C40000425D1F810259979CA40D2075CBF9B682A
:104C500018608CE71748BDE8F84001F047B91648DE
:104C600001F044F996E7124907EBC20201EB80001C
:104C70005060C4E70C4801EBC20200EB86005060B4
:104C8000D2E700BFBC090020D8090020F868000066
:104C9000B409002000F0014000100040DD020A00CD
:104CA000B9020A00B8020A00606000400C1100401E
:104CB00030600040E3020A00E2020A00044BD3F82D
:104CC0000401A0F10100B0FA80F04009704700BF74
:104CD0000010004030B4784A784B79490220C2F87D
:104CE00080000024C2F880014FF0FF350122C3F894
:104CF0000853C3F80042C3F810411A619A610B7857
:104D0000934200F09B80023B012B5AD9013A00BF2D
:104D100000BF00BF00BF00BF00BF00BF00BF00BF9B
:104D200000BF00BF00BF00BF00BF00BF00BF00BF8B
:104D300000BF00BF00BF00BF00BF00BF00BF00BF7B
:104D400000BF00BF00BF00BF00BF00BF00BF00BF6B
:104D500000BF00BF00BF00BF00BF00BF00BF00BF5B
:104D600000BF00BF00BF00BF00BF00BF00BF00BF4B
:104D700000BF00BF00BF00BF00BF00BF00BF00BF3B
:104D800000BFC3D14D4A4C4800234FF0FF34C2F856
:104D9000103103254B750B704B60C2F800320B7558
:104DA000C2F808430224C2F80C314D70C0F88041AB
:104DB000C2F80031C2F81031C2F80431046030BCCE
:104DC0007047013800BF00BF00BF00BF00BF00BF79
:104DD00000BF00BF00BF00BF00BF00BF00BF00BFDB
:104DE00000BF00BF00BF00BF00BF00BF00BF00BFCB
:104DF00000BF00BF00BF00BF00BF00BF00BF00BFBB
:104E000000BF00BF00BF00BF00BF00BF00BF00BFAA
:104E100000BF00BF00BF00BF00BF00BF00BF00BF9A
:104E200000BF00BF00BF00BF00BF00BF00BF00BF8A
:104E300000BF00BF00BF00BFC3D1A3E70623013BF3
:104E400000BF00BF00BF00BF00BF00BF00BF00BF6A
:104E500000BF00BF00BF00BF00BF00BF00BF00BF5A
:104E600000BF00BF00BF00BF00BF00BF00BF00BF4A
:104E700000BF00BF00BF00BF00BF00BF00BF00BF3A
:104E800000BF00BF00BF00BF00BF00BF00BF00BF2A
:104E900000BF00BF00BF00BF00BF00BF00BF00BF1A
:104EA00000BF00BF00BF00BF00BF00BF00BF00BF0A
:104EB00000BF00BFC3D165E700E100E00010004083
:104EC000BC0900202DE9F041934C2369627D65788F
:104ED00001332361002A40F0C6802378032B5ED083
:104EE000022D00F2C480012D00F0CE80022D00F0D2
:104EF00004816278894B120199180D7B2DB1884984
:104F0000D1F80C51003518BF01251344844A9B7A0F
:104F100023700021032BC2F8001200F0AD804FF087
:104F2000FF30804BC2F80803C2F80C1103200222A4
:104F30006070C3F880217A4A7B4E0023C2F80031AA
:104F4000C2F81031C2F80431326823751269636007
:104F500002B190471DB133689B6803B19847734B0A
:104F60001B68D3B11A79C2B19A7B714802F51172EC
:104F7000002440F82240DA7B02F51172012140F84A
:104F800022405A7B9C7BDD7B01FA02F301FA04F29A
:104F90001343A9400B43C0F80835BDE8F081604ECB
:104FA000D6F80C31002B9BD0012D00F0D180022DC2
:104FB00040F01E812369022B00F01F815D4800F044
:104FC00095FF2369012B00F0DF82022B00F0158191
:104FD000032B40F09C80D6F80C31012B02D05648B0
:104FE00000F084FF4E4BD3F81031012B02D0534810
:104FF00000F07CFF4A4BD3F80031012B02D050481F
:1050000000F074FF464B494900224FF0FF30C3F8CF
:105010000C21C3F81021C3F80021C3F80421C3F800
:105020000803C3F800220B687BB11A786AB15A7B77
:10503000987BDE7B3E4D012101FA02F301FA00F27A
:105040001343B1400B43C5F80835374A00231268B3
:10505000237512692370032163606170002A9CD05C
:10506000BDE8F0411047374800F040FF35E73648CB
:10507000BDE8F04100F03ABF6FF008010823C2F824
:105080000813C2F8043356E72369012B00F0E281CC
:10509000022B00F01B82032B7FF47FAF204A63704A
:1050A000022000234FF0FF3120701E4FC2F80C3158
:1050B000C2F80031C2F81031C2F80431C2F8283108
:1050C000C2F80032C2F80813A169174EC7F8800170
:1050D000013130682375A161017D6360002976D0BC
:1050E000D2F84815124FC2F81C314B424FF4806180
:1050F000A3759561C7F8081569E02369012B00F0D5
:10510000E180022B00F03881032B00F0D4800F489F
:10511000BDE8F04100F0EABEBC090020F8680000DC
:105120000010004000E100E0B4090020D809002090
:1051300000F0014045030A00F5040A00F6040A00E5
:10514000F7040A0038030A0060030A0033050A0066
:105150002369032B0CD0B04800F0C8FE2369012B53
:1051600000F02E82022B00F03182032B7FF415AF6A
:10517000AA4AAB4DA169AB4E0327677000230220FA
:105180004FF0FF372070C2F80C31C2F80031C2F87E
:105190001031C2F80431C2F82831C2F80032C2F826
:1051A0000873C5F88001013130682375A161017D64
:1051B000636061B1D2F848159B4DC2F81C314B4277
:1051C000A37501214FF480639161C5F80835934BB5
:1051D000E268D3F804359A4203D0944800F086FE82
:1051E0003068C368002B3FF4D8AEBDE8F0411847E3
:1051F0008F48BDE8F04100F079BE894A874B8D4861
:10520000884E042121700221C2F88011D3F80825AC
:10521000A169D2B202700022C3F80C21C3F80021A8
:10522000C3F81021C3F8042133680131A1611B7D4B
:10523000B3B17D4BD3F80035580502D47E4800F059
:1052400055FE764B7849D3F848255242A275002581
:1052500001204FF48062C3F81C519861C1F8082501
:105260006E4BD3F8003113B1744800F03FFE6B4B26
:10527000D3F80C3113B1724800F038FE684BD3F804
:105280000031990702D56F4800F030FE6E4B1B6865
:105290001BB11A78002A40F059823368DB6803B1E9
:1052A000984733685A7D002A3FF477AE5B4A1B6803
:1052B000C2F8043571E6594BD3F80C31012B3FF499
:1052C00091AE8CE6554A564E5F480021C2F80C114B
:1052D0000824C2F80011C2F81011C2F80811C2F86F
:1052E00004110721C6F88051C2F80443C2F80833FC
:1052F000C2F800120268002A3FF44FAE117921B1C2
:10530000107B49498340C1F808351378002B3FF4DE
:1053100044AE936844490020C3F84001937B9068F1
:10532000A23300F5A07041F83300937B5078D47815
:10533000A233002840F0C381444801EBC30300EBD3
:105340008400586093683848414C0021C3F84011EC
:10535000D37BA233012140F83340D37B9468A2333E
:1053600000EBC3035C60937BD27B01FA03F39140B3
:105370000B43C0F8043510E6294A284B2D48294E26
:1053800004212170C2F88051D3F80825A169D2B256
:1053900002700022C3F80C21C3F80021C3F81021C9
:1053A000C3F8042133680131A1611B7DA3B11E4BF9
:1053B000D3F800355A0540F19081184B1A49D3F8BB
:1053C00048255242A275002501204FF48062C3F89F
:1053D0001C519861C1F80825104BD3F80031002BFF
:1053E00040F048810D4BD3F80C31002B40F03E814A
:1053F0000B4BD3F800319B0700F13481124B1B6833
:105400001BB11A78002A40F039813368DA68002A23
:105410003FF448AF904744E740030A0000100040C3
:1054200000E100E0B409002000F0014051040A004E
:105430004A030A00B8090020C0040A00C9040A008F
:10544000CA040A00CB040A00D809002060600040AA
:105450000C110040AA4BD3F80031012B02D0A9480F
:1054600000F044FDA64BD3F80431012B02D0A6482E
:1054700000F03CFDA24BA54DD3F80815A448C9B2D5
:10548000297000224FF0FF350121C3F80021C3F835
:105490000421C3F80821C3F80853C3F804130368B0
:1054A0001B7D23B19B4B4FF48062C3F804259A4BBC
:1054B0001B681BB11A79002A40F0A280904BE26869
:1054C000C3F804250B22C3F8002266E58C4BD3F801
:1054D0000C31012B02D0914800F008FD884BD3F825
:1054E0001031012B02D08E4800F000FD844BD3F820
:1054F0000031012B02D08B4800F0F8FC804BD3F830
:105500000431002B78D17E4B834800220225C3F85A
:105510000C210121C3F81021C3F80021C3F8042194
:10552000C3F80821C3F800520825C3F80813C3F8CC
:10553000045303682275032062602070CBB1187990
:10554000002848D09C7B734804F5117440F824204F
:10555000DC7B04F5117440F824205A7B9D7BDC7BB6
:1055600001FA02F301FA05F21343A1400B43C0F81C
:105570000835674E33681B6903B1984733689B68E9
:10558000002B7FF432AE08E50022674CC6F80C21F0
:105590006149C6F800210820C6F81021C6F8082184
:1055A000C6F804210722C4F88051C6F80403C6F8DF
:1055B0000833C6F800220A68002A7FF49FAEECE4A4
:1055C000D6F80031012B3FF44DAF48E7D6F80C3147
:1055D000012B83D07FE71A78002ACAD01A7B587B28
:1055E0009D7B4C4C01FA02F301FA00F21343A940EF
:1055F0001943C4F80815BCE74C4800F077FC82E773
:10560000597B9868434AA23100F5A07042F83100F6
:10561000597B5879DD79A231002857D0444802EBF4
:10562000C10200EB850050605D7B3A4A4148012190
:10563000A940C2F80415197BA23142F83100197B48
:105640005879DD79A23100284BD1394802EBC102EB
:1056500000EB85005060197B2E4A01238B40C2F875
:1056600004352BE7344800F041FCC7E6334800F02E
:105670003DFCBDE6324800F039FCB3E6204A25493E
:105680002C480024C2F80C415A7BA23241F8320067
:105690005A7B5878DC78A23250BB254801EBC20215
:1056A00000EB84045460597B1A48012202FA01F18C
:1056B000C0F80415DB7B9A40C0F80825A5E61C4815
:1056C00001EBC30300EB840058603BE61D4802EB8E
:1056D000C10200EB85005060A6E71B4800F006FC05
:1056E0006BE6184802EBC10200EB85005060B2E7A0
:1056F000144801EBC20200EB84045460D3E700BFFE
:1057000000100040BD030A00BE030A00B8090020D3
:10571000B409002000F00140D8090020F3030A007A
:10572000F4030A00F5030A0000E100E0F6030A00B2
:10573000306000400C110040CB040A00CA040A008B
:10574000C9040A0060600040C0040A00134A1449FA
:1057500014480024C2F80C415A7BA23241F83200AE
:105760005A7B5878DC78A23288B90F4801EBC20224
:1057700000EB84005060597B0948012202FA01F1D4
:10578000C0F80415DB7B9A40C0F8082585E507487A
:1057900001EBC20200EB84005060ECE70010004017
:1057A00000F001400C11004030600040606000409B
:1057B00010B5044668B1094B09491C6000224FF43A
:1057C0000010C3F8CC20C3F8D020C3F8D420086060
:1057D00010BD044800F08AFBEDE700BFDC090020A3
:1057E00000E100E03E000B0070B5194D2B68064645
:1057F0004BB3D5F8D430092B21D8D5F8CC400FCEF7
:1058000004EB840405EB840404340FC43368236080
:10581000D5F8D4300133C5F8D430D5F8CC300133C5
:10582000C5F8CC30D5F8CC30092B84BF0023C5F89F
:10583000CC30084B4FF40012C3F8002170BD06486D
:1058400000F054FBD9E7054800F050FBD1E700BF5A
:10585000DC09002000E100E04B000B004A000B00D7
:1058600010B5074CD4F8D4300A2B02D9054800F003
:105870003DFBD4F8D400C0F10A00C0B210BD00BF97
:10588000DC09002079000B00F0B5012687B086F313
:1058900010881A4DD5F8D43053B30027D5F8D0402E
:1058A00004EB840405EB840404340FCCD4F800E04A
:1058B000D5F8D440013CC5F8D440D5F8D0C001ACEF
:1058C0000FC40CF10103C5F8D030D5F8D030C4F8BE
:1058D00000E0092B88BFC5F8D07087F310882B68CB
:1058E00001A8984786F31088D5F8D430002BD5D17D
:1058F000002383F3108807B0F0BD00BFDC0900204F
:1059000008B500F06BFB124A12490023C2E90133CB
:10591000C2E90333C1E90033012082F881009361B9
:105920009363D361D36313621364536253649362CA
:105930009364D362D3641363136553635365137025
:10594000536182F8803082F85830D36708BD00BFB9
:10595000BC0A0020B40A0020014B93F88000704775
:10596000BC0A002010B52A4C237823B994F8803063
:1059700043B9002010BD274800F0B8FA94F88030F1
:10598000002B32D02069606000F0C0FCA0600028CD
:1059900039D0437813F0010302D194F881204ABB37
:1059A0006068083000F0D0FC02281ED8E36FB3B165
:1059B000E3600123A068237000B3236963600633AA
:1059C00004EB83030021DA7884F880100132D2B22C
:1059D000DA70437862F342034370012010BD00F097
:1059E00063FBE067E0600028E3D12378002BC0D0A0
:1059F000A068E1E70222E3602270DEE7064800F0DB
:105A000075FAA068D9E7054800F070FAA068C0E709
:105A1000BC0A002098000C00B8000C009F000C008D
:105A20002DE9F041394C2378013B012B06460D4608
:105A300012D8B6B12378012B48D1E368002B4BD0A4
:105A40001E78002E4FD17DB994F88070002222700C
:105A5000F7B13046BDE8F0812D4800F047FA002E3E
:105A6000E8D10426002DEFD06568284600F022FC1E
:105A700010B1284B00225A55A3688342E4D026482F
:105A800000F034FA94F8807000222270002FE0D1E8
:105A9000606908254FF0010800F056FC80B9606984
:105AA00094F880300130082812BF606100206761DF
:105AB000002BCED1013DCCD000F046FC0028EED02A
:105AC000606984F8808020610123EBE7134800F0CF
:105AD0000DFAE368002BB3D1114800F007FAE36830
