:100000000080002005190000451900004719000074
:1000100000000000000000000000000000000000E0
:10002000000000000000000000000000491900006E
:1000300000000000000000004B1900004D190000F6
:100040008D180000A53C0000711400004F1900003D
:100050004F19000000000000010B00004F190000C4
:10006000594C00004F1900004F1900002D170000D7
:100070004F1900004F1900004F1900004F190000E0
:100080004F190000950200004F1900004F190000A1
:10009000710300000D4000004F1900004F190000CF
:1000A0004F1900004F190000000000000000000080
:1000B0000000000000000000000000000000000040
:1000C00010B5064C2378002B07D1054B002B02D02E
:1000D000044800E000BF0123237010BD9000002001
:1000E00000000000944E0000044B10B5002B03D01C
:1000F0000349044800E000BF10BDC04600000000F6
:1001000094000020944E0000164B002B00D1144B9D
:100110009D46402292029A1A924600218B460F4633
:100120001348144A121A00F065F80F4B002B00D048
:1001300098470E4B002B00D0984700200021040068
:100140000D000D48002802D00C4800E000BF00F070
:100150002DF82000290001F075FE00F011F8C046CE
:1001600000000800008000200000000000000000E7
:1001700090000020C40600200000000000000000E5
:10018000084B10B50400002B02D0002100E000BF96
:10019000054B1868836A002B00D09847200000F0B8
:1001A00031F8C04600000000184E000070B500266F
:1001B0000C4D0D4C641BA410A64209D1002604F07E
:1001C0001FFE0A4D0A4C641BA410A64205D170BD47
:1001D000B300EB5898470136EEE7B300EB58984769
:1001E0000136F2E788000020880000208800002007
:1001F0008C00002003001218934200D17047197040
:100200000133F9E7FEE7C04600290CD0002A08D0E8
:10021000531E1A4005D1826001608380C2600020B5
:1002200070470920FCE70E20FAE7C046030010B52E
:100230009C888068DA68121A0420944207D3002050
:10024000DA6814401A681155DA680132DA6010BDB4
:100250008268C3689A420AD0836882881340026821
:10026000D35C0B70836801338360002070470520E6
:10027000FCE7C046002300B585B001AA90600021CC
:1002800003481380536001F013FC05B000BDC04665
:1002900001400000A021F0B50023C6462B4A4900CA
:1002A00000B553500431535004315350043153506E
:1002B0004C39535004315350254B1B68002B35D01B
:1002C000244900255458244A244F1268A41A0022B5
:1002D0002402240A904602E0002E18D033001A6847
:1002E000A24214D8A41AAD181A7CDE69002AF3D0F1
:1002F000424699691A745A693B68002B19D010005C
:1003000098470028E8D0FFF7B5FF002EE6D1144942
:10031000144A0B7812789A420ED0134A9B009D50D3
:1003200080218023114A5B004903D15004BC9046D0
:10033000F0BD08009047CFE70132D3B2022B01D0C5
:100340000B70EAE700230B70E7E7C046001001409E
:10035000CC00002004050000C8000020AC000020F4
:10036000C5000020C4000020BC00002000E100E027
:10037000F0B54E464546DE465746E0B5C54BC64A43
:100380009946C6491B680978984613788BB09942FC
:1003900000D16CE10133DBB2022B00D162E11370BA
:1003A000BF4A9B009F5843464A46DB191B021B0A63
:1003B0000293136001239B46BA4B9A461978524622
:1003C000B94B52681C6853465B78069252460393B9
:1003D00092780792B54A12780992994200D12EE29A
:1003E000029808920590002023000A0004900190D2
:1003F000069D50008018AC460132079DD2B2551BB5
:100400006E1EB541C0006D4260442A400578022D41
:1004100000D1A3E0032D08D1002B06D000201874D2
:10042000DB69002BFAD10120049003989042DFD1C0
:10043000019A002A00D072E1049A002A07D09A4A51
:10044000E41A1360621E9441E2B21C0004925B46FF
:100450000025002B00D010E100232000019305931C
:10046000A046002D35D06C68AA682B00ED69029E6D
:100470008F4FA61B3602360ABE425BD8B218012443
:1004800000261A605E609E601C74DE61002861D0E8
:10049000066883469446964208D387E02268BA42AB
:1004A00000D3CEE0A346089C1600A4465C466246F4
:1004B000E469921B17000892002CEFD1A446089A19
:1004C0001A606246DA615A46D36103001800002DB3
:1004D000C9D1039B8B4200D10FE1069B4E007618D9
:1004E0009C460131079BC9B25B1A5A1E9341F60024
:1004F0005B42664419403378012B5ED173681A7CE5
:10050000002A5AD1B46894465C60F2689A603769F0
:10051000DF6076699E6101260596099E002EA6D0B1
:1005200064460596029E624FA61B36025C60360A40
:10053000BE42A3D9029E341B2402240A94422AD22A
:100540000026121B01241A605E609E601C74DE612E
:1005500000289DD1012218000192B8E74068002BC5
:1005600000D162E7984200D12BE11D0000E0350088
:10057000EE69002E00D158E7B042F8D1A84268D009
:1005800030688446F069E861002800D14DE70568CD
:100590006544056049E7002401221C605C609C60A2
:1005A0001A74DC610028D5D000220668B21A0260F5
:1005B0000122D8610192180089E7039B8B428CD1FC
:1005C000444653461970019B002B4DD0364B1860A2
:1005D000844202D1049B002B29D0002800D1FAE0EC
:1005E00002684846334B344904685958334D081B58
:1005F00000022E78000A0330A946002E00D197E0B1
:100600001300824200D203001B19A82429481B02B0
:100610001B0AE400284D035142595B1A521A120278
:10062000120A1B0203321B0A9A4200D9A7E00023D8
:100630001E4A13700BB03CBC90469946A246AB468E
:10064000F0BD6746A44614006246A419E41B14607A
:1006500035E7DB69002B56D00568C061AC46012543
:10066000049594E700239AE60F4B1868B0E74346D9
:100670000293002300279B469EE6002C39D0236876
:100680009F4200D2DEE0002294460A00002041464C
:1006900090461AE0C8000020C4000020C5000020D9
:1006A000BC000020B0000020CC000020B8000020DA
:1006B000FEFF7F000010014004050000B90000208B
:1006C00013681400BB4200D973E0FF1AC0186346D8
:1006D000E6682360E269002E06D0E56125000B186C
:1006E0001B021B0A6360A660002AE9D14146564BF3
:1006F0001A605B4600240493AEE6059B4446002B3B
:1007000000D160E75DE70120504B98600020012395
:1007100005900130049301900023089030E74D4686
:100720004B48089A0270059809922860029083E667
:100730008026D1277602BF00DE51403FDE51802760
:10074000C026444DBF027600AF5101262F601E60C7
:10075000414B1F682F239846404B9C464346C0465A
:10076000C046C046C046C046C046C046C0466745B3
:1007700000D0C046013BF2D14B461E7040E74359C2
:1007800036490351344B1A682F23C046C046C04631
:10079000C046C046C046C046C0468A4200D0C04699
:1007A000013BF2D1802380212A4A5B008902D1508B
:1007B0003DE7414624480260DF1B5B461760049317
:1007C0004AE6D8691D001E00002800D19BE70300FF
:1007D00001200490D4E6802180231E4A8902D15052
:1007E0008023D2210125194A5B02890053504039E8
:1007F0005350194B556019682F23184C1E00C046E2
:10080000C046C046C046C046C046C046C046A142DB
:1008100000D0C046013EF2D195604A461060C04605
:10082000C046C046C046C046C046C046C046A142BB
:1008300000D0C046013BF2D1094B1870F7E6002307
:10084000049304E62200B7E7CC000020001001402A
:10085000B800002000E100E0680000200024F4005F
:10086000B900002072B6024A136801331360704762
:10087000D0000020034A1368013B1360002B00D115
:1008800062B67047D000002030B5047885B0012CE6
:1008900013D0002C2DD0022C0DD102AB1C70C368DC
:1008A0000122254925480193039300F0E5FC244BE0
:1008B00002A81B68984705B030BD4368214D1978E0
:1008C0002800FFF7B3FC002822D1AA68EB689A42FF
:1008D00005D002AB18701A4B02A81B689847A9688C
:1008E000AA88EB685B1A9A4220D20122164B1A7032
:1008F000E1E7164C16482100FFF7AAFC00280FD0AC
:10090000032302AA13700E4B10001B689847D2E70E
:1009100002AB1C700A4B03901B6802A89847DEE7E5
:1009200001222100054800F019FCC4E70122024918
:10093000024800F0A1FCBEE7FC000020600000209F
:10094000D4000020D8000020E80000200001002092
:10095000EC000020F0B51E00254B89B005000C1EF0
:100960001A6043D08A8823480968FFF74DFC0028A5
:1009700001D009B0F0BDA289A1681F48FFF744FC6F
:100980000028F6D169460A001C4B91CB91C291CB4D
:1009900091C211CB11C26B698B612B7C0E775A1EF1
:1009A00093410B756B7C5A1E93410E225B421340A0
:1009B0004B756B6800932B680193EB680293AB68EF
:1009C00003930F4C0F4A200000F022FB0028D0D1E7
:1009D0000D4B18702B680133CBD0200000F02AFD9E
:1009E00001220A49200000F047FCC2E70720C0E7C7
:1009F000D4000020D8000020EC0000201C4E000095
:100A00006000002089080000E8000020FC000020B1
:100A100070B50B4C01000B482678FFF719FC050058
:100A2000002E01D1280070BD00230122064907488D
:100A3000237000F021FC0028F4D0FFF71BFCF1E745
:100A4000E8000020D8000020FC000020600000200A
:100A5000F8B50E4D01002800FFF7E8FB041E01D099
:100A60002000F8BD0A4E300000F0F8FB0028F7D156
:100A7000084F28003900FFF7EBFB0028F0D10122D6
:100A80003900300000F06AFB0400E9E7EC000020C8
:100A9000600000200001002030B5FF2503232A005C
:100AA000C4B22340DB009A4089010D40D2439D40EF
:100AB000002814DB104B80089C46C0238000604453
:100AC0009B00C1580A401543C5501F23C0211C403C
:100AD0001E3BA340084A49005350136030BD0F230A
:100AE000064923408C46083B9B089B006344D96918
:100AF0000A401543DD61E8E700E100E000ED00E0B9
:100B0000F0B54546DE4657464E460021E0B5CB4A95
:100B100087B0039113680025012B00D1A8E1C84BD1
:100B20001A68012A00D197E1C64B1A68012A00D140
:100B300077E1C54B1A68012A0DD0C44B1A68012A07
:100B400000D19EE1002D1ED107B03CBC90469946D5
:100B5000A246AB46F0BDC122BD4992008958082289
:100B60000A42EAD000211960B84B15431A68012ADD
:100B700009D11960A022A223D205DB00D358039328
:100B800080231B061D43B34BA2279846032301264F
:100B900000249946FF002E420ED0AD4AA3009A18B9
:100BA000D059D1594246D358002B05D04A46090C9A
:100BB000C0041140C00E984701347600042CEAD1DD
:100BC000002DC1DA0023C02607250493A14C013B68
:100BD00005934023E1564B1C45D02B000127C9B299
:100BE0000B409F4008003B00B043C20805AFBF5C0C
:100BF0003B4238D02718BC462027B846C444674635
:100C00003F7889097FB2BF00E7598B46B946002F6C
:100C100000D1B6E1032900D1B6E18700B846A0278C
:100C2000FF05BC46E027FF00E044BC46474661465E
:100C300079588903890F8C4603A98A5C13420ED028
:100C40006346022B0FD15B46032B00D1D4E1002376
:100C500098464B46002B08D05946C84705E06346E6
:100C6000032B00D1A9E1002398464123E1564B1CF8
:100C70003FD02B000127C9B20B409F4008003B002A
:100C8000B043C20805AFBF5C3B4232D02718BC4618
:100C90002027B946CC4467463F7889097FB2BF0018
:100CA000E7590191B946002F00D178E1032900D11D
:100CB00078E18700BA46A027FF05BC46E027FF0081
:100CC000E244BC465746614679588903890F8C46F1
:100CD00003A98A5C134200D11AE16346022B08D1B2
:100CE000019B032B00D17FE14B46002B01D00199E2
:100CF000C8474223E1564B1C3FD02B000127C9B205
:100D00000B409F4008003B00B043C20805AFBF5CEA
:100D10003B4232D02718BC462027B946CC44674610
:100D20003F7889097FB2BF00E7590191B946002F8A
:100D300000D118E1032900D118E18700BA46A027A5
:100D4000FF05BC46E027FF00E244BC46574661462B
:100D500079588903890F8C4603A98A5C134200D114
:100D6000B9E06346022B08D1019B032B00D13FE180
:100D70004B46002B01D00199C8474323E1564B1C39
:100D80003ED02B000127C9B20B409F4008003B001A
:100D9000B043C20805AFBF5C3B4231D02718BC4608
:100DA0002027B946CC4467463F7889097FB2BF0007
:100DB000E7590191B946002F00D1C6E0032900D1BF
:100DC000C6E08700BA46A027FF05BC46E027FF0023
:100DD000E244BC465746614679588903890F8C46E0
:100DE00003A98A5C134258D06346022B08D1019BA9
:100DF000032B00D104E14B46002B01D00199C847D9
:100E00004346002B00D19FE6A022A223D205DB009F
:100E1000D358039A9A4200D196E60393049B059314
:100E2000D7E6C1220A499200895804220A4200D119
:100E30007FE60021154319607BE6C0460061004053
:100E400004610040086100400C6100407C6100408A
:100E50000060004008010020C1226B4992008958BF
:100E600002220A4200D15FE60021154319605BE6C9
:100E7000C120654C800025581D4000D14FE611600F
:100E80004DE600221A60A022A223D205DB00D3582F
:100E90000393002D00D195E672E66346032BAFD194
:100EA000019B032BA7D180239B029C46E023524643
:100EB000DB00D25855490A405146CA50CA586146CB
:100EC0000A435146CA504B46002B9DD0434601333E
:100ED000DBB2984692E76346032B00D04DE7019BB7
:100EE000032B00D044E780239B029C46E02352461C
:100EF000DB00D25845490A405146CA50CA5861469B
:100F00000A435146CA5043460133DBB298462FE7A5
:100F10006346032B00D0ECE6019B032B00D0E3E6F5
:100F200080239B029C46E0235246DB00D25837497F
:100F30000A405146CA50CA5861460A435146CA50EF
:100F400043460133DBB29846CEE6032900D057E78B
:100F500004A98C4694446146097819438A4661463F
:100F600057460F702DE7032900D006E704A98C46E9
:100F700094446146097819438A46614657460F7082
:100F8000DBE6032900D06EE604A98C469444614652
:100F9000097819438846614647460F703DE60329A4
:100FA00000D0A6E604A98C4694446146097819430A
:100FB0008A46614657460F707BE65B46032B00D09E
:100FC00045E680239B029C46E0234246DB00D25844
:100FD0000E490A404146CA50CA5861460A43414632
:100FE000CA500123984634E6C0239B029C469AE7E8
:100FF000C0239B029C4679E7C0239B029C46E3E703
:10100000C0239B029C4651E700600040FFFFFCFFAD
:10101000F8B5CE46474680B507794A4CFE00F31B2B
:101020009B00E318DB7E05009146002B00D087E093
:101030000B685A1C0DD001209840A1220300A0206B
:10104000D200C005835003220B68C133FF339B00DD
:101050001A504B685A1C06D0A0200022C133FF331F
:101060009B00C0051A5028688A69374BC250087D1A
:101070004B7D2A680343354813500A682B68944611
:1010800033484A681A50624632481A500B7D012B89
:101090002FD04A46F31B9B00E01842600A69E250D9
:1010A0004B46002B12D08E22002328685200097F65
:1010B0008350286828328350C1232868264A9B0021
:1010C000C2502B68180B40B2FFF7E6FCA0230421A6
:1010D0002A68DB00D15000230020F61BB600A419BB
:1010E0002376E3820133FF3363830CBC9046994639
:1010F000F8BD8B685A1C06D0A0200022C133FF33F4
:101100009B00C0051A50CB685A1C0ED00120984095
:10111000A1220300A020D200C00583500322CB6887
:10112000C133FF339B001A50CB688A682868944605
:10113000A122D2008350A2236246DB00C250A8E75E
:101140000820D2E750010020240500006C050000B3
:10115000140500000C05000080000200F0B54546B3
:10116000DE4657464E46E0B504793A4DE3001B1B78
:101170009B00EB189C7D002C29D199608E219A75DB
:1011800001229C820368490006795C5003689A60DA
:10119000F3009B469B1B9B00EB189A6807689446DC
:1011A0007C5064469A8AA25C904644469A8A0132F0
:1011B00092B29A82284ABC505C680022002C08D067
:1011C00010003CBC90469946A246AB46F0BD1122A9
:1011D000F6E79A7D8027904689467F0019009A8A13
:1011E000143142451ED2026802E0998AB94203D006
:1011F000494651580029F8D0998AB942EED00021C9
:101200004C4611516446998A615C8A465446998AD3
:10121000013189B299821049545019009A8A1431C7
:101220004245E0D380230A885B009A420FD08E218A
:10123000026849005358002BFCD00123D3600022E0
:101240005B469E1B0023B600AD19AB75B8E70F22B5
:10125000F6E7C046500100201C0500000279D300CB
:101260009B1A044A9B00D318987D431E9841C0B234
:101270007047C04650010020F0B5454657464E46DF
:10128000DE4690466A4AE0B59446067983B0F3009C
:101290009D1BAD0065446F68002F07D08124A4001A
:1012A000A446C22562460468AD006251604A9B1B99
:1012B00094469B006344DD7D002D21D01D7E002DD2
:1012C00000D0A4E0424619611A760179CB00984615
:1012D000574A434694465B1A9B0063445A68056824
:1012E000002A29D0C12381229B009200EA500023CA
:1012F000180003B03CBC90469946A246AB46F0BDF0
:101300004246DA754A4AD96094465D761D7601797F
:10131000CB0098465B1A9B0063449B7E002BD7D181
:10132000922204685200A35004681C3AA350036838
:10133000083AFF3A1A60CBE79224A2266400A3463B
:101340000E3C7600FF3CAA518427A2461D0002688D
:101350007F0001969A4419355C461459A146D45928
:10136000A446019C16596446002C1CD1002E43D083
:101370002F4A4346944600225B1A9B006344DA7569
:101380004B46002B41D10F33002EB1D14346591AA1
:10139000274B89005C18A37E0268002B41D00123F3
:1013A00013600023A4E74C463443A446E0D15446DE
:1013B0002678002E12D06446D451A324E4002E785F
:1013C0001259DC68A25554462A780132D2B22A70EA
:1013D0002A782678964206D90268BDE7A325D65119
:1013E000ED0052595B7E124A4346944600225B1A36
:1013F0009B006344DA75C9E74C46002CACD04346E9
:10140000591A0B4B89005C18E675032370E7002F0F
:101410000BD0C123812102689B008900D150112388
:1014200066E701235360002362E7112360E7C046AB
:101430005001002010B501790C4ACB005B1A9B00CB
:10144000D3189B7E002B10D1922104684900635071
:1014500004681C39635003680839FF391960007942
:10146000C3001B1A9B00D218917610BD50010020BA
:10147000C12330B5614A9B00D35885B09B0559D52F
:1014800092235B00D158002954D00021D1508121F2
:10149000E533FF338900D150594B997E002901D1A2
:1014A00001315160022269460A7090215348C900F7
:1014B0004258425069460392DA7D68460A72DA68F9
:1014C000196801920022DA751A765B6898478E21B6
:1014D0004A4A49005358002B0FD0494B9C8A987DAB
:1014E000844266D200205050998A9868405C998A5C
:1014F000013189B29982434BD050A2233F4A5B000D
:10150000D158002914D00021D1503D4B997E00299B
:101510004CD1DA7D002A0BD0002268460121DA7511
:101520005A7E01700272DA68196801925B68984706
:1015300005B030BDC123314A9B00D3585B07C6D5E7
:10154000842149005358002BC1D02D4BD87D002851
:101550003ED000205050A320C000597E1258D868B9
:1015600042545A7ED87D0132D2B25A765A7E824295
:10157000ADD11A7E1968002A2FD19A7E002A02D195
:1015800001201E4A5060C22281241C489200A400FF
:10159000845000226C460120DA755A7E2070227237
:1015A000DA68684601925B68984790E7012111600C
:1015B000AFE70024545000289FD06A461470107280
:1015C0009A689C75196801925B686846984794E729
:1015D0005050A321C9005258C8E7DA751A69D86873
:1015E000DA6000226D465C7E1A765A7601320190EE
:1015F0002A702C725B686846984768E700200040B4
:10160000500100201C05000070B504000D00002AE8
:1016100021D04179114B8800C250114E4B005B180C
:101620009B5D002B15D10420A9782056FFF734FAD2
:10163000A1232A882168DB00CA50627929795300E6
:101640009B18F2185170E9780020917001229A5588
:1016500070BD0820FCE70720FAE7C04670010020B3
:101660006C0100200122022103681A6042795300B4
:101670009B18014A995470476C010020F0B58025F1
:10168000D2246D028D400668A40035510668403CA6
:1016900035514779224E7C00E419341964781202DE
:1016A000120A002C33D00C0051340768FF34A40018
:1016B000E25104681B4FE759BC46BF1A624519D86E
:1016C0004279944652006244B618B278BA421CDCA1
:1016D000002B0AD000235031890089B261180B60B9
:1016E000C12302689B00D5500468D12300209B00D1
:1016F000E550F0BD0C4A9446427967449446520046
:101700006244B618B278BA42E2DD0D20F1E70C006F
:101710005134FF340668A400A2510468D8E7C046DB
:101720006C01002004050000FFFFFF00C123F0B59D
:10173000C64680249B000025984600B5204E214FC8
:1017400064024346F3581C4210D01F4AAB00944633
:1017500063441A68002A09D0D2229200B450403A59
:10176000B45000221A60E8B23B6898470135640023
:10177000032DE6D1C122124B92009A58D20704D50C
:10178000802252009958002913D1C1220C4B92009B
:101790009A5892070AD5822252009958002905D0FA
:1017A00000219950074B05201B68984704BC9046C0
:1017B000F0BD00219950034B04201B689847E4E7D3
:1017C00000B000407001002040B1004010B50E4C48
:1017D0002378002B15D16360A3602361E3600B4B7A
:1017E0001B68DB0708D58021A32201230020C9053F
:1017F000D2008B50237010BD03210020FFF74CF95D
:10180000F1E78520F7E7C0467401002000E100E021
:1018100070B51B4D0400AB78002B0ED0002802D011
:101820004368012098470020FFF71CF8EB68002070
:101830000133EB60FFF71EF870BD0020FFF712F8D0
:10184000002C0DD02A69002A08D0944208D0130039
:1018500001E09C4204D01B68002BFAD122602C616D
:10186000EB68002BE2D1074A02211360C123053A3D
:10187000FF3A9B00D1500122034B1A60D6E7C046C5
:1018800074010020040100400800004010B51A4B0C
:101890001A68002A14D0002280211A60C222012373
:1018A000164CC90592008B506370A368002B07D0BB
:1018B0001A6800205B68A2609847A368002BF7D1E4
:1018C0000F4B1A68002A15D000221A608022C2230A
:1018D00002219B00D205D1500123084CA37023693B
:1018E000002B07D01A6801205B68226198472369A2
:1018F000002BF7D110BDC04600010040740100204C
:101900000401004003210A4802680A4302600948B2
:1019100002680A4302600849084A094B9B1A03DD22
:10192000043BC858D050FBDC00F012F8FEF7ECFB8B
:101930002405004054050040A04E00000000002097
:1019400090000020FEE7FEE7FEE7FEE7FEE7FEE789
:101950002C4B1B78012B00D070472B4B1B681B07AF
:10196000FAD1F022294B1B68134001D0102B46D12D
:10197000274B1B6813421FD0F022244B1B681340D7
:10198000402B29D0F022214B1B681340A02B01D003
:10199000D02BE1D1F0231E4A12681A42DCD11D4A35
:1019A0001368012B04D01C4B13601368012BFCD16E
:1019B000C0221A4B1A60CFE7194B1A4A1A608022CC
:1019C000194B12021A600F4B1B78012BC4D10E4B1E
:1019D0001B681B07D0D0BFE70D4B1B681342D1D14A
:1019E0008022C1230121DB00D205D150054B1B7899
:1019F000012BB1D1044B1B681B07C3D0ACE7302BC4
:101A0000B6D0B9E7E00F00F0E40F00F0E80F00F007
:101A1000EC0F00F000EC06407593000014EC06405B
:101A200004050040DFFF07C0186C004010B50378C4
:101A3000012B02D0022B00D010BD4068FEF71AFC2B
:101A4000FAE7C0460122154B10B500211A60144870
:101A500001237C32FFF712FE124B13491A68013240
:101A60001A600B6801330B60032A09D100210F4A69
:101A700011709170117191711172917264311173C1
:101A8000032B09D10022094B5A70DA705A71DA71AE
:101A90005A72DA7264325A7310BDC04608B0004000
:101AA0005C4E0000DC010020E40100208C010020DD
:101AB000BFF34F8F034B044ADA60BFF34F8FC0462A
:101AC000FDE7C04600ED00E00400FA0530B58BB03C
:101AD00004A802000C4B32CB32C232CB32C20B4BC9
:101AE0000B4A0093012301930A4B6946029380231A
:101AF0005B000393FD3BFEF72DFF002801D10BB0E7
:101B000030BDFEF7B7FBFAE73C4E0000E8010020CD
:101B10002D1A0000EC010020F0B557464E46454610
:101B2000DE467F23E0B5022510272026444C454998
:101B30002078A94603400B706278C00953002B40FF
:101B40000343023550002840A846034304355000A3
:101B500028400343500038400343500030400343C3
:101B600020365000304003438B70A37890119A4682
:101B70000123184083465046AC4645468000284025
:101B80005D46284355466646AD00354028435546D8
:101B9000AD003D40284355461836AD00354028433A
:101BA0004D461206D2172A400243504600111840F3
:101BB00083465D460A71E2784E461001384028435C
:101BC00055462D0935402843554646462D09354092
:101BD00028431C3615013540284320361501354071
:101BE0002843554666462D06ED1735402843887133
:101BF0002079D5102B403836850135402B43D50848
:101C0000AA464D46564635402B43454635402B4364
:101C1000654635402B43202640251206D2173A4010
:101C200013430B7203011E401D4035438D726379CF
:101C30000B733CBC90469946A246AB46F0BDC046ED
:101C40009C0100208C010020F0B557464E464546C9
:101C5000DE46E0B5634E4021337801205AB2924609
:101C60009A0189460A40991101400A4308275146C2
:101C700039401F300A431901014080460A43103899
:101C8000990001400A4304219C080C40224302248D
:101C9000844640461B09544D234013436B707278B1
:101CA00067465301184083460120531103405846AC
:101CB0000343D00038400343083F500038400343FB
:101CC000500808400343D0082040034350464F4685
:101CD000C01138400343EB70B37852B258B20700DA
:101CE00048461040834638000840824683B000973B
:101CF0005846574638431F018346380067463840E8
:101D000082465846574638439F0083463800082786
:101D1000384082465846574638439F088346380025
:101D2000204082465846574638434746D2113A40EB
:101D3000474602436A71F27850B2019000983840E9
:101D4000834650B220408246584657463843970053
:101D50003940971001433800012738409F00014364
:101D600038004F463840674601439B0800983B4087
:101D70001943C311082003404846D7003840814624
:101D800040465700384080464846474638438146DB
:101D900001201943E971337959B208408046484619
:101DA000474638438146604657083840844648468F
:101DB000674638430827D2081740074301989B100D
:101DC000C2110120224018400C40174304436F7297
:101DD000EC7273796B7303B03CBC90469946A24693
:101DE000AB46F0BDBC0100208C01002010B50120E5
:101DF00000F000FC002815D00F4800F057FA0F48FB
:101E000000F06CFA55230E4C0122210000202370B3
:101E100000F0EBF801222100012000F0E6F800F0CC
:101E2000C1F810BD00F04AFC83231B029C466044AD
:101E3000FEF720FAE0E7C0460403020108070605A2
:101E400088010020F0B5DE4657464E464546E0B5CF
:101E500083B0FFF7CBFFFFF739FEFFF7B7FC002099
:101E6000FFF7D6FC294B2A4C9A69694600926A46CC
:101E70009B8B2000938020231380264AFFF7C4FB0E
:101E800001237D2200212000FFF7F8FB2000FFF74F
:101E9000E9FB214B214D9846214B224F9B46224B7B
:101EA000224E9A46002399460F3543461B78002B55
:101EB0001AD13B78002B21D13000FEF7A9FD002874
:101EC000F3D13378732BF0D1144BE0221C009A73BA
:101ED0002078FEF7BDFD0028FAD10134AC42F7D1DD
:101EE00043461B78002BE4D04A4643461A705B46B3
:101EF0001A60FFF711FE3B78002BDDD04B464A46B7
:101F00003B7053461A60FFF79FFED5E73C4E00003A
:101F10005C4E0000451A0000E00100208C0100200A
:101F2000DC010020E1010020E40100202C0300205E
:101F300082B002B07047C04682B002B07047C0465F
:101F40007047C046202310B584B0041E019103934E
:101F50000DD0012814D0200000F01CF955230C49A5
:101F6000012220000B7000F040F804B010BD0122E7
:101F7000084B09491A70002003AA00F077F8EAE735
:101F8000064B03AA18700649012000F06FF8E2E73B
:101F900088010020E00100209C010020E1010020D8
:101FA000BC01002008B5064B1868002803D10222A6
:101FB000044B1A7002E001F0CDF8012008BDC046C4
:101FC000EC0200202D030020014B1B68587E704757
:101FD000EC02002008B500F009FE002802D100F054
:101FE000F0FD01E0FFF7ACFF08BDF8B5171C051CBC
:101FF0000C1C0422072805D8032200292DD0202FED
:1020000004D90622174B00241A7028E000F044FE81
:1020100009220228F6D8281C00F042FE0A220228D3
:10202000F0D800F041FE08220128EBD900F0ECFDC9
:102030000122061C4378211C1343437007703A1C8D
:10204000023002F0D3FEE8B2311C00F0F1FD041EB4
:1020500005D1054802F0B6FA0F22024B1A70201C77
:10206000F8BDC0462D030020DD00050070B5041C3E
:102070000D1C161C00F014FE002803D10B22154B7A
:102080001A7025E00322002D07D0201C00F0F6FD79
:10209000326803789A4204D206220E4B00201A704E
:1020A00016E0201C00F0E0FD041E0AD00278811C1E
:1020B0003260281C02F09AFE201C00F0AFFD0120C7
:1020C00006E0054802F07EFA0F22201C014B1A7030
:1020D00070BDC0462D0300200501050008B5072886
:1020E00004D90422034B00201A7001E000F0D4FD53
:1020F00008BDC0462D03002008B5072805D90422D5
:102100000120034B40421A7001E000F0C9FD08BDF8
:102110002D03002008B500F0C7FD0623181A08BDDE
:1021200010B5072803D904220B4B1A7004E0041CD5
:10213000FFF7D4FF022801DD00200CE0201CFFF790
:10214000DBFF0228F8DCFFF7E5FF0623181A053B42
:1021500083428041404210BD2D03002008B50B4B47
:102160001B685B7E002B04D00C22094B1A700023E5
:1021700009E0072803D90421054A117003E0C0B221
:1021800000F096FD0123181C08BDC046EC0200209B
:102190002D03002008B5072804D90422044B002091
:1021A0001A7003E0C0B200F09DFD012008BDC046DA
:1021B0002D03002010B501280AD0002803D00228E2
:1021C00008D1002000E0012001F04EF8012005E0D8
:1021D0000220F9E705220020014B1A7010BDC0460D
:1021E0002D03002008B500F009FD0023012809D0C7
:1021F0000233002806D0013B022803D0024802F037
:10220000E1F90223181C08BD7001050038B5124B16
:102210001B685B7E002B04D00222104B1A70002337
:1022200017E04A1E0F2A01D9072102E0002803D136
:1022300003210A4A11700CE00C1C094D011C10C549
:10224000221C281C02F0D2FD281C211C00F0BAFD23
:102250000123181C38BDC046EC0200202D030020CD
:102260006C0000200C4B10B51A680C68944201D326
:10227000102C04D90722094B00201A700AE000280C
:1022800003D10322054B1A7004E00A60191D02F005
:10229000ADFD012010BDC0466C0000202D030020C4
:1022A000014B18687047C0466C00002008B5074B0A
:1022B0001B685B7E002B04D00222054B00201A70A5
:1022C00002E000F019FD012008BDC046EC0200202C
:1022D0002D03002008B500F01FFD08BD08B5074B11
:1022E0001B685B7E002B04D00222054B00201A7075
:1022F00002E000F017FD012008BDC046EC020020FE
:102300002D03002008B500F01BFD08BD08B50A4BE1
:102310001B685B7E002B04D00222084B1A7000233E
:1023200008E0072803D90421044A117002E000F0F4
:102330000DFD0123181C08BDEC0200202D03002018
:1023400010B5072804D90422064B00201A7007E0B4
:1023500003220029F8D00C1C00F024FD207001207D
:1023600010BDC0462D03002008B5074B1B685B7EDF
:10237000002B04D00222054B00201A7002E000F06E
:1023800061FD012008BDC046EC0200202D030020A5
:1023900008B500F05DFD08BD08B50E4A031C1268C3
:1023A000507E002804D002220B4B00201A700FE050
:1023B000012B0AD0002B05D0022B05D00E22064B94
:1023C0001A7005E0022000E0012000F0D5FD012098
:1023D00008BDC046EC0200202D03002008B501F026
:1023E00017F8031C0120002B03D0013B5842584131
:1023F000400008BD08B5144B1B685B7E002B04D061
:102400000222124B1A7000231BE006280FD802F09C
:1024100057FC12041406080A0C0000200EE0F820F5
:102420000CE0F4200AE0F02008E0EC2006E00E21A9
:10243000064A117005E0042000E0FC2000F042FD97
:102440000123181C08BDC046EC0200202D0300200B
:1024500008B500F045FD0523F02811D006D800236B
:1024600004280DD00633EC280AD008E00323F8280E
:1024700006D0013BFC2803D00233F42800D001230E
:10248000181C08BD08B5074B1B685B7E002B04D0E9
:102490000222054B00201A7002E000F0DFFC012050
:1024A00008BDC046EC0200202D03002008B500F056
:1024B000DBFC08BD08B5074B1B685B7E002B04D016
:1024C0000222054B00201A7002E000F095FC01206A
:1024D00008BDC046EC0200202D03002008B500F026
:1024E00091FC08BD08B5074B1B685B7E002B04D030
:1024F0000222054B00201A7002E000F0C9FC012006
:1025000008BDC046EC0200202D03002008B500F0F5
:10251000C7FC08BD08B5074B1B685B7E002B04D0C9
:102520000222054B00201A7002E000F0A3FC0120FB
:1025300008BDC046EC0200202D03002008B500F0C5
:10254000A1FC08BD08B5074B1B685B7E002B04D0BF
:102550000222054B00201A7002E000F0A7FC0120C7
:1025600008BDC046EC0200202D03002008B500F095
:10257000A3FC08BD08B50B4B1B685B7E002B04D089
:102580000222094B1A7000230AE0002805D0012816
:1025900003D00E21044A117002E000F051FF012324
:1025A000181C08BDEC0200202D03002008B500F027
:1025B0004DFF01384342584108BD08B50B4B1B681D
:1025C0005B7E002B04D00222094B1A7000230AE024
:1025D000002805D0012803D00E21054A117002E021
:1025E00000F046FF0123181C08BDC046EC02002085
:1025F0002D030020F8B51D4C0026071C201C1C4D87
:10260000311C0C2208302E706660FDF7F3FD19486E
:1026100000F042FE2060B04203D1012300202B7065
:1026200023E0154B181D1968FFF7F0FD041C381C3A
:10263000FFF7C0FD2040C4B2042000F0E9FB301CCD
:10264000FFF798FF04400120FFF7D4FE044002206A
:10265000FFF7A2FE0440301CFFF7AFFF044001204B
:1026600000F0DCFE002CD8D00120F8BDEC020020E8
:102670002D030020EF2600006C00002008B500F0BC
:10268000FDFE01384342584108BD0022014BDA608B
:102690007047C046EC020020014BD8687047C04626
:1026A000EC0200200022044B1A72904202D0013248
:1026B00018611A727047C046EC020020014B18786E
:1026C0007047C0462D0300200022014B1A7070474E
:1026D0002D030020014B58687047C046EC020020D3
:1026E0000022014B5A607047EC0200207047F0B5A1
:1026F0008BB00D1C0491111C090C0191002108AC38
:10270000030C060A171C0891039005926160020EE3
:102710000791011C6846C172C07ADBB2BFB2F6B243
:102720006946052853D802F0CBFA031328423F3CF0
:1027300022705BB28A885B42281CA2806780E3809B
:1027400000F06CFA301C08996268FFF7F1FB41E079
:10275000214B1B685B7E002B02D1204801F032FF29
:10276000281C00F05BFA6B469B886780A380301CB6
:1027700008996268FFF7E0FB2CE05BB207A95B42B7
:102780000A704B80002A07D0002D02D1144801F0B6
:1027900019FF281C00F042FA301C0799FFF7D2FB02
:1027A00018E0FFF7CDFB15E0FFF7A0FF12E00A4BA2
:1027B000DA680132DA601A7A002A0BD01A69002A24
:1027C00002D1FFF707FC05E0013A1A6102E0054873
:1027D00001F0F8FE0BB0F0BDEC020020B5030500DF
:1027E000C3030500E30305000F22024B1A70024BDE
:1027F000586070472D030020EC020020044B01209C
:102800001A78022A02D05868431E98417047C04681
:102810003003002008B5FFF7F1FF044B044A0028FD
:1028200001D0D26800E092681A6008BD040300205D
:1028300068030020044A08B55368002B01D0013B0F
:102840005360FFF7E7FF08BD3003002000231A1C88
:1028500010B5041C01211C4121400724E41AA140A9
:1028600001330A43D2B2082BF3D1101C10BD70B54E
:102870000024061C251C301CE040C0B2FFF7E6FF18
:1028800018231B1B984008340543202CF3D1281C27
:1028900070BD38B50D1C01F065FE084C63699D42A2
:1028A00002D8074801F08EFE63690648E91A012242
:1028B00002F04AF90023636138BDC04630030020AE
:1028C0004D060900A545000007B5A123C0210F4A08
:1028D0008900DB00D15001F085FD002815D00228C9
:1028E0000AD9032811D1002300930193181C191C45
:1028F0001A1C01F0D3FC03E00020011C01F082FC53
:10290000042802D0024801F05DFE07BD00F001403E
:10291000E801090008B501F017FFA1230E4ADB000A
:10292000D05001F05FFD012807D001F05BFD0228C7
:1029300002D00A4801F046FE002001F099FA02F0A8
:1029400087F9AA22064BD2009850064AD2685168ED
:10295000054A995008BDC046001000401E060900F7
:1029600000F00140040300205405000008B502F007
:10297000DFF801280FD002F0BFF8074B1B7F002BB8
:1029800003D180230122DB055A60002001F0EAFD1B
:102990000022024B5A6008BD68030020300300206B
:1029A00008B502F0C5F8012822D101F0F5FD002894
:1029B00002D0104801F006FE64210F48002202F008
:1029C000C3F80E4B197F002902D002F089F80FE0FE
:1029D00001220B4B1A600B4B59608021C9050A601C
:1029E000C046C046C046C0465A68002AFCD0ECE744
:1029F00008BDC0462C060900A5450000680300205C
:102A000014050040FC00004010B501F028FD00282E
:102A10001BD000220D4B0E4C9A81DA8101F07AFB1B
:102A20000C4BE05001F076FB01238340181CA623D9
:102A3000DB00E05001F074FB074C206001F076FBF6
:102A4000064B6060E360FFF765FF10BD30030020B8
:102A5000001000402C0500004C030020A52A0000B7
:102A600030B50E4D85B06B7E002B15D00024FFF7DE
:102A70007DFF01F0B5F8052301A80370AC706C76FA
:102A800044600481448144708470C47001F082FA0F
:102A9000034B1C70FFF718FF05B030BD300300205A
:102AA000640300208022F0B53C4BD2009A5887B0D6
:102AB000012A04D000263A4A9B58B34206D1002688
:102AC0002022384B5B681B789A427641364C63690A
:102AD000002B05D102F032F8002801D101236361F7
:102AE00001F080FC012802D0304801F06BFD304D30
:102AF000EB681B7D002B02D02E4801F063FD01F036
:102B00006FF8002E47D00120011C01F07BFB042848
:102B100036D802F0D5F803321832320001F000FB4B
:102B2000E389A689071C019301F0F4FAEB686D466E
:102B30000022997DAD8803AB1A7004971E815D81D8
:102B40005870997014E001F0EBFAE389A689071C2C
:102B5000019301F0DFFA0021EB689A7D03AB197055
:102B600069469A700122898804971E81598158709C
:102B7000DA70181C01F00EFA02E00F4801F022FD95
:102B800001F008FE0D4B20615B696360FFF742FEB8
:102B9000002001F005FE07B0F0BDC0460010004067
:102BA000340500004C03002030030020A806090073
:102BB00004030020A9060900C806090068030020D4
:102BC000704708B5012282F31088074B597E00290F
:102BD00005D09978002902D19A70FFF7E1FE002311
:102BE00083F3108808BDC046300300200120024B4B
:102BF0005B7E58407047C04630030020014B187878
:102C00007047C0463003002008B5012383F31088C5
:102C100001F086FC002383F3108808BD08B501236A
:102C200083F3108801F080FC002383F3108808BD33
:102C300010B5012383F3108801F0DAFB041E0CD0D9
:102C4000084B9A78002A04D15B7E002B01D0FFF755
:102C5000A7FE002383F3108801E080F31088201C76
:102C600010BDC0463003002008B5012383F310884F
:102C700001F0E6FB002383F3108808BD08B501F0DE
:102C8000DAFB08BD08B5012383F3108801F0C3FB0C
:102C9000002383F3108808BD08B501F0C8FB08BD08
:102CA00008B501F0D7FB08BD08B501F041FC08BD2F
:102CB00010B50123041C83F31088084B1A78002AEE
:102CC00005D05B7E002B02D0054801F07BFC201C68
:102CD00001F0A5FB002383F3108810BD3003002012
:102CE000FB02090008B5012383F3108801F0ADFB56
:102CF000002383F3108808BD08B5044B1862FFF762
:102D0000B6FD034B034AD05008BDC04668030020FF
:102D10001C05000000100040014B186A7047C046B7
:102D20006803002008B5044B5862FFF7A0FDA423F8
:102D3000024ADB00D05008BD6803002000100040AC
:102D4000014B586A7047C0466803002070B50728D9
:102D50001CD8104B03251B1828331970FF2305407E
:102D6000ED00AB400C4CDB43032801D80B4E01E0D7
:102D7000A526F600A259081C1340A351FFF766FDD3
:102D8000A840051CA3591D43A55102E0044801F0C9
:102D900019FC70BD680300200010004024050000ED
:102DA0003903090010B5041E072C02D9034801F0AD
:102DB00009FC034B1C192834207810BD410309007D
:102DC0006803002038B5051C0C1E02D1074801F02D
:102DD000F9FB002D02D1064801F0F4FB054B002061
:102DE0009D605C6001F0C4FC38BDC046480309002A
:102DF0004903090004030020014B58617047C04695
:102E000068030020014B58697047C04668030020E2
:102E1000A322064B064910B5D20058778C58054BB3
:102E2000000423401843885010BDC04668030020AA
:102E300000100040FFFFF8FF014B587F7047C0466D
:102E400068030020014B18617047C04668030020EA
:102E5000014B18697047C04668030020014B586059
:102E60007047C04668030020014B58687047C04651
:102E70006803002008B5024BD860FFF7CBFC08BD03
:102E800068030020014BD8687047C04668030020E3
:102E900008B5024B9860FFF7BDFC08BD6803002031
:102EA000014B98687047C04668030020014B588367
:102EB0007047C04668030020014B588B7047C046DE
:102EC00068030020034B044A30331870034BD05082
:102ED0007047C04668030020001000400C05000049
:102EE000014B3033187870476803002010B5FF2479
:102EF000164B174A31331870164B9958A143995005
:102F000003281FD8995801F0DBFE1B020B13012088
:102F100001439950FF21104A99500821FF310EE0DA
:102F20000220014399500D490B4A99500C4906E083
:102F30000320014399500B49074A99500021043A54
:102F4000995002E0084801F03DFB10BD68030020E5
:102F500034050000001000403C050000FFFF0000A9
:102F600021100100FFFFFF00C2030900014B3133B4
:102F700018787047680300201F4B323318700128FF
:102F800021D0002810D0022834D1A2231B4ADB0014
:102F9000D0501B4A1B4B1A601B4A1C4B1A601C4A20
:102FA0001C4B1A601C4A20E0A223144ADB00D050BC
:102FB000134A144B1A60144A144B1A60174A154BE3
:102FC0001A60174A11E0A2230C4ADB00D0500C4AC9
:102FD0000C4B1A600C4A0D4B1A60124A0D4B1A60CA
:102FE000114A124B1A60124A02E0104B1A60114A41
:102FF000114B1A607047C046680300200010004063
:1030000000500078241700404E000054281700405C
:1030100008800C602C1700408864720003800C60EC
:103020002264720002800C60116466003017004058
:10303000DEC08F823E420F8234170040F8B5002672
:10304000C0270122324D334BBF00EE504C3BEF50B6
:10305000314C324BE650E250314B324AE1580A4093
:103060000F21E250E2588A4309390A43E250E158FD
:103070002D4A0A40C02189020A43E2500433E15834
:103080002A4A0A408021E250E25849040A43FF21BB
:10309000E250E2588A43DF390A43E250E158244AB9
:1030A0000A40E250C0230221224A5B00D15001F0C5
:1030B000CBFD214B214AE850043BEA50204B2148EC
:1030C000EF5000F0C5FD204B204DD860687FFFF722
:1030D0009FFE286AFFF710FE686AFFF723FE331C85
:1030E0002833301CE95C0136FFF730FE082EF6D19C
:1030F0002B1C30331A78164BE2502B1C31331878C6
:103100003235FFF7F3FE2878FFF736FFF8BDC046EB
:1031100000F001405405000000100040FC0F0000CA
:1031200014050000FFFEFFFFFFFFF0FFFFFFFFFDA4
:10313000FF00FFFF00E100E05C050000041100401B
:10314000040500004C030020040300206803002055
:103150000C05000038B5124B5A7E1D1C002A1DD1EB
:10316000FFF76CFF0F4B9A681C1C002A02D10E4817
:1031700001F028FA6368002B02D10C4801F022FA12
:1031800001F0FEF9002802D0094801F01BFA0020E6
:1031900001F0E8F901236B76FFF702FC38BDC04669
:1031A00030030020040300205E0209005F020900D2
:1031B0006602090070B5274D86B02B786A7800202A
:1031C0009A4244D0834201D1FFF738FF6B78002B3D
:1031D00001D1FFF779FB00241F4B204AD45000F0A7
:1031E000FFFC1F4E2B78346074603461B460F4606F
:1031F000012B08D101F0F6F8A04217D0201C211CA9
:1032000001F000F812E0022B10D100F0E9FC154BA0
:1032100034611C7001F0E6F8032807D10094019492
:10322000201C211C221C231C01F038F8FFF7F2FAA5
:103230006B7803A82B700423037000234360038181
:10324000438143708370C37000F0A4FE012006B078
:1032500070BDC046300300205405000000F001405E
:103260004C0300206403002008B5012383F3108879
:10327000084B1A78824208D058705B7E002B02D12E
:10328000FFF798FF01E0FFF78BFB002383F3108823
:1032900008BDC04630030020F7B50127019087F331
:1032A000108803230026514C514D2370514BAE60C2
:1032B0001E605E609E60DE601E611E756E60A670A0
:1032C0006660A660A681E6812661666126766676DE
:1032D000677001F0C9FB019800F042FE00F0DEFECD
:1032E000301C01F037F9281C01F070F9C222FF21CF
:1032F000414B92009B5840488B433F498B50C02123
:103300003D4B89005A583D4B1A404250C52292000D
:1033100081580B408021C9010B438350381CFFF7B3
:10332000A3FFFF23364D03202B61364B291C2B6254
:10333000354B29316B622B1C28331F7002230B7015
:10334000291C2A310870291C04222B310A706A7743
:103350002A1C05212C3211702A1CC9192D3211701A
:103360002A1CC9192E3211702A1CC9192F3211704A
:103370002A1C303216702A1C313213702A1C323249
:1033800017701E226A61962292006A60EB60FFF756
:1033900041FA0F23AB60FFF73DFA301C6E832E77A6
:1033A0002F766F7601F0C8F869232B606378124E90
:1033B000BB4202D0154801F005F900252770A57021
:1033C0006560A560A581E5812561656125766576E5
:1033D000FFF734FEC02380225B005200F2508022AF
:1033E0009203F25085F31088201CFEBD30030020AC
:1033F000040300204C03002000E100E0FF00FFFF79
:103400006803002004070A0D05080B0E3C020900A2
:10341000014B32331878704768030020054B10B514
:10342000DB68041C002B02D1034801F0CBF8034BEE
:103430001C7510BD04030020F60309004C03002096
:10344000014B18767047C04668030020014B187E78
:103450007047C04668030020014B58767047C0464D
:1034600068030020014B587E7047C0466803002067
:10347000014B18777047C04668030020014B187F46
:103480007047C0466803002008B501F055F808BD34
:1034900008B50B4BDB685B7D002B06D0012000F0EC
:1034A0003FFB084A9389013393810020064B074A6A
:1034B000D050074A0ACA591AFFF7EBF908BDC046AF
:1034C00004030020300300205405000000F00140F8
:1034D00068030020084B10B51A781C1C012A02D082
:1034E000064801F06FF8022300222370044B1A6192
:1034F000044ADA6010BDC04664030020920509004A
:103500004C030020F937000010B500F069FB0023E0
:103510000122184C2361184B1A70184B184A19696C
:10352000A623DB00D15000F05DFF00280AD100F097
:1035300063FD01280DD900F0FFFD6060002808D16F
:10354000104804E000F04EFF032802D00E4801F0BE
:1035500039F8022000F08CFC002000F0E1FA00F0C5
:1035600041FF032802D0094801F02CF8FFF7B2FF11
:1035700010BDC0464C0300206403002068030020F7
:10358000001000407B05090080050900880509003E
:1035900070B5A1240B4DE4002E5901F0D5F88642F8
:1035A0000AD001F0D1F82851FFF7AEFF064B0020FA
:1035B0005968FFF76EF970BD044B1B78002BF3D0F0
:1035C000F4E7C046001000406803002064030020B8
:1035D000F0B5804C89B06369002B00D0D1E001F0D8
:1035E000ADFA002800D0CCE02378012B02D100F006
:1035F000EDFA12E0022B08D000F0F8FFFFF71AF9FD
:10360000A678002E00D0A5E00BE00122724B1B78BB
:10361000033BDBB29A424041C0B2002800D0C2E076
:10362000EAE7FFF7C7FD6D4D071E00D08DE0267855
:10363000012E06D0002E63D0022E66D1FFF7A8FF20
:1036400066E000F0CDFA00F0CDFE00281DD100F0BC
:10365000D3FC012851D9FFF7D1F8061E0CD001F098
:10366000B1F8002849D12B7E002B0BD101F092F844
:103670002369984241D105E0206901F079F8301CB6
:1036800001F08EF8FFF7C0F937E06B8B002B20D0EC
:10369000A2899A421DD3311C381C00F0B3FD00F002
:1036A0003FFD0190A3890293E389039300F032FD6B
:1036B000019A05AB06926A46128958701A816A46C9
:1036C0009289181C1E705A819F70DF7000F062FC96
:1036D00013E001F033FA002802D0414800F072FFF5
:1036E000A123404ADB00D65801F02EF8864202D0D2
:1036F000E3890133E381FFF70DF90120296801E037
:10370000301C6968FFF7C5F802E0374800F05AFF3F
:103710006B7E012B20D1FFF771F800281CD1237894
:10372000012B07D0002B0DD0022B15D02F4800F015
:1037300049FF11E000F056FE00280DD100F0E4FC36
:10374000002809D1FFF712F906E0301C6968FFF77D
:10375000A0F801E0FFF784F900F04EFC01280CD935
:10376000032305A803700023436003814381437052
:103770008370C37000F00EFC2AE01D4800F022FFA9
:1037800026E0FFF757F8A578002D1DD12378022BEE
:1037900012D1114B1B78033B012B04D900F026FFFB
:1037A000FFF7F6FE14E00D4B124859680122490854
:1037B000616101F0C9F90BE000F018FF074B281C0C
:1037C0005968FFF766F803E000F010FFFFF748F9CB
:1037D00009B0F0BD3003002064030020680300201E
:1037E0000A0509000010004058040900720409008D
:1037F0008C040900A5450000802370B5454ADB0014
:10380000D35886B0444C012B04D0444BD1580023EC
:10381000994205D1636820201978002388425B41D2
:1038200003213F4D2970002121608B4254D0812318
:103830000120DB00D658D1583A4BD1503A4B311CBD
:10384000D25802AB00930194031C00F027FD03281B
:1038500040D801F035FA1D021F4D029B002B02D00B
:10386000324800F0AFFE301C00F0F4FD002802D119
:103870002F4800F0A7FE2F4B03A8DB689A7D022398
:1038800003700023467043600381438182701DE012
:1038900029482BE0029B002B02D1284800F092FE21
:1038A000301C00F0D7FD002802D1254800F08AFE28
:1038B000204B03A8DB689A7D02230370029B4670AD
:1038C000436000238270038143810133C37000F0A1
:1038D00061FB0DE01B4809E000930193181C191CC3
:1038E0001A1C00F0DBFC042802D0174800F06AFE26
:1038F0002668002E06D100F073F966752661FFF781
:1039000003FE05E001236375104B236104232B7034
:1039100006B070BD001000404C03002034050000CC
:10392000640300202C0500000C040000B805090009
:10393000B905090004030020BD050900C005090000
:10394000C1050900C8050900CF050900513900006B
:10395000052208B5024B1A70FFF7D6FD08BDC04618
:10396000640300200138C046C046C046C046C04679
:10397000C046C046C046C046C046C046C046F1D15B
:1039800070478023002170B5C224154A9B00D15096
:10399000144BA4001E78144D032E06D10939115181
:1039A000C1210824890054500BE0012676421651AB
:1039B000C0220E4C52000336A6507E3AFF3A2961CF
:1039C0005A7000226A606A61AA605A601A75904251
:1039D00005D0074B1B681B69934200D0984770BD08
:1039E000001000409C030020FC10004000E100E0BB
:1039F00014030020F8B53D4B1A69012A54D1033253
:103A00001A709A69032101329A6180220220384D8E
:103A10009200A9503749803A88500021364A374EE3
:103A20001161516051619160C12106308900685077
:103A30003168141C097D002916D0A922D200AA5889
:103A40009A75A0222E4BD2009A581F1C530502D4FF
:103A50002C4800F0B7FD002323620133AB618022C4
:103A6000A123D200DB00FA506368002B02D0264865
:103A700000F0A8FD2369002B02D0244800F0A2FD2D
:103A8000234B5B689B0702D5224800F09BFD3368FF
:103A9000DB68002B00D0984733685A7D002A23D07A
:103AA0001A681D4BEA501FE0022A1AD1002212495F
:103AB00001240A614A614A608A6080210C488900B9
:103AC00042500931FF3164421A70445003215A6058
:103AD00059701A75094B1B681B69934204D09847AB
:103AE00002E00E4800F06EFDF8BDC0469C030020C9
:103AF0000010004000E100E0FC1000401403002032
:103B000000F00140AD020A00B6020A00B7020A0046
:103B1000FCE100E0B8020A0004050000E7020A0028
:103B200070B51F4C061C637D6578002B02D11D48C3
:103B300000F048FD237D002B02D01B4800F042FD21
:103B40000123002223756275022D0ED8964203D1FF
:103B5000164A29018A5813606B1E012B08D8134A94
:103B60002B01D3189B7A237002E0114800F02AFD44
:103B7000104B1B681B7D002B11D0022D0FD10E4B5B
:103B80000E4A1C1CD258530502D40D4800F01AFDF1
:103B90000C4B1B59002B02D10B4800F013FD70BDDC
:103BA0009C03002021010A0022010A00644E00004B
:103BB0003A010A00140300200405000000F001404F
:103BC00040010A000010004041010A00034B9868C0
:103BD000013843425841C0B27047C046FC10004013
:103BE00002200121C222F8B5144B4942D867144B78
:103BF00092009950134D893AFF3A8021A850002233
:103C0000114F89005A50114C7A6101321A619A6140
:103C10002378934201D1043003E0023B012B00D909
:103C2000101C0026FFF79EFE7E61301C2670FFF7F9
:103C3000A8FE022366752B60F8BDC04604E100E0D3
:103C40000010004000E100E0FC1000409C03002058
:103C500038B502250C4B0D4C1860231DDD670C494F
:103C60000C4B0D4A99500D49043A9950FFF7B8FF93
:103C7000002303220A480370427043600361037506
:103C800043758375256038BD1403002000E100E012
:103C90001410004000F001406405000004110040D1
:103CA0009C03002070B55C4C236966780133236166
:103CB000637D002B02D0594800F084FC2378032B4D
:103CC00048D1574D2B69002B44D0012E35D12369A3
:103CD000032B02D0534800F075FCA3698020013308
:103CE000A3610221002301264F4A80002170135056
:103CF00009307642FF30165089384C4EFF3831502B
:103D000001312B616B606B61AB606170484963602E
:103D100009682375087D98420DD0A920C00010586D
:103D2000A0753F480362013393618020A123414A7B
:103D3000C000DB00D050CB6865E0022E08D12369BB
:103D4000012B02D03C4800F03DFCFFF753FE61E040
:103D50003A485DE0032E5AD0012E3AD12369012B57
:103D600017D100212E4A304B51609160C222013997
:103D700092009950043A9E502D4A1268117D304AA3
:103D8000002903D080202B49C0008850E168995059
:103D900040E0022B3ED10023214902200B614B6100
:103DA0004B608021204A8900535009314042FF3145
:103DB00050500A30043950500322636023751C4B65
:103DC00022701A681C1C1269002A00D090472368D0
:103DD00018E0022EB9D0002563781A4A1B01D118C9
:103DE000097BA94204D00E490D69691E8D41EDB2CF
:103DF000D3189B7A01202370FFF7C3FD002D09D053
:103E00000B4B1B689B68002B04D0984702E00E48C0
:103E100000F0D8FB70BDC0469C03002090010A0052
:103E2000FC1000409F010A000010004000E100E08B
:103E30001403002000F00140A4010A00A9010A00B7
:103E400004050000644E0000D6010A0008B50228EF
:103E500005D8054B187843425841C0B203E00348E7
:103E600000F0B0FB002008BD9C030020F9020A000E
:103E7000F0B52F4C85B0237D061C002B02D02D48B9
:103E800000F0A0FB301CFFF7E1FF002802D12A4818
:103E900000F098FB0121C22200230220274D494255
:103EA00092006375A9502649893AFF3A88502548FF
:103EB000370102686670116852682361A361224B62
:103EC0000192E260FA58A160626003900293022EB0
:103ED0001CD88020DB191A7A80002A50D87A1B4B14
:103EE000002805D1E950EB58002B09D1184805E00E
:103EF000019AEA50EB58002B02D1164800F062FB01
:103F0000029BDF19C1237A7A9B00EA50039B1B684E
:103F10001B7D002B08D0022E06D100238021A37523
:103F20000D4A0A4BC900D1500123637505B0F0BD9D
:103F30009C030020DB000A00DD000A0000100040A6
:103F400000E100E014030020644E000004050000BE
:103F500000010A0005010A0000F001407047C04658
:103F600010B5041E02D1084800F02CFB0022074BBC
:103F70001C60191DDA670833CA67DA678022044BB0
:103F800092031A6010BDC04629000B00C003002038
:103F900000E100E038B5144C051C2368002B02D169
:103FA000124800F00FFB231C0833DB6F092B02D9EA
:103FB0000F4800F007FB0C23E26F5343E318043370
:103FC00007CD07C3221C0832D36F0133D367E36FD9
:103FD0000133E367E36F092B01D90023E3678022F4
:103FE000044B92035A6038BDC003002034000B001C
:103FF00035000B00FCE100E0034B0833D86F0A23C7
:10400000181AC0B27047C046C0030020F0B585B092
:10401000012383F31088144B1D1C0835EA6F9C465E
:104020001E1C002A1BD00C22191DCB6F01AC534360
:10403000221CF3180433C1CBC1C2EB6F013BEB6709
:10404000CB6F0133CB67CA6F0023092A00D9CB6736
:1040500083F31088634607CC1B689847D8E782F340
:10406000108805B0F0BDC046C003002038B5094C2B
:10407000051CE36F002B02D1074800F0A3FA291CAE
:10408000E06F083100F03EFC002801D00023E36718
:1040900038BDC046480400206F020C0038B500F05F
:1040A000BDFB00211248134A00238C18251C8834BC
:1040B0008035036003622B7023700F4C04300C19A1
:1040C000013123700829EED1111C90310B70111CA5
:1040D00091310B70111C5831137053609360D36091
:1040E00013615361D3670B7092320133137038BD83
:1040F0006004002048040020DC040020014B185C10
:104100007047C046DC040020014B9033187870479C
:1041100048040020014B58687047C04648040020FE
:10412000014B98687047C04648040020014BD8688E
:104130007047C0464804002010B5104C2378002B6F
:1041400002D00F4800F03EFAE36F002B02D100F0DE
:104150008DFBE067E06F00280FD0FF23062203707D
:1041600043781343021C43702232831CFF211970D1
:1041700001339342FAD10323237010BD4804002079
:104180003B010C0038B5124C2378002B1ED1231CA8
:1041900090331B78002B19D10825606900F02EFCA4
:1041A000002805D0231C012290331A706369236113
:1041B00063690133082B00D100236361231C903312
:1041C0001B78002B02D1013D002DE6D138BDC04641
:1041D0004804002038B5094C051C231C90331B787B
:1041E000002B04D02369834201D1FFF7CBFF0023CA
:1041F0006419034A80345355237038BD48040020A5
:10420000DC040020F8B51F4C071C23780E1C013B72
:10421000012B02D91C4800F0D5F90425002F19D034
:104220002378012B02D0194800F0CCF9E368002B69
:1042300002D1174800F0C6F90025E3681B78AB42AD
:1042400008D06068FFF712FF0235002802D111483C
:1042500000F0B8F9002E0ED06768381C00F088FB1B
:10426000061E02D0381CFFF7B5FFA3689E4202D09D
:10427000094800F0A7F900232370FFF783FF281CEB
:10428000F8BDC04648040020FC000C0002010C00F0
:1042900003010C000E010C001E010C00F0B54A4C8D
:1042A00085B00393E36F071C0E1C0192002B02D113
:1042B000464800F087F92378032B02D0444800F0E9
:1042C00081F90125E36F5B782B4202D19234227889
:1042D00055400424002F4CD0019A5B0717029B0F16
:1042E0001B063F0A1F43331C374A0E339B00D2582C
:1042F0000023341C0A9908340B600B990B60974219
:1043000004D101221540019502930BE0301CFFF708
:10431000ADFE0290002D00D0051C01221540019534
:10432000002801D103240CE0A31D27499B005F5006
:10433000039B141C002B04D0264D141CAB5D002BDA
:104340001ED1019B002B0ED0301C00F03BFB0B9BC1
:104350001860002803D1204B0B9A136006E001225D
:104360001C4B9A5502E00B9B019A1A60029B002B92
:1043700021D1154DE86F00F097FA0023EB671AE0A2
:10438000301C00F03BFB002802D1144800F01AF961
:10439000301C00F0EDFA041E02D0301CFFF71AFFAB
:1043A0000A9B1C60002C02D10D4800F00BF9002381
:1043B0000224AB55C5E70022034B1A70FFF7E2FE5B
:1043C000201C05B0F0BDC046480400205B010C0075
:1043D0005C010C00DC040020A004002091010C0012
:1043E00096010C00014B18787047C0464804002025
:1043F00038B5041C0D1C00F013FB002801D100206F
:1044000008E0281C211C00F07DFA0028F7D0FFF7F7
:10441000B9FE012038BD08B500F0D4FA08BD10B5CA
:10442000041CFFF7D7FE201C00F000FB10BD08B5F0
:1044300000F0E4FA08BD08B5083000F0C3FA08BD82
:1044400008B5083000F094FA08BD08B5083000F04F
:10445000EDFA08BD08B5083000F0D0FA08BD10B577
:104460002B4C2378002B02D02A4800F0ABF8231CF9
:1044700090331B78002B28D02369181C636000F050
:10448000A1FAA060002802D1234800F09BF8A3689D
:104490005A780123134004D1221C92321278002A48
:1044A00010D16068FFF7D6FF02280ED8E36F002B0B
:1044B00002D100F0DBF9E067E36FE360002B04D08A
:1044C000012301E0E360022323700020237883426C
:1044D0001CD0A368834202D1104800F073F823690E
:1044E0000321636006339B00E318DA78A068013289
:1044F000D2B2DA70131C0B405A00437849188B4330
:1045000013434370002301209034237010BDC04634
:1045100048040020C3000C00C9000C00E7000C0098
:1045200008B500F0A3F908BD08B500F0BDF908BD55
:1045300008B500F075FA08BD014B9233187070474A
:1045400048040020014B923318787047480400203B
:104550007047C046024B9870587018707047C0463C
:10456000E404002010B5041E012C02D9024800F01A
:1045700029F8024B5C7010BD2A000D00E4040020F5
:10458000014B18787047C046E4040020014B98782E
:104590007047C046E4040020014B58787047C0467D
:1045A000E404002008B5054A13789370537813701B
:1045B000034A9B009B58984708BDC046E40400206E
:1045C0008000002008B5FEF70FF908BD10B5041EE5
:1045D00002D10448FFF7F6FF0022034B1C605A602B
:1045E0009A6010BD2A00010018030020084B1868CB
:1045F0009A68016801329A608A4208D300215A6899
:104600004068013299605A60824200D35960704715
:1046100018030020F8B500282BD0164CA3680128F9
:104620000FD1216801330A68A360934221D300228D
:10463000636849680133A26063608B4219D362608A
:1046400017E02668C7183568A760381C291C00F0D9
:1046500041FB6368C0186060381CA84201D3401B4E
:10466000FBE763687268A060934201D39B1AFBE783
:104670006360F8BD18030020024A136890681B6845
:10468000181A70471803002070B50D4D041E2B68D2
:104690005B689C4202D30B48FFF794FF6E680020D2
:1046A000B4420BD002D82B685B68E418F643FFF7DE
:1046B000E3FF2B6834191B685C43201870BDC046AB
:1046C000180300206800010070B5041C0E1C88420D
:1046D00002D30B48FFF776FF0A4D2B681B689E42FA
:1046E00002D90948FFF76EFFAA68A01AA24206D3B2
:1046F0000020B24203D32B681B68981A001970BDC2
:104700007D000100180300207E00010038B5041C64
:10471000101C0D1CFFF7B8FF002801D004190FE092
:10472000201C291CFFF7D0FF041CFFF7A5FF8442C3
:1047300006D3044B1B685A681B68013A5343E418BC
:10474000201C38BD18030020074B10B51A685968A3
:1047500052681C1C914202D30448FFF733FF2368C0
:104760009A686368D05C10BD18030020B200010095
:1047700038B5064B051C1A681C1C5268904202D3BF
:104780000348FFF71FFF656038BDC04618030020CF
:10479000B9000100014B58687047C046180300205B
:1047A00038B5064B051C1A681C1C1268904202D3CF
:1047B0000348FFF707FFA56038BDC0461803002077
:1047C000C5000100014B98687047C04618030020DF
:1047D0000E4B10B51A68002393420BD20C499C0073
:1047E0006158884203D10B48FFF7ECFE0AE0013321
:1047F000DBB2F1E70023084A9A18904204D0223332
:10480000CC2BF8D1002000E0012010BDE8040020EE
:10481000EC040020F6000300F4050020002210B58F
:104820000321002351430D48013244186370A370E3
:104830000B54102AF4D10A490A1C0A4C223A980057
:104840002250DE20107001328A42FAD12232013326
:10485000111C062BF0D1044A136010BD0405002082
:1048600016060020EC040020E80400200A4A38B5AF
:1048700013681C1E0ED0013B084998004458084D8F
:1048800013604550201CFFF7A3FF002802D1054804
:10489000FFF798FE201C38BDE8040020EC0400203F
:1048A000ADDEADDE7D00030070B5104C051C236845
:1048B000052B02D90E48FFF785FE281CFFF788FF5D
:1048C000002802D10B48FFF77DFE23680A4A9B00AF
:1048D00099580A4B161C994202D00948FFF772FEFC
:1048E00023689A000133B550236070BDE8040020AE
:1048F0008500030086000300EC040020ADDEADDE81
:104900008800030070B5051C0C1E0F2C02D914483A
:10491000FFF758FE281CFFF75BFF002802D1114863
:10492000FFF750FE032161430F4B0020CA5C022AAF
:1049300014D85A18567889190C4E89008D5151781F
:104940000131C9B251705178022900D95070032247
:10495000012054431A5D0132D2B21A5570BDC046CF
:104960008F000300900003000405002034050020A0
:1049700010B5041E0F2C02D90F48FFF723FE0321A8
:1049800061430E4BCA5CD2B2101E14D05A189078F4
:1049900009180B488900085891780131C9B2917003
:1049A0009178022901D900219170032254431A5DA4
:1049B000013AD2B21A5510BDA6000300040500202A
:1049C0003405002010B5041E0F2C02D90848FFF74B
:1049D000F9FD0320021C6243064BD15CC9B2081EDC
:1049E00005D09B189B78D018034B8000C05810BD91
:1049F000B7000300040500203405002010B5041E94
:104A00000F2C02D90448FFF7DDFD03206043034B60
:104A1000C05CC0B210BDC046C80003000405002041
:104A2000014B18687047C046E804002038B5051EE1
:104A30000F2D0CD90948FFF7C5FD08E0084B9C4233
:104A400002D10848FFF7BEFD201CFFF72DFF281CF0
:104A5000FFF78EFF041EF1D138BDC046D70003001A
:104A6000ADDEADDEDB000300A12101220020154BED
:104A7000C90010B55A60DA6058505A64124A1C1CBA
:104A80009A58824202D01148FFF79CFD0122C223AE
:104A900052429B00E25000230D4A04215364A2229B
:104AA0000120D200A1500B4A0B49136013715371BE
:104AB00008708022C021094B520049005A501A60E8
:104AC00010BDC046008000404405000035000400D1
:104AD000FC80004024030020C006002000E100E02C
:104AE0000122034B1A600022024B1A707047C04625
:104AF00000800040C0060020012330B5C020802582
:104B00000021074A074C5360D360074A6D004000FC
:104B10001160117125505171044A137030BDC046A7
:104B20000080004000E100E024030020C0060020D7
:104B3000014B18787047C046C0060020014B187919
:104B40007047C04624030020F7B5C223009280229C
:104B5000324C334E9B0052020191E2507379051C96
:104B6000002B02D02F48FFF72DFD002D02D12E483B
:104B7000FFF728FD3368002B02D02C48FFF722FDF9
:104B8000009B35602A4F012B0DD0002B03D0022B48
:104B90000DD1A92308E00123264A6364A5582364A4
:104BA000009B7B6407E0A823DB00E55803E0224874
:104BB000FFF708FD0025A82001210022019BC0006D
:104BC000EB189BB271717A64235023580093194BF0
:104BD0006164E6587B6C171C934202D01748FFF7BC
:104BE000F1FC009BAB4205D3AE4201D39E420ED3F3
:104BF00013480AE03B1C009A96427B41AE427F413B
:104C0000DBB2FFB2BB4202D00E48FFF7DBFC8022D2
:104C1000C12352029B00E250F7BDC0460080004015
:104C200024030020730004007500040076000400D3
:104C3000FC80004044050000890004009B00040043
:104C4000B0000400C90004000048704748800040DC
:104C500000487047408100408022C22370B5002682
:104C6000114D9B005202EA50104C114B5E642368B8
:104C7000B34202D10F48FFF7A5FC01230E4A20687A
:104C8000667126606B64A958043AAA580B4D143219
:104C9000A94203D8C0252D02AA4202D8002391427E
:104CA0005B412371804770BD0080004024030020D9
:104CB000FC800040EC00040044050000FF3F0000C1
:104CC00002B4714649084900095C49008E4402BC9F
:104CD0007047C046002243088B4274D303098B42BD
:104CE0005FD3030A8B4244D3030B8B4228D3030CBC
:104CF0008B420DD3FF22090212BA030C8B4202D35E
:104D00001212090265D0030B8B4219D300E0090A85
:104D1000C30B8B4201D3CB03C01A5241830B8B428E
:104D200001D38B03C01A5241430B8B4201D34B0377
:104D3000C01A5241030B8B4201D30B03C01A5241DC
:104D4000C30A8B4201D3CB02C01A5241830A8B4261
:104D500001D38B02C01A5241430A8B4201D34B024A
:104D6000C01A5241030A8B4201D30B02C01A5241AE
:104D7000CDD2C3098B4201D3CB01C01A5241830962
:104D80008B4201D38B01C01A524143098B4201D39C
:104D90004B01C01A524103098B4201D30B01C01AC7
:104DA0005241C3088B4201D3CB00C01A5241830841
:104DB0008B4201D38B00C01A524143088B4201D36E
:104DC0004B00C01A5241411A00D2014652411046CE
:104DD0007047FFE701B5002000F006F802BDC046AD
:104DE0000029F7D076E770477047C046002310B51A
:104DF0009A4200D110BDCC5CC4540133F8E70000E6
:104E0000F8B5C046F8BC08BC9E467047F8B5C04629
:104E1000F8BC08BC9E46704700000020FFFFFFFF63
:104E2000FFFFFFFFFFFFFFFFFFFFFFFF000000008E
:104E30000000000000E0D70103000000190000009E
:104E4000180000001600000017000000000000001D
:104E500000000010000003410000000000B000400E
:104E60000B00030000100040101100400310000070
:104E70000100000000100040000000000B020400D0
:104E800000000000041000400000000007080301BB
:084E900000000000000000001A
:084E980070B2FF7F0100000071
:104EA0000000000000000000000000000000000002
:104EB00000000000000000000000000000000000F2
:104EC00000000000000000000000000000000000E2
:104ED00000000000000000000000000000000000D2
:104EE00000000000000000000000000000000000C2
:104EF00000000000000000000000000000000000B2
:104F000000200040000000000024F4000500000024
:104F100004192A3F4D0000000000000000000000BE
:104F2000D135000091340000E9000000C10000000C
:0400000300001905DB
:00000001FF
