:100000000C9404070C944B070C944B070C944B076F
:100010000C944B070C944B070C944B070C944B0718
:100020000C944B070C944B070C94AC2C0C947E2D29
:100030000C94C11E0C944B070C944B070C944B076B
:100040000C944B070C944B070C944B070C944B07E8
:100050000C944B070C94351F0C944B070C944B07D6
:100060000C944B070C944B070C944B070C944B07C8
:100070000C944B070C944B070C944B070C944B07B8
:100080000C944B070C944B070C944B070C944B07A8
:100090000C944B070C944B070C944B070C944B0798
:1000A0000C944B070C944B070C944B071D131D131A
:1000B0004F134F139C13BA1312151215FC139114FE
:1000C000A214A2140215121512150B1598159815E5
:1000D000AA15AA15A115AA15AA15AA159815981555
:1000E000A615AA15AA15A6150125EF2413258D23FB
:1000F000EC25EC25EC24EC25EC254025EC255425BD
:10010000CC25EC25EC25EC25EC258825EC25EC25EB
:100110007125EC252C25EC25EC25E625E625E625A4
:10012000E625E625E625E625E625E625E825EC256F
:100130000125E424EC25EC25EC25EC25EC25EC252B
:10014000EC25EC25EC25EC25E825EC25EC25EC242C
:10015000EC25E425E425E425E425E425E425E4254F
:10016000E425E425E825EB2D122E0A2F122E0A2F66
:100170005E2E812E0A2FD82EE72E426174743A200B
:1001800025640A000A002530313662003A20002535
:10019000303258000A722F63203031323334353612
:1001A0003738394142434445460A0029001E001FA2
:1001B000002000210022002E002D00230024002515
:1001C00000260027002A002B0014001A0008001542
:1001D0000017002F0030001C0018000C0012001344
:1001E000003100390004001600070009000A000071
:1001F0000000000B000D000E000F0033003400E182
:10020000001D001B000600190005004C0000001135
:100210000010003600370038002800E000E3003509
:1002200000E20000002C002C002C002C00000050EC
:1002300000510052004F00000000000000000000CC
:1002400000000000000000000000000000000000AE
:1002500000000044454255473A2064697361626C6E
:1002600065642E0A0044454255473A20656E616236
:100270006C65642E0A00556E69636F646520696E53
:10028000707574206D6F64652073657420746F3AA7
:100290002025750A00556E69636F646520696E706C
:1002A0007574206D6F646520696E697420746F3A8F
:1002B0002025750A000A002530325820006B657928
:1002C000626F6172645F7265706F72743A20000AC7
:1002D0000025303258006B6579626F6172645F731C
:1002E00065745F6C65643A20004F6E6573686F7467
:1002F0003A2074696D656F75740A0064656C5F6B94
:1003000065795F6269743A2063616E277420646561
:100310006C3A20253032580A006164645F6B65795D
:100320005F6269743A2063616E2774206164643A85
:1003300020253032580A00290A002575002F002593
:1003400075005D280025640020002564002000253C
:10035000640020002564007C0025303258006D6F59
:100360007573656B6579205B62746E7C782079208B
:100370007620685D287265702F61636C293A205B76
:10038000006D6B5F776865656C5F74696D655F7440
:100390006F5F6D6178203D2025640A006D6B5F778B
:1003A0006865656C5F6D61785F7370656564203D3D
:1003B0002025640A006D6B5F74696D655F746F5F03
:1003C0006D6178203D2025640A006D6B5F6D61785A
:1003D0005F7370656564203D2025640A006D6B5F66
:1003E000696E74657276616C203D2025640A006D2B
:1003F0006B5F64656C6179203D2025640A006D6B3C
:100400005F776865656C5F74696D655F746F5F6D5C
:100410006178203D2025640A006D6B5F7768656513
:100420006C5F6D61785F7370656564203D20256445
:100430000A006D6B5F74696D655F746F5F6D6178E5
:10044000203D2025640A006D6B5F6D61785F7370DD
:10045000656564203D2025640A006D6B5F696E74DC
:10046000657276616C203D2025640A006D6B5F64C7
:10047000656C6179203D2025640A000A002575001D
:10048000363A20776865656C5F74696D655F746F77
:100490005F6D61783A20000A00257500353A2077B3
:1004A0006865656C5F6D61785F73706565643A203F
:1004B000000A00257500343A2074696D655F746F19
:1004C0005F6D61783A20000A00257500333A206D8F
:1004D00061785F73706565643A20000A00257500D5
:1004E000323A20696E74657276616C286D73293AB0
:1004F00020000A00257500313A2064656C61792876
:100500002A31306D73293A20000A092D2056616C7A
:10051000756573202D0A004D3E004D25643E200078
:100520003F007365742064656661756C740A0043EE
:100530003E200077686572652064656C74613A20BE
:10054000637572736F723D25642C20776865656CE6
:100550003D25640A53656520687474703A2F2F65D1
:100560006E2E77696B6970656469612E6F72672F93
:1005700077696B692F4D6F7573655F6B6579730A6A
:10058000000A092D204D6F7573656B6579202D0A62
:100590004553432F713A09717569740A313A0964F8
:1005A000656C6179282A31306D73290A323A0969FC
:1005B0006E74657276616C286D73290A333A096D21
:1005C00061785F73706565640A343A0974696D65B2
:1005D0005F746F5F6D61780A353A09776865656C9D
:1005E0005F6D61785F73706565640A363A09776894
:1005F00065656C5F74696D655F746F5F6D61780AC6
:100600000A703A097072696E742076616C75657350
:100610000A643A097365742064656661756C747365
:100620000A75703A092B310A646F776E3A092D31D9
:100630000A706775703A092B31300A7067646F77FA
:100640006E3A092D31300A0A7370656564203D20C9
:1006500064656C7461202A206D61785F73706565D4
:1006600064202A2028726570656174202F207469C7
:100670006D655F746F5F6D6178290A003F004D3EC4
:100680002000433E20004C25640A0074696D6572A9
:100690005F72656164333228293A202530346C5802
:1006A0000A006B65796D61705F636F6E6669672EB6
:1006B0006E6B726F3A2025580A006B6579626F6124
:1006C00072645F69646C653A2025580A006B65792D
:1006D000626F6172645F70726F746F636F6C3A20E7
:1006E00025580A00686F73745F6B6579626F617279
:1006F000645F6C65647328293A2025580A000A094A
:100700002D20537461747573202D0A004743433ABA
:1007100020352E342E30204156522D4C4942433A3A
:1007200020322E302E30204156525F415243483AFB
:1007300020617672350A004F5054494F4E533A208B
:100740004C554641204D4F5553454B455920455832
:100750005452414B455920434F4E534F4C45204333
:100760004F4D4D414E44204E4B524F203430393680
:100770000A004255494C443A2022302E372E323955
:100780002D392D67616662393362372D6469727461
:100790007922202831323A35373A3136204E6F7679
:1007A0002020372032303139290A005649443A2076
:1007B00030784645454428556E6B6E6F776E29201C
:1007C0005049443A203078363036302842697265D4
:1007D0006D6529205645523A203078303030310A44
:1007E00000444553433A20712E6D2E6B2E206B65CD
:1007F00079626F617264206669726D7761726520DB
:10080000666F7220426972656D650A000A092D20C3
:1008100056657273696F6E202D0A000A092D2043F8
:100820006F6E736F6C65202D0A4553432F713A0923
:10083000717569740A6D3A096D6F7573656B6579C9
:100840000A000A092D204D61676963202D0A443A88
:10085000094465627567204D65737361676520544F
:100860006F67676C650A583A094D61747269782040
:100870004465627567204D6F646520546F67676CCF
:1008800065202D2053686F77206B657970726573D2
:1008900073657320696E206D617472697820677268
:1008A00069640A4B3A094B6579626F61726420444E
:1008B0006562756720546F67676C65202D205368EB
:1008C0006F77206B65797072657373207265706FD6
:1008D00072740A4D3A094465627567204D6F7573ED
:1008E0006520546F67676C650A563A0956657273DE
:1008F000696F6E0A533A095374617475730A433A07
:1009000009416374697661746520436F6E736F6C1F
:1009100065204D6F64650A46312D4631303A0953E2
:10092000776974636820746F204C61796572203038
:100930002D392028463130203D204C30290A302DD9
:10094000393A0953776974636820746F204C617970
:10095000657220302D390A47524156453A0953777E
:100960006974636820746F204C617965722030204F
:1009700028616C7465726E617465290A423A094A8D
:10098000756D7020746F20426F6F746C6F61646559
:10099000720A4553433A094A756D7020746F2042BC
:1009A0006F6F746C6F616465722028616C7465721E
:1009B0006E617465290A453A095072696E74204562
:1009C0004550524F4D2053657474696E67730A42E7
:1009D00053504143453A09436C6561722045455087
:1009E000524F4D0A4E3A094E4B524F20546F676793
:1009F0006C650A000A002575002E6E6B726F3A2036
:100A0000000A002575002E737761705F6261636B69
:100A1000736C6173685F6261636B73706163653A85
:100A200020000A002575002E737761705F67726180
:100A300076655F6573633A20000A002575002E6EA7
:100A40006F5F6775693A20000A002575002E73777D
:100A500061705F72616C745F726775693A20000A39
:100A6000002575002E737761705F6C616C745F6C2C
:100A70006775693A20000A002575002E737761704A
:100A80005F7263746C5F726775693A20000A0025B3
:100A900075002E737761705F6C63746C5F6C677543
:100AA000693A20000A002575002E636170736C6F2F
:100AB000636B5F746F5F636F6E74726F6C3A20006C
:100AC0000A002575002E737761705F636F6E747214
:100AD0006F6C5F636170736C6F636B3A20000A0028
:100AE00025303258006B65796D61705F636F6E669B
:100AF00069672E7261773A20000A002575002E6D15
:100B00006F7573653A20000A002575002E6B6579B4
:100B1000626F6172643A20000A002575002E6D61D3
:100B2000747269783A20000A002575002E656E619E
:100B3000626C653A20000A00253032580064656214
:100B400075675F636F6E6669672E7261773A200022
:100B50000A0025750064656661756C745F6C617967
:100B600065723A20003F004E4B524F3A206F666646
:100B70000A004E4B524F3A206F6E0A000A6D6F7595
:100B800073653A206F66660A000A6D6F7573653A81
:100B9000206F6E0A000A6B6579626F6172643A2099
:100BA0006F66660A000A6B6579626F6172643A204B
:100BB0006F6E0A000A6D61747269783A206F66661A
:100BC0000A000A6D61747269783A206F6E0A000A31
:100BD00064656275673A206F66660A000A6465623A
:100BE00075673A206F6E0A000A0A4A756D70696E61
:100BF0006720746F20626F6F746C6F616465722E12
:100C00002E2E2000433E2000436C656172696E67A2
:100C100020454550524F4D0A006565636F6E666909
:100C2000673A0A005B735D004B6579626F617264BD
:100C30002073746172742E0A005B575D005B535D14
:100C4000005B525D005B445D005B435D000403306C
:100C50000000000E0342006900720065006D00652F
:100C6000000000100355006E006B006E006F0077EF
:100C7000006E0000000403090409025B0003010088
:100C8000A0FA09040000010301010009211101007B
:100C9000012240000705810308000A090401000140
:100CA0000300000009211101000122C00007058294
:100CB0000320000A090402000203000000092111B8
:100CC000010001222200070583032000010705031C
:100CD000032000011201100100000008EDFE606019
:100CE0000100010203010631FF0974A10109751514
:100CF0000026FF009520750881020976150026FF61
:100D000000952075089102C005010902A101850224
:100D10000901A100050919012905150025019505FD
:100D200075018102950175038101050109300931C1
:100D30001581257F95027508810609381581257F63
:100D4000950175088106050C0A38021581257F95E5
:100D50000175088106C0C005010980A10185031A3B
:100D600081002A8300160100260300950175108179
:100D700000C0050C0901A10185041A01002A9C028A
:100D8000160100269C02950175108100C00501091D
:100D900006A1018505050719E029E715002501953C
:100DA00008750181020507190029EF150025019535
:100DB000F075018102050819012905950575019154
:100DC00002950175039101C005010906A1010507FE
:100DD00019E029E7150025019508750181029501A3
:100DE000750881010507190029FF150026FF0095E8
:100DF00006750881000508190129059505750191F9
:100E000002950175039101C011241FBECFEFDAE0F6
:100E1000DEBFCDBF04B603FE27C080915002909183
:100E20005102A0915202B09153028730904BA740DB
:100E3000B04BD1F410925002109251021092520213
:100E40001092530214BE84B7877F84BF0FB6F89404
:100E5000A895809160008861809360001092600086
:100E60000FBEE0E0F8E3099511E0A0E0B1E0E6E7AD
:100E7000FFE502C005900D92AC32B107D9F722E030
:100E8000ACE2B1E001C01D92A035B207E1F70E94CB
:100E9000CD290C94B92F0C940000FF93EF93E091AF
:100EA0002C01F0912D01309709F00995EF91FF91F8
:100EB0000895FC018591803011F0EFDFFBCF08959C
:100EC000FF27E0E230E247FF0CC0419597FF09C0E1
:100ED000EDE26095709580959095611D711D811D65
:100EE000911D27FF02C0219530E350E2AA27660F2B
:100EF000771F881F991FAA1FA41710F0A41B6395C2
:100F00005A95A9F7AA3008F0A95FA05DAF93F395B1
:100F1000611571058105910541F7ED3211F4EF93EB
:100F2000F395F21718F43F93F395FBCF8F91B5DF4C
:100F3000FA95E1F70895E991F9918591803021F0D2
:100F4000853219F0AADFF9CF089520E0E894559191
:100F50005532C1F3503311F4689455915A3348F423
:100F6000505390F3220F022E220F220F200D250F37
:100F7000F4CF0EF4219589919991533619F3533793
:100F800029F1533559F1BC0188279927E8945C363B
:100F900021F48991999168945591543639F446EF2A
:100FA0007EF077FF0DC08FEF9FEF0AC055374AE004
:100FB00039F0583540E121F0523642E009F0089509
:100FC000FF93EF937DDFEF91FF91B7CFFF93EF9307
:100FD000FC0181918030B9F360DFFBCFFF93EF9389
:100FE00068DFF1CFDF93CF93CDB7DEB72596A3DFD0
:100FF000CF91DF91089508950C94FB070C94CC08D1
:101000000C94A1091092CC001092CD0088E180933D
:10101000C90086E08093CA008FE0EEE2F1E0DF01D4
:101020001D928A95E9F783E78093CE00DF0140E0C7
:1010300050E0BA018091C80087FD0BC04F5F5F4F41
:101040006F4F7F4F413A26E8520721E06207710552
:1010500088F38091CE008D9381E0AD33B80751F7CE
:1010600080913C01803ED9F4ADE3B1E0818120E87C
:10107000829FC00111242081822B8D939D933296F3
:1010800081E0EA33F80791F790913B0180913A01B2
:10109000923310F0823308F48898809349010E94BB
:1010A000AB0981E00895E82FF0E0EE0FFF1FE35C4D
:1010B000FE4F808191810895CF92DF92EF92FF924F
:1010C0000F931F93CF93DF9384E991E00E94590718
:1010D0008DE3E82E81E0F82EC0E0D0E09FE8C92E35
:1010E00091E0D92E06E811E0DF93CF93DF92CF9203
:1010F0000E94F2078CE891E00E945907F701819164
:1011000091917F010E94FF1C9F938F931F930F93D8
:101110000E94F20784E891E00E94590721968DB75A
:101120009EB708960FB6F8949EBF0FBE8DBFC6300F
:10113000D105D1F6809149011F928F938AE791E002
:101140009F938F930E94F2070F900F900F900F9034
:10115000DF91CF911F910F91FF90EF90DF90CF9093
:1011600008951092CC001092CD0088E18093C900C0
:1011700086E08093CA00089580B3836380BB8D9A14
:101180008C9A899A889808950E94FC070E94B10859
:101190000C94BC0881E008956091D1017091D20156
:1011A0008091D3019091D4010C949D1C80910202F6
:1011B000816082608093020208950F931F93CF9302
:1011C000DF939C013A9521153F4148F5EB018C01D5
:1011D00090FF03C080EEFB01099511FF03C081EE73
:1011E000FE01099512FF03C082EEFE01099513FF6F
:1011F00003C083EEFE0109950115104180F084EED5
:10120000FE01099585EEFE01099586EEFE01099520
:1012100087EEFE01DF91CF911F910F910994DF912D
:10122000CF911F910F910895877091E001C0990FA0
:101230008A95EAF7892F0E94CD1B0C94171C0C94F9
:101240001409877091E001C0990F8A95EAF7892FF8
:101250000E94D31B0C94171C0C942109CF93DF938D
:10126000EC01805E9109089710F0209719F464E171
:1012700079E002C06FE179E0CE010E94DD088C2F99
:10128000DF91CF910C94C011CF93DF93EC010E94BA
:101290009612CE01805E9109089710F0209719F4FC
:1012A00061E279E002C06CE279E0CE01DF91CF919A
:1012B0000C94DD08CF93DF93EC010E942E09CE0140
:1012C000DF91CF910C94440981E008950C94CA08F1
:1012D0001F93CF93DF9300D000D01F92CDB7DEB71E
:1012E00049835A836B832091610189819A812111FD
:1012F00012C0662349F00E94E81A182F682F8981CE
:101300009A810E94911A03C00E94BC1A182F698109
:101310007A81812F04C00E94E81A69817A810F9036
:101320000F900F900F900F90DF91CF911F910C9421
:10133000960BFC01408151816281738184810C9400
:1013400068090E94121D811102C00E94B21D0E94F4
:10135000570E0C94C4080C94FE07282F2F7041F0F0
:10136000822F90E02A3010F44D9608950697089544
:1013700087E290E0089508950C94BB090C94BC0991
:1013800008950E9486150E94C0092FEF84E39CE017
:10139000215080409040E1F700C0000087E797E7C8
:1013A00090930108809300080C945B1F0F931F9388
:1013B000CF93DF938C010E949909EC01B8010E9440
:1013C0006609882309F1B801CE010E94F40E882332
:1013D000D9F0B801CE010E949A0F8823A9F0C63136
:1013E000FCE5DF0799F008F051C0C130ECE5DE07FD
:1013F000A1F108F058C0C115DC4509F06EC1F80133
:10140000828181110E94C109C0E086C10E94B71B80
:10141000982FF801828120910001309101018823E9
:1014200079F09A7A81E009F480E080934A01911181
:1014300002C069E201C065E3C9010E94411E0AC001
:1014400080914A01811102C069E201C065E3C901CE
:101450000E944C1E0E94171CD7CFF801828188235E
:1014600099F280910202C82FC095C170C0FB80F92B
:1014700080930202CC2329F085E692E00E9459076E
:10148000C3CF83E592E00E94590746C1CE3DECE50B
:10149000DE0709F429C108F419C1CE018A5F9C4511
:1014A000099708F01AC1F8018281882309F415C14F
:1014B0000E94121D811102C00E94B21D0E94251DB2
:1014C0009093420280934102C031FCE5DF0709F4AA
:1014D000BFC008F03FC0C830ECE5DE0709F496C095
:1014E000F0F4C4308CE5D80709F483C068F4C23046
:1014F000FCE5DF0709F473C0C330DC4509F0DDC04B
:1015000080914102826072C0C630ECE5DE0709F4CA
:101510006AC008F077C080914102886067C0CC3013
:101520008CE5D80709F481C058F4CA30FCE5DF0720
:1015300009F470C008F075C080914102806856C0FF
:10154000CE30ECE5DE0709F474C008F07DC0809170
:10155000410289C0CB3F8CE5D80709F44DC008F59E
:10156000C331FCE5DF0709F47BC068F4C131ECE569
:10157000DE0709F471C0C231DC4509F09EC08091DC
:1015800041028F7733C0C5318CE5D80709F472C0AA
:1015900008F486C0CA3FDC4509F08FC08091420242
:1015A0003EC0CF3F8CE5D80709F45FC058F4CD3F6B
:1015B000FCE5DF0709F444C008F43FC08091420213
:1015C00082602DC0C130EDE5DE0709F473C008F478
:1015D0005DC0C230DD4509F070C080E06CC0809114
:1015E0004102816003C08091410280618093410289
:1015F00064C08091410211C0809142028260809358
:1016000042025BC0809141028062F0CF8091410232
:101610008064ECCF8091410288608460E7CF816074
:10162000EECF809141028E7FE1CF809141028D7F8C
:10163000DDCF80914102877FD9CF8091420218C0CF
:10164000809142028D7FDBCF809141028F7ECECF91
:10165000809141028F7DCACF809141028F7BC6CF9E
:1016600080914102877F8B7FC1CF809142028D7F25
:101670008E7FC5CF8091410282FB222720F991E025
:10168000922790FB82F990FB83F9B0CF80914202C0
:10169000982F909591708E7F892B90FB81F9AFCF19
:1016A0008091410287FB222720F991E0922790FB4D
:1016B00087F99CCF81E00E94B41D809141029091F6
:1016C00042020E94361D0E9486159ECECC3D8CE5BE
:1016D000D80791F0CD3DDC45B1F0C801DF91CF9145
:1016E0001F910F910C946409F8018281882309F4F9
:1016F0008BCE0E94B21D88CEF8018281882309F426
:1017000083CE80E006C0F8018281882309F47CCE74
:1017100082E00E94732A78CE8C2FDF91CF911F91A7
:101720000F91089580E090E00895089524E5829F48
:10173000C0011124FC012EE0729FE00DF11D112467
:10174000E60FF11DEE0FFF1FE555FE4F85919491B9
:101750000895880F991FFC01EA58FD4F85919491D7
:101760000895CF93DF930E94960B0E946B0DEC01BE
:101770008115904508F041C0C11580E4D80708F0F4
:1017800028C1C83ED10510F5C03ED10508F09FC163
:10179000C83AD10578F4C53AD10508F0A2C0C130E5
:1017A000D10509F494C108F445C1C430D10508F04D
:1017B0008EC140C1CF3BD10508F49EC0C03CD105CD
:1017C00008F438C1CE01805C9109F5C0C11590E2E2
:1017D000D90758F4C11521E0D20708F078C1C03FFD
:1017E000D10508F427C1D06572C1C11580E3D807BF
:1017F00008F0E5C0CE019F70DEC0C11595E5D907A0
:1018000008F043C0C11524E5D20708F0F9C0C1159E
:1018100082E5D80708F5C11591E5D90708F0DCC0C5
:10182000CE0174E0969587957A95E1F783709C2FA9
:10183000937021E030E002C0220F331F9A95E2F747
:101840003C68382BCF70C695C69580E2C89FE001F2
:101850001124C22BD32B3BC19E01237033278C2F25
:1018600086958695C115D34508F0BBC0C1E0D0E090
:1018700002C0CC0FDD1F2A95E2F720E2829FC00153
:101880001124C82BD92BDC6822C1C11529E5D20748
:10189000A0F4C11588E5D80708F0B7C0C11596E5D2
:1018A000D90708F0C7C08C2F0E94FF0D8F71C82F79
:1018B000D0E0DC2FCC27D0620AC1C1152AE5D207BF
:1018C00008F4A8C0CE0190568115904208F0B2C02D
:1018D0008D2F8F710E94FF0DDD27D0628F71D82B65
:1018E000F6C0C53AD10509F4A8C0C63AD10509F039
:1018F000A7C0C2E8D0E4EBC0C83AD10509F4A3C040
:10190000C93AD10509F4A2C0CA3AD10509F4A1C067
:10191000CB3AD10509F4A0C0CC3AD10509F49FC057
:10192000CB3BD10509F49EC0CC3BD10509F49DC049
:10193000CD3AD10509F49CC0C03BD10509F49BC048
:10194000CE3AD10509F49AC0CF3AD10509F499C02D
:10195000C13BD10509F498C0C23BD10509F497C039
:10196000C33BD10509F496C0C43BD10509F495C029
:10197000C53BD10509F494C0C63BD10509F493C019
:10198000C73BD10509F492C0C83BD10509F491C009
:10199000C93BD10509F490C0CD3BD10509F48FC0F6
:1019A000CE3BD10509F48EC0CA3BD10509F48DC0E8
:1019B000C0E0D4E48CC00E94A90BEC0188C0CE0129
:1019C0009927D3FF03C0EC01D86C81C0EC01D06C27
:1019D0007EC0DF70D06A7BC0DC2FCC27C16FD06A9D
:1019E00076C0C1E0D0E002C0CC0FDD1F2A95E2F73F
:1019F00020E2829FC0011124C82BD92BDA6867C06E
:101A0000DC2FCC27C46FD06A62C0DC2FCC27C06F1C
:101A1000D06A5DC08C2F8F700E94FF0D94E0D69528
:101A2000C7959A95E1F7CF70D0E0DC2FCC27D0692D
:101A3000C82B4DC0C0E0D0E04AC0C1E8D0E447C0E8
:101A4000C3E8D0E444C0C2EED4E441C0C9EED4E45B
:101A50003EC0CAEED4E43BC0C5EBD4E438C0C6EB0C
:101A6000D4E435C0C3EBD4E432C0C4EBD4E42FC01B
:101A7000C7EBD4E42CC0CCECD4E429C0CDECD4E446
:101A800026C0C3E8D5E423C0CAE8D5E420C0C2E933
:101A9000D5E41DC0C4E9D5E41AC0C1E2D6E417C03C
:101AA000C3E2D6E414C0C4E2D6E411C0C5E2D6E471
:101AB0000EC0C6E2D6E40BC0C7E2D6E408C0CFE64B
:101AC000D4E405C0C0E7D4E402C0CAE2D6E4CE0143
:101AD000DF91CF9108958238910569F1B0F4813397
:101AE000910509F46DC048F48932910509F463C089
:101AF0008A32910509F469C008958533910509F486
:101B000055C089339105B9F00895833E910569F177
:101B100038F4803E9105B1F0823E910509F10895B7
:101B2000863E9105A9F1873E9105B9F1843E910564
:101B300009F064C023C02091410220FD4FC021FD67
:101B40004DC008958091410280FD44C080914202C1
:101B500080FF44C08091410284FD42C083EE4DC0AD
:101B60008091410282FF38C0F5CF8091410282FD11
:101B700033C08091420280FD31C0ECCF809142029F
:101B800081FF32C08091410284FD2AC087EE35C0BA
:101B90008091410283FF26C0F5CF8091410283FDF1
:101BA00021C08091420281FD1FC0ECCF8091410293
:101BB00085FD1CC01DC08091410285FD19C016C065
:101BC0008091410286FD16C017C08091410286FDBA
:101BD00013C010C089E311C082EE0FC080EE0DC0AB
:101BE00080E00BC086EE09C084EE07C089E205C024
:101BF00085E303C08AE201C081E390E008959091FB
:101C0000410292FF0DC0282F2871283019F4877FD8
:101C1000846006C0282F2471243011F48B7F8860E3
:101C200093FF0DC0282F2871283119F4877E846115
:101C300006C0282F2471243111F48B7E88612091F5
:101C4000420220FF0DC0382F3871383019F4877FD9
:101C5000816006C0382F3171313011F48E7F886079
:101C600021FF0DC0282F2871283119F4877E81614A
:101C700006C0282F2171213111F48E7E886194FDD8
:101C8000877E0895CF93DF9397FF0DC0FB012281DC
:101C9000222349F0EC010E94960ECE019F770E940C
:101CA000D70E0E94C00E81E0DF91CF9108958CE0A5
:101CB00090E00E94772F90E0A0E0B0E080933602A1
:101CC00090933702A0933802B093390280910202B8
:101CD00080FF0EC0809136021F928F9385E992E0BB
:101CE0009F938F930E94F2070F900F900F900F9089
:101CF0000895609136028CE090E00C94852F8093DB
:101D000036020E94790E8091020280FF0EC08091FF
:101D100036021F928F9386E792E09F938F930E94E3
:101D2000F2070F900F900F900F9008950E94B71B2D
:101D300080933A020E94CA1B80913602813071F072
:101D400048F0823081F08430A1F486EE0E94CA12FD
:101D500088E10DC082EE0E94C0110BC088E193E0C3
:101D60000E945A0906C082EE0E94C01187E50E94B7
:101D7000CA128FE39CE90197F1F700C000000895B3
:101D800080913602813039F040F0823031F0843079
:101D900051F488E206C08CE204C082EE0E949612E2
:101DA00002C00E94CA1280913A020C94C71B0F9382
:101DB0001F93CF93DF938C01CCE0D0E0C8010C2EB1
:101DC00002C0969587950A94E2F78F700E94AD093C
:101DD0000E94CA122497CC3F8FEFD80779F7DF9182
:101DE000CF911F910F9108950F931F93CF93DF937E
:101DF000EC018B01FB018281882301F1C33EFCE5EC
:101E0000DF07B9F050F4C13EECE5DE0781F0C23ED9
:101E1000FCE5DF0799F481E00FC0C43E8CE5D807EC
:101E200051F0C53EECE5DE0749F484E005C080E0F2
:101E300003C082E001C083E00E947F0EB801CE01A2
:101E4000DF91CF911F910F910C94420E0F931F932E
:101E5000CF93DF93C62FD42F122FFC0182818823CA
:101E6000C9F060934D010E94F31E90934C01809342
:101E70004B0180E28C0F883008F057C0C77081E0BA
:101E800001C0880FCA95EAF7DF91CF911F910F919A
:101E90000C94DD1280914D01681330C080914B018C
:101EA00090914C010E940B1F883C910538F500E28F
:101EB0000D0FCD17B9F080E28C0F883040F4C77059
:101EC00081E001C0880FCA95EAF70E94E412083049
:101ED00028F581E09D2F977001C0880F9A95EAF749
:101EE0000E94DD12812F0E94CA120830F0F4D770D0
:101EF00081E001C0880FDA95EAF70AC080E28C0F12
:101F0000883098F4C77081E001C0880FCA95EAF75D
:101F1000DF91CF911F910F910C94E412812FDF91EB
:101F2000CF911F910F910C94CA12DF91CF911F9105
:101F30000F9108959C01CB01233F4CE53407F9F044
:101F400078F4283DFCE53F07B9F0293D4CE534071E
:101F500011F1273D3C4531F526E241EE61EE1EC010
:101F6000253FFCE53F0799F070F0263F3C45D1F452
:101F700027E245EE66EE12C027E245EE0EC026E2ED
:101F800041EE60EE0BC027E245EE64EE07C026E2AC
:101F900041EE62EE03C028E241E065EE0E94260FAA
:101FA00080E00895FC018281882319F010924D0190
:101FB000089581E00895909353018093520108950C
:101FC000E0915201F0915301309721F00190F0819E
:101FD000E02D099480E00895EF92FF921F93CF9334
:101FE000DF93FC01A0915201B0915301109709F4C5
:101FF00042C080911201882341F08091410287FF05
:1020000004C08081818385E08083EF011296ED9189
:10201000FC911397CE0109958091020282FF2BC09B
:1020200080FF04C08DEB92E00E94590718E087EB17
:10203000E82E82E0F82E8091020280FF0BC088819A
:102040001F928F93FF92EF920E94F2070F900F90D2
:102050000F900F90115021961111EDCF8091020237
:1020600080FF09C085EB92E0DF91CF911F91FF9037
:10207000EF900C945907DF91CF911F91FF90EF9053
:102080000895E0915201F0915301309739F022E028
:10209000DC012C930480F581E02D099408952091B2
:1020A0005001309151012817390771F09093510177
:1020B00080935001E0915201F0915301309721F04B
:1020C0000680F781E02D0994089520914E0130910A
:1020D0004F012817390771F090934F0180934E01FB
:1020E000E0915201F0915301309721F00084F18585
:1020F000E02D0994089585B7806885BF85B780680D
:1021000085BF089508950C9482100C9483100C944C
:1021100082100C94D6080E947B100E9487100C94A9
:10212000851081E008950E94EA1E0E9400080E9426
:102130006C1F0C948910CF93C82F8091020282FFEC
:102140001EC080FF04C086ED92E00E945907809176
:10215000020280FF0CC01F92CF9381ED92E09F930B
:102160008F930E94F2070F900F900F900F90809125
:10217000020280FF04C08FEC92E00E9459078C2F6E
:10218000CF910C94BE095F926F927F928F929F9233
:10219000AF92BF92CF92DF92EF92FF920F931F9375
:1021A000CF93DF93CDB7DEB72A970FB6F894DEBF93
:1021B0000FBECDBF0E9402080E949110811111C074
:1021C0008FEF89838A831B820E94F31E8160782FA0
:1021D0009D838C8349815A816B818D810E948011FE
:1021E00056C095E5692E91E0792E00E010E0882434
:1021F0008394912C502E802F0E9453086C01F30180
:10220000A190B1903F01A826B926A114B10431F4E0
:102210000F5F1F4F0630110569F7D2CF8091020280
:1022200081FD0E945C0880E090E07401082E02C0ED
:10223000EE0CFF1C0A94E2F795012E213F21232B7F
:1022400009F18E835F82CE20DF2081E0CD2809F462
:1022500080E088870E94F31E8160782F9A878987A3
:102260004E815F8168858A850E948011000F111F51
:10227000F801EB5AFE4F80819181E826F926F18220
:10228000E08205C001968E30910579F6C1CF0E949B
:1022900080210E94E00F909154018917D9F00E948B
:1022A000E00F809354012A960FB6F894DEBF0FBE5C
:1022B000CDBFDF91CF911F910F91FF90EF90DF90F5
:1022C000CF90BF90AF909F908F907F906F905F90D6
:1022D0000C949B102A960FB6F894DEBF0FBECDBFAC
:1022E000DF91CF911F910F91FF90EF90DF90CF90F2
:1022F000BF90AF909F908F907F906F905F90089568
:10230000CF93DF93CDB7DEB72B970FB6F894DEBF30
:102310000FBECDBF4F83588769877A878B87DE01D1
:10232000119686E0FD0111928A95E9F785E0FE019C
:10233000379601900D928A95E1F70E94851B8823BC
:1023400019F082E00E947F1C0E94581B81110E949C
:10235000091C49815A816B817C818D819E810E94FB
:1023600056182B960FB6F894DEBF0FBECDBFDF9187
:10237000CF910895FC01808191810E942A1B0895CC
:10238000CF93882309F4D0C0C82F8CEF8C0F813AEB
:1023900068F48C2F0E9404268111C6C06C2F809196
:1023A0000001909101010E94411E0CC080E28C0F3F
:1023B000883058F4C77081E001C0880FCA95EAF7E9
:1023C0000E94BA1BCF910C94171C8BE58C0F8330A5
:1023D00078F4C53A29F0C63A31F083E890E005C0B8
:1023E00081E890E002C082E890E0CF910C944F1019
:1023F00088E58C0F873108F08FC0C83A09F445C0D2
:10240000C93A09F445C0CA3A09F445C0CB3A09F4BF
:1024100045C0CC3A09F445C0CB3B09F445C0CC3BA0
:1024200009F445C0CD3A09F445C0C03B09F445C0A4
:10243000CE3A09F445C0CF3A09F445C0C13B09F48E
:1024400045C0C23B09F445C0C33B09F445C0C43B89
:1024500009F445C0C53B09F445C0C63B09F445C075
:10246000C73B09F445C0C83B09F445C0C93B09F462
:1024700045C0CD3B09F445C0CE3B09F445C0CA3B3D
:1024800009F445C080E090E044C082EE90E041C095
:1024900089EE90E03EC08AEE90E03BC085EB90E094
:1024A00038C086EB90E035C083EB90E032C084EB1F
:1024B00090E02FC087EB90E02CC08CEC90E029C01E
:1024C0008DEC90E026C083E891E023C08AE891E09B
:1024D00020C082E991E01DC084E991E01AC081E248
:1024E00092E017C083E292E014C084E292E011C04F
:1024F00085E292E00EC086E292E00BC087E292E0B5
:1025000008C08FE690E005C080E790E002C08AE254
:1025100092E0CF910C946510C03F30F08C2F0E9458
:102520000620CF910C94F320CF910895882389F150
:102530009CEF980F913A40F4682F809100019091A0
:1025400001010E944C1E0DC090E2980F983058F483
:10255000877091E001C0990F8A95EAF7892F0E9450
:10256000C01B0C94171C9BE5980F933020F480E05F
:1025700090E00C944F1098E5980F973120F480E08C
:1025800090E00C946510803F20F00E946E200C9427
:10259000F3200895CF93C82F0E94C011C93349F486
:1025A0002FEF87EE93E0215080409040E1F700C08C
:1025B00000008C2FCF910C949612882321F00E945A
:1025C000BA1B0C94171C0895882321F00E94C01B8D
:1025D0000C94171C0895CF92DF92EF92FF920F9305
:1025E0001F93CF93DF937C01062FC72FFC0115812A
:1025F00012951F70D281D1110E94DA1B0E94B01B6C
:10260000882379F0DD2369F080E2800F883048F07C
:1026100082E00E947F1C0E94B01B91E0D82ED92638
:1026200001C0D12CCC2EC2948FE0C8228C2D90E01A
:10263000FC01EA5AFF4F0C945D2F8C2F807FCF70E6
:10264000882311F0C295C07FDD2399F0CC2309F4D3
:10265000C4C180E2800F883010F0011104C08C2FBB
:102660000E94BA1B03C08C2F0E94CD1B0E94171C16
:10267000B4C1802F0E949612CC2309F4D3C180E20A
:10268000800F883010F0011104C08C2F0E94C01BF5
:1026900003C08C2F0E94D31B0E94171CC3C18C2F18
:1026A000807FCF70803211F0C295C07F002319F077
:1026B0000130C9F022C0DD2371F0112341F0113047
:1026C00031F40E94ED1B8C2B0E94F51BABC10E94C4
:1026D000ED1B8C2B1DC0112319F0113009F4A2C180
:1026E0000E94091C25C0DD2321F0163008F09AC194
:1026F0000EC0153008F096C11BC0DD2361F0112318
:1027000031F0F701858180FF68C18F7085838C2F40
:102710000E94DD1287C1112359F0093309F06EC1FF
:10272000FFEF27EE83E0F15020408040E1F764C1E5
:102730008C2F0E94E41276C18C2F8695869583702B
:1027400019F0813061F06EC1DD2321F0802F9C2FC4
:10275000937002C080E090E00E944F106BC1DD23B7
:1027600021F0802F9C2F937002C080E090E00E94A7
:10277000651060C1DD23F9F0053F51F0063F71F0AF
:10278000043FA9F480913B0290913C0281600BC010
:1027900080913B0290913C02826005C080913B0297
:1027A00090913C02846090933C0280933B02802F86
:1027B0000E9406201EC0053F51F0063F71F0043F05
:1027C000A9F480913B0290913C028E7F0BC08091D6
:1027D0003B0290913C028D7F05C080913B0290911D
:1027E0003C028B7F90933C0280933B02802F0E949F
:1027F0006E200E94F3201EC18C2F837009F045C00B
:10280000D11114C1402F429546954770440F440F93
:10281000602F6F70862F90E0A0E0B0E0042E04C01F
:10282000880F991FAA1FBB1F0A94D2F704FF10C07C
:102830000FE010E020E030E004C0000F111F221F65
:10284000331F4A95D2F7009510952095309503C017
:1028500000E010E09801C695C695C370BC01CD019B
:10286000602B712B822B932BC23049F058F4C1306E
:1028700019F00E94A719DAC00E949519D7C00E94CA
:10288000B919D4C00E949319D1C0DD2319F08C2F3F
:10289000817001C08695882309F4C8C0402F4295F5
:1028A00046954770440F440F602F6F70862F90E05D
:1028B000A0E0B0E0042E04C0880F991FAA1FBB1F20
:1028C0000A94D2F704FF10C00FE010E020E030E0DF
:1028D00004C0000F111F221F331F4A95D2F7009525
:1028E00010952095309503C000E010E09801C69542
:1028F000C695C370BC01CD01602B712B822B932B2D
:10290000C23049F058F4C13019F00E946C1A8EC0E0
:102910000E945A1A8BC00E947E1A88C00E94CD194C
:1029200085C0CF70DD2339F08C2F0E94F319802FE2
:102930000E94DD127BC0802F0E94E4128C2F0E9427
:10294000141A74C0023F01F128F4003F41F0013F26
:10295000A1F03FC0033FF9F0043F39F13AC0DD2355
:1029600041F0153008F05EC08C2F8F710E94391A2B
:1029700059C0163008F056C0F7CFDD2339F08C2F40
:102980008F710E94F3194EC0DD23C9F38C2F8F7114
:102990000E94141A47C0DD2329F08C2F8F710E94EA
:1029A000DE1940C00E94D9193DC0DD2349F0CF7126
:1029B0008C2F0E94F31963E08C2F0E94601C32C0A0
:1029C00081E00E947F1C123068F182E00E947F1C2F
:1029D00029C0DD2331F0112391F2802F0E94C01114
:1029E00021C0112399F2093349F49FEFE7EEF3E098
:1029F0009150E040F040E1F700C00000802F0E94BD
:102A0000961210C04C2F4F70602FC7010E94920B7E
:102A10000E9404190FC04C2F4F70602FC7010E94F5
:102A2000950B08C088EF8C0D843020F40E94E00FD5
:102A30000E94BE09DD20C9F00E94811B80FD15C0E7
:102A4000F70112820E947B1B0E94F319C7010E94AA
:102A50003E150E947B1BDF91CF911F910F91FF903C
:102A6000EF90DF90CF900C94141ADF91CF911F91CB
:102A70000F91FF90EF90DF90CF9008950F931F93E9
:102A8000CF93DF93EC01988189812B813C81232BAB
:102A900031F08F3F31F481E09F3F19F403C081E0B2
:102AA00001C080E080FD13C0CE010E94D6098823BA
:102AB00071F0688179818A810E94351B8C010E94A6
:102AC000901A0E948119B801CE010E94EB12DF9189
:102AD000CF911F910F9108950E94DA1B0E94EA1B6B
:102AE0000E94171C0E941B220E94F32080E090E0AD
:102AF0000E944F1080E090E00C94651080910001DE
:102B0000909101010E94571E0C946C150E94CA1BE3
:102B10000C947E15E92FE295EF704E2F50E0FA01EC
:102B20003297EE30F105B0F4EA59FF4F0C945D2F67
:102B3000803F91F018F4883E68F40EC0843F51F451
:102B40000BC0883E48F0813F29F406C093FB8827DC
:102B500080F9089580E0089581E008950E942A1B7D
:102B60000E948A150895CF93DF9300D000D01F9262
:102B7000CDB7DEB70F900F900F900F900F90DF91B1
:102B8000CF910895CF93DF9300D000D000D0CDB780
:102B9000DEB726960FB6F894DEBF0FBECDBFDF912D
:102BA000CF9108951F93CF93DF93C091620116E0F8
:102BB00080916301C81799F0D0E01C9FF0011D9F20
:102BC000F00D1124EC59FE4F4081518162817381D7
:102BD000848195810E94C2152196C770E9CFDF914B
:102BE000CF911F910895409194015091950160916A
:102BF00096017091970180919801909199010C94A0
:102C0000C215CF938091990182958F7009F05FC0B2
:102C100080919601882309F45AC080916201B09195
:102C2000630170919401A091950140919701509199
:102C3000980191E07F3F09F090E0692FC6E08B1783
:102C400009F445C04115510521F0AF3F21F020E0C6
:102C500003C021E001C0262F90E020FD35C0C89FB1
:102C6000F001C99FF00D1124EC59FE4F21812A1368
:102C70002BC02081271328C02281211125C0238148
:102C800034812417350710F421503109241B350BEA
:102C9000283C3105C8F4209199012F7020612093C0
:102CA000990126E0289FF001299FF00D1124E75992
:102CB000FE4F80818F708061808384E991E00E9463
:102CC0003E15CF910C94D21501968770B8CFCF9155
:102CD0000895AF92BF92CF92DF92EF92FF920F933F
:102CE0001F93CF93DF93CDB7DEB761970FB6F894FC
:102CF000DEBF0FBECDBF8C0185E0F801DE011D9661
:102D000001900D928A95E1F7D8014C9111965C9152
:102D100011971296EC9030919401609195018091F9
:102D2000970190919801009731F06F3F31F421E0C5
:102D30003F3F19F403C021E001C020E0B22FB17081
:102D4000BB2E20FD60C1F801C380D480A090960105
:102D5000AA2009F4EEC020919901C816D90628F0DE
:102D6000D601A81BB90BCD0104C0809590958C0DA0
:102D70009D1DFF24F394883C910580F0F12C207F69
:102D800009F09CC07C2DD98AC88A6E2D89890E9441
:102D9000B31584E991E00E943E152DC1822F807FFA
:102DA00009F054C0561314C0431312C0FE2CE11096
:102DB0000FC02F702061209399010E94F31584E9C0
:102DC00091E00E943E1580919901F80185835CC1D4
:102DD000CD2831F05F3F31F481E04F3F19F403C05B
:102DE00081E001C080E080FD03C081E08E2502C04B
:102DF00080E090E0F82FF170FF2E80FF1CC08091E2
:102E000062012091630136E0821709F41AC190E053
:102E1000389FF001399FF00D1124EC59FE4F61816C
:102E2000561306C06081461303C06281E61203C0D8
:102E300001968770E9CFFE2CEE2009F425C1809120
:102E40009901816080939901F12C1EC1561309C02C
:102E5000431307C0E11005C080919901F8018583F3
:102E6000A4C04D875E878D859E850E94AE15882300
:102E700079F1EE2069F120919901822F82958F706E
:102E800090E0029774F08091940190919501988759
:102E90008F831986DB86CA862C87CE0107960E940F
:102EA0003E1586E0F801A4E9B1E001900D928A9503
:102EB000E1F70E9401160E94F3150DC0561771F03C
:102EC0004D875E878D859E850E94AE1581111AC043
:102ED000C8010E943E15FF24F394D6C04313F0CFDF
:102EE000E110EECF80919901F8018583C8010E941D
:102EF0003E1586E0E4E9F1E0DF011D928A95E9F7ED
:102F0000FA2CC2C0EE2021F320919901822F8295E4
:102F10008F7090E002972CF280919401909195012E
:102F20009A8389831B82DD82CC822E83CE01019617
:102F3000B6CFC816D90628F0F601E81BF90BCF0169
:102F400004C0809590958C0D9D1D883C910548F09E
:102F5000F12C7C2DD98AC88A6E2D89890E94B315DF
:102F60004AC0FE2CEE2009F4B3CF561333C04313EE
:102F700031C02091990120FD24C0822F82958F704D
:102F8000482F50E041155105E1F0D80115962C93DA
:102F900015974F30510549F08F5F982F9295907F8C
:102FA000822F8F70892B15968C93C8010E943E1535
:102FB00086E0F801A4E9B1E001900D928A95E1F76D
:102FC0003DC086E0F801A4E9B1E001900D928A9538
:102FD000E1F75AC04D875E878D859E850E94AE15AC
:102FE00081115FCF80919901816080939901C8011F
:102FF0000E943E1549C0E4E9F1E086E0DF011D9240
:103000008A95E9F71BC0EE2009F462CF4D875E87F1
:103010008D859E850E94AE15F82E882309F458CF21
:1030200086E0F801A4E9B1E001900D928A95E1F7FC
:1030300084E991E00E94BA110E9401160E94F315E2
:1030400023C04D875E878D859E850E942A1B292F70
:1030500022952F70223028F49F7039F0811105C01D
:103060000BC0243028F49F7049F4805E883020F033
:10307000C8010E943E15BF2CFB2C06C0D801159636
:103080009C91907F91F7F8CF8F2D61960FB6F894B1
:10309000DEBF0FBECDBFDF91CF911F910F91FF908B
:1030A000EF90DF90CF90BF90AF9008951F93CF9394
:1030B000DF93CDB7DEB72C970FB6F894DEBF0FBE07
:1030C000CDBF4F83588769877A878B879C87CE01CE
:1030D00007960E9469168823D1F09F8188852A85EA
:1030E0003B85232B31F08F3F31F481E09F3F19F472
:1030F00003C081E001C080E080FD47C04F8158855A
:1031000069857A858B859C850E94C2153EC086E0C4
:10311000FE013796DE01119601900D928A95E1F736
:10312000FF81E8856A857B856115710531F0EF3F88
:1031300031F481E0FF3F19F403C081E001C080E079
:1031400080FD23C02091630130E0C90101968770A2
:1031500099274091620150E084179507F1F1F983B6
:10316000EA837D836C8396E0929FD001939FB00D9C
:103170001124AC59BE4FFE01319601900D929A95E3
:10318000E1F7809363010E94D21516E080916201FD
:1031900090916301891771F1189FC00111248C5916
:1031A0009E4F0E946916882329F1E09162011E9FBB
:1031B000F0011124EC59FE4F4081518162817381ED
:1031C000848195810E94C2158091620190E00196F0
:1031D0008770992780936201D9CF0E94861510923B
:1031E000630110926201E4E9F1E086E0DF011D92E3
:1031F0008A95E9F72C960FB6F894DEBF0FBECDBFC7
:10320000DF91CF911F910895EF92FF920F931F933B
:10321000CF93DF938C01892B09F46CC0F12CEE2441
:10322000E394E8012196F8018491843740F48430D6
:1032300008F051C0813081F0823019F15BC08537D0
:1032400009F444C0A8F19CE7980F903708F052C0E9
:103250008F770E94961241C00E5F1F4FFE0184912E
:1032600090E2980F983050F48770FE2D01C0FF0F48
:103270008A95EAF78F2F0E94DD1B14C00E94C011AF
:103280002DC00E5F1F4FFE01849190E2980F983081
:1032900060F48770FE2D01C0FF0F8A95EAF78F2F2B
:1032A0000E94E31B0E94171C19C00E94961216C0B0
:1032B0000E5F1F4FFE01C491CC2381F08FE99FE088
:1032C0000197F1F700C00000C150F6CF0E5F1F4F0D
:1032D000FE01F49003C00E94C0118E018F2D88233F
:1032E00009F49FCFEFE9FFE03197F1F700C000004C
:1032F0008150F5CFDF91CF911F910F91FF90EF900B
:103300000895089508950C9482190C9483190E94CD
:1033100085196093D5017093D6018093D70190935E
:10332000D8010C946C150C9487190F931F9300917E
:10333000D5011091D6012091D7013091D801602B91
:10334000712B822B932B1F910F910C9487190F9344
:103350001F930091D5011091D6012091D701309192
:10336000D80160237123822393231F910F910C9422
:1033700087190F931F930091D5011091D6012091C9
:10338000D7013091D80160277127822793271F9199
:103390000F910C9487190C9482190E94CB19609399
:1033A000D1017093D2018093D3019093D4010C94F6
:1033B0006C1560E070E0CB010C94CD190F931F9356
:1033C00041E050E060E070E08A019B0104C0000F22
:1033D000111F221F331F8A95D2F7C901B8011F910F
:1033E0000F910C94CD190F931F9341E050E060E0D2
:1033F00070E004C0440F551F661F771F8A95D2F7EF
:103400008091D1019091D201A091D301B091D401CA
:103410008A019B01082B192B2A2B3B2BC901B801D0
:103420001F910F910C94CD190F931F9341E050E021
:1034300060E070E004C0440F551F661F771F8A9537
:10344000D2F740955095609570958091D1019091FB
:10345000D201A091D301B091D4018A019B0108232C
:1034600019232A233B23C901B8011F910F910C9402
:10347000CD190F931F9341E050E060E070E004C06D
:10348000440F551F661F771F8A95D2F78091D1018F
:103490009091D201A091D301B091D4018A019B01F6
:1034A000082719272A273B27C901B8011F910F9127
:1034B0000C94CD190F931F930091D1011091D2015B
:1034C0002091D3013091D401602B712B822B932B4F
:1034D0001F910F910C94CD190F931F930091D1015F
:1034E0001091D2012091D3013091D4016023712336
:1034F000822393231F910F910C94CD190F931F9347
:103500000091D1011091D2012091D3013091D401C9
:1035100060277127822793271F910F910C94CD1953
:1035200008952EE0929F800D1124E82FE695E695F0
:10353000E695877051E001C0550F8A95EAF785E05E
:10354000E89FF0011124E656FE4F20E030E070E0E5
:103550004081CB01022E02C0969587950A94E2F72E
:103560008170819584278523842781932F5F3F4F26
:103570002530310569F708952EE0929F800D1124C2
:10358000682F669566956695982F977085E0689F79
:10359000B001112440E050E080E0FB01E40FF51F92
:1035A000E656FE4F208130E0092E02C03695279561
:1035B0000A94E2F721703327042E01C0220F0A94E7
:1035C000EAF7822B4F5F5F4F4530510531F7089581
:1035D000BF92CF92DF92EF92FF920F931F93CF9300
:1035E000DF938C01C090D101D090D201E090D30143
:1035F000F090D4018091D5019091D601A091D7018E
:10360000B091D801C82AD92AEA2AFB2ACFE1D0E012
:10361000D701C6010C2E04C0B695A795979587953E
:103620000A94D2F780FD04C0219790F7B12C07C00F
:10363000BC2EB8018C2F0E94B10B0197A9F38B2DE2
:10364000DF91CF911F910F91FF90EF90DF90CF907E
:10365000BF900895CF93DF93EC010E94E81ABE015A
:103660000E94B10BDF91CF9108951F93CF93DF9309
:10367000EB0190916101992321F0CB010E942A1B5B
:1036800013C0882349F0CB010E94E81A182F682F35
:10369000CE010E94911A04C0CB010E94BC1A182FBF
:1036A000BE01812F0E94B10BDF91CF911F91089530
:1036B0000E94F31E2091DC013091DD0182179307F7
:1036C00050F00E94F31E2091DC013091DD01821B3D
:1036D000930B9C010AC00E94F31E2091DC013091E3
:1036E000DD0120953095280F391F81E0243F3140BE
:1036F00008F480E008958091DB0185958595859596
:1037000008958091DB01877008950E94F31E209137
:10371000D9013091DA0182179307A8F00E94F31EB5
:103720002091D9013091DA01821B930B843F9140A3
:1037300010F480E013C08091DB0182FB882780F9C0
:1037400091E089270BC00E94F31E2091D90130918E
:10375000DA0120953095820F931FE8CF817008958C
:103760009091DB01977081E009F480E008958091E9
:103770000102089590910102892B8093010208951E
:10378000809590910102892380930102089580938E
:103790000102089510920102089590910002892B70
:1037A0008093000208958095909100028923809370
:1037B000000208951092000208959091FF01892B54
:1037C0008093FF01089580959091FF018923809354
:1037D000FF0108951092FF0108958091DE01089580
:1037E00008950C94F01B0C94F11BCF939091DE0183
:1037F000981769F0C82F0E94F31E9093DD01809303
:10380000DC01C093DE018C2FCF910C94F31BCF9180
:1038100008958091DE01882349F01092DE01109214
:10382000DD011092DC0180E00C94F31B0895E0911F
:103830000001F0910101809101028083E09100017B
:10384000F0910101908180910002892B8083E091A9
:103850000001F091010190818091FF01892B80830B
:103860008091DE01882321F10E94581B882371F08A
:103870008091020280FF08C089EE92E09F938F93AF
:103880000E94F2070F900F900E94091CE091000126
:10389000F091010190818091DE01892B80838091DC
:1038A0000001909101010E94B91D81110E94091C23
:1038B00080910001909101010C94EC0F0C94F01B8D
:1038C00098E0899F90011124262B2093DB010E9410
:1038D000F3190E94F31E9093DA018093D90180912D
:1038E000DB018595859585950C945E1C1092DB0116
:1038F0001092DA011092D90180E00C945E1C2091A4
:10390000DB01809582238093DB01982F977079F4F7
:1039100030E0482F082E000C550B2417350739F0DE
:103920008595859585950E94141A0C94761C0895AA
:1039300090932D0180932C010895CF92DF92EF9206
:10394000FF926C01EE24FF24C114D104E104F104C0
:1039500021F0C701B60120E101C020E0C72ED82E1A
:10396000E92EFF24C114D104E104F10419F0285F09
:10397000C701B6016B017C0154E0F694E794D7943B
:10398000C7945A95D1F7C114D104E104F10419F098
:103990002C5FC701B6016B017C0142E0F694E7940D
:1039A000D794C7944A95D1F7C114D104E104F10426
:1039B00019F02E5FC701B601DC01CB01B695A795C2
:1039C00097958795892B8A2B8B2B09F02F5F822F58
:1039D000FF90EF90DF90CF9008958295982F93738A
:1039E00044E0949F900111248C7C86958695282B29
:1039F000822F8575880F2A7A2695822B0895CF937A
:103A0000DF93D92F0E94ED1CC82F8D2F0E94ED1C33
:103A10002C2F30E0322F2227A901482BCA01DF9139
:103A2000CF91089580E090E00E947F2F21E08C3EAE
:103A30009E4F09F020E0822F089582E090E00C94E0
:103A4000772F83E090E00C94772FCF9384E090E081
:103A50000E94772FC82F81E290E00E94772F2C2FB1
:103A600030E0A901582BCA01CF910895CF93C92FF7
:103A7000682F84E090E00E94852F6C2F81E290E017
:103A8000CF910C94852FAB01BC018FE090E00C949A
:103A9000972FAB01BC0183E190E00C94972F60E07D
:103AA00070E0CB010C94491D60E070E0CB010E94F6
:103AB000431D0C944F1D6CEE7EEF80E090E00E9461
:103AC000A32F60E082E090E00E94852F60E083E019
:103AD00090E00E94852F1092D5011092D60110928D
:103AE000D7011092D80160E084E090E00E94852F19
:103AF00060E081E290E00E94852F60E085E090E048
:103B00000E94852F60E086E090E00E94852F6FEF95
:103B100087E090E00E94852F40E050E0BA0188E005
:103B200090E00E94972F60E08DE090E00E94852F4A
:103B300040E050E0BA0188E190E00E94972F60E0F9
:103B400087E190E00E94852F40E050E0BA018CE1CF
:103B500090E00E94972F60E080E290E00E94852F25
:103B60000C94541D0C945B1D682F8EE090E00C9417
:103B7000852FFC01329680911201882331F08091CB
:103B8000410287FF02C09EE101C096E080E09150B3
:103B900028F021912223D9F38F5FF9CF08959C015A
:103BA000FC0132969FEF80E04191461789F09F3FDC
:103BB00019F4411101C0982F8F5F8630A9F79F3FFC
:103BC00039F0F901E90FF11D97FDFA956283089527
:103BD00008959C012A5F3F4FFC014281461301C0BA
:103BE0001282019682179307B9F70895262F26951A
:103BF000269526952E3170F4FC01E20FF11D6770B9
:103C000021E030E001C0220F6A95EAF78281282B7B
:103C1000228308958091020280FF0CC01F926F934F
:103C200089E193E09F938F930E94F2070F900F908A
:103C30000F900F900895262F2695269526952E31C4
:103C400078F4FC01E20FF11D677021E030E001C063
:103C5000220F6A95EAF7209582812823228308950E
:103C60008091020280FF0CC01F926F938BEF92E055
:103C70009F938F930E94F2070F900F900F900F90D9
:103C8000089520911201222329F02091410227FD5D
:103C90000C94F61D0C94CF1D20911201222329F0C3
:103CA0002091410227FD0C941B1E0C94E91D2091CC
:103CB0001201FC013296222331F08091410287FFEC
:103CC00002C08EE101C086E0DF011D928A95E9F70E
:103CD000089508950C94691E0C94691ECF930E9458
:103CE0006C1E0E9402080E946A1EC0E08C2F0E9477
:103CF0005308892B29F4CF5FC630C1F780E001C09B
:103D000081E0CF9108950C94691E0C94831E0E944B
:103D1000851E80914702843049F11092030220E40D
:103D200088E190E00FB6F894A895809360000FBEEC
:103D30002093600080E00E94BE090E94851E83B728
:103D4000817F846083BF83B7816083BF78948895C7
:103D500083B78E7F83BF0FB6F894A89580916000DB
:103D6000886180936000109260000FBE08950C94EB
:103D7000691E0E9486150E94E00F0E94BE090C94E5
:103D8000B71E1F920F920FB60F9211248F939F931D
:103D9000AF93BF9380910302811113C080913D02C4
:103DA00090913E02A0913F02B09140024196A11D28
:103DB000B11D80933D0290933E02A0933F02B093C9
:103DC0004002BF91AF919F918F910F900FBE0F90C6
:103DD0001F90189582E084BD93E095BD9AEF97BD42
:103DE00080936E0008952FB7F89480913D029091D2
:103DF0003E02A0913F02B09140022FBF08952FB71D
:103E0000F89460913D0270913E0280913F02909142
:103E100040022FBF0895CF92DF92EF92FF920F934F
:103E20001F932FB7F89440913D0250913E0260914C
:103E30003F02709140022FBF6A017B01EE24FF24F4
:103E40008C0120E030E0C016D106E206F30610F443
:103E5000415051099A01281B390BC9011F910F913B
:103E6000FF90EF90DF90CF90089578941F920F927B
:103E70000FB60F9211248F939F93AF93BF938091AE
:103E80003D0290913E02A0913F02B0914002019606
:103E9000A11DB11D80933D0290933E02A0933F026D
:103EA000B0934002BF91AF919F918F910F900FBE41
:103EB0000F901F90189587E797E7909301088093DC
:103EC00000089AE088E10FB6F894A8958093600006
:103ED0000FBE90936000FFCF0E94121D811102C09F
:103EE0000E94B21D0E941D1D809302020E94251D8A
:103EF00090934202809341020E94211D682F70E03E
:103F000080E090E00C9493198091070280FF0BC031
:103F10006091050185E0689FB00111247595679552
:103F2000759567952BC081FF09C06091050185E0FB
:103F3000689FB00111247595679520C082FF07C066
:103F40006091050185E0689FB001112417C0909130
:103F500006029923D1F060910401961788F7209109
:103F6000050185E0289F90011124929FA001939F55
:103F7000500D112470E0CA010E94492F603871056C
:103F800040F46115710519F406C065E070E0862FF4
:103F900008958FE7089581E008958091070280FFDA
:103FA00008C06091030170E07595679575956795F8
:103FB00021C081FF06C06091030170E0759567958F
:103FC00019C082FF04C06091030170E010C090919D
:103FD0000602992399F0609102019617A0F780914B
:103FE0000301899FC001112470E00E94492F6038AD
:103FF000710540F46115710519F406C061E070E0C7
:10400000862F08958FE7089581E00895803F21F479
:104010000E94841F819504C0813F29F40E94841F5F
:1040200080930B020895823F21F40E94841F8195A2
:1040300004C0833F29F40E94841F80930A020895DC
:10404000893F19F40E94CD1F05C08A3F31F40E94B8
:10405000CD1F819580930C0208958B3F21F40E941F
:10406000CD1F819504C08C3F29F40E94CD1F809301
:104070000D020895843F21F480910902816017C0E8
:10408000853F21F480910902826011C0863F21F4AE
:104090008091090284600BC0873F21F4809109025E
:1040A000886005C0883F31F4809109028061809367
:1040B000090208958D3F21F48091070281600BC0B1
:1040C0008E3F21F480910702826005C08F3F29F462
:1040D000809107028460809307020895803F39F43D
:1040E00080910B0287FF6CC010920B0269C0813F68
:1040F00029F480910B021816BCF362C090910A0259
:10410000823F29F497FF5CC010920A0259C0833F96
:1041100019F41916CCF354C0893F41F480910C0274
:1041200018160CF04DC010920C024AC08A3F29F4B8
:1041300080910C0287FF44C0F6CF8B3F39F4809109
:104140000D0287FF3DC010920D023AC08C3F29F44A
:1041500080910D021816BCF333C0843F21F4809186
:1041600009028E7F17C0853F21F4809109028D7F5F
:1041700011C0863F21F4809109028B7F0BC0873FDD
:1041800021F480910902877F05C0883F31F4809136
:1041900009028F7E8093090213C08D3F21F4809124
:1041A00007028E7F0BC08E3F21F4809107028D7F26
:1041B00005C08F3F29F4809107028B7F809307020F
:1041C00080910A0281110EC080910B0281110AC0F8
:1041D00080910C02811106C080910D02811102C0F4
:1041E0001092060208958091020283FF7EC08EE540
:1041F00093E00E945907809109021F928F9389E5ED
:1042000093E09F938F930E94F20787E593E00E94CB
:10421000590780910A02282F082E000C330B3F9378
:104220008F9384E593E09F938F930E94F20782E53A
:1042300093E00E94590780910B02282F082E000C52
:10424000330B3F938F938FE493E09F938F930E9460
:10425000F2078DE493E00E94590780910C02282F09
:10426000082E000C330B3F938F938AE493E09F93C7
:104270008F930E94F20788E493E00E94590780918F
:104280000D02282F082E000C330B3F938F9385E4EB
:1042900093E09F938F930E94F20782E493E00E9441
:1042A0005907809106021F928F938FE393E09F93AB
:1042B0008F930E94F2078DE393E00E94590780914B
:1042C00007021F928F938AE393E09F938F930E943C
:1042D000F20787E393E00E9459078DB79EB74C968B
:1042E0000FB6F8949EBF0FBE8DBF88E092E00E948B
:1042F00041100E94F31E90930502809304020895DA
:104300001F93CF93DF9380910402909105020E9446
:104310000B1FAC0190910602992321F02091060118
:1043200030E006C0209107018AE0289F9001112407
:104330004217530708F47BC080910A02C0910B0218
:10434000D0910C0210910D02811107C0C1116BC0F8
:10435000D11169C0111167C06AC09F3F19F09F5FFA
:1043600090930602181624F40E94841F80930A0278
:1043700080910A0287FF05C00E94841F8195809367
:104380000A021C1624F40E94841F80930B02809161
:104390000B0287FF05C00E94841F819580930B024A
:1043A00030910A023323E1F020910B022223C1F065
:1043B00045EB3403C0011124992319F090930A02AC
:1043C00003C081E080930A0235EB2303C00111246E
:1043D000992319F090930B0203C081E080930B02A4
:1043E0001D1624F40E94CD1F80930C0280910C02B4
:1043F00087FF05C00E94CD1F819580930C02111686
:1044000024F40E94CD1F80930D0280910D0287FF3E
:1044100005C00E94CD1F819580930D02DF91CF9141
:104420001F910C94F3209F3F09F099CFAACFDF9101
:10443000CF911F910895E8E0F2E086E0DF011D9240
:104440008A95E9F71092060210920702089581E812
:1044500095E00E9459071F9281E08F931F9285E09B
:104460008F9383E395E09F938F930E94F2070F90C1
:104470000F900F900F900F900F9008958330E9F1F7
:1044800028F4813061F0823009F10895853009F413
:1044900062C008F449C0863009F474C00895809160
:1044A0000701262F30E0280F311D2F3F310524F45E
:1044B000680F6093070103C08FEF8093070180911D
:1044C00007011F928F938CE694E072C080910601E1
:1044D000262F30E0280F311D2F3F310524F4680FBF
:1044E0006093060103C08FEF80930601809106015F
:1044F0001F928F938AE594E05BC080910501262F7F
:1045000030E0280F311D2F3F310524F4680F6093F0
:10451000050103C08FEF80930501809105011F9273
:104520008F9387E494E044C080910401262F30E00B
:10453000280F311D2F3F310524F4680F60930401CB
:1045400003C08FEF80930401809104011F928F9329
:1045500082E394E02DC080910301262F30E0280FE4
:10456000311D2F3F310524F4680F6093030103C010
:104570008FEF80930301809103011F928F9389E154
:1045800094E016C080910201262F30E0280F311DE3
:104590002F3F310524F4680F6093020103C08FEFB1
:1045A00080930201809102011F928F938EEF93E01E
:1045B0009F938F930E94F2070F900F900F900F9090
:1045C0000895833081F128F4813059F08230D1F0A0
:1045D0000895853009F449C0B8F1863009F456C011
:1045E000089580910701681720F4861B80930701C6
:1045F00002C010920701809107011F928F938FEEE6
:1046000093E054C080910601681720F4861B8093C4
:10461000060102C010920601809106011F928F933D
:104620008DED93E043C080910501681720F4861B4F
:104630008093050102C010920501809105011F922F
:104640008F938AEC93E032C080910401681720F4C4
:10465000861B8093040102C0109204018091040122
:104660001F928F9385EB93E021C08091030168171F
:1046700020F4861B8093030102C0109203018091F5
:1046800003011F928F938CE993E010C08091020187
:10469000681720F4861B8093020102C01092020169
:1046A000809102011F928F9381E893E09F938F93F3
:1046B0000E94F2070F900F900F900F900895CF93E4
:1046C000C82F1F928F9386E896E09F938F930E9446
:1046D000F20781E090E0A0E0B0E0BC01CD0104C0B1
:1046E000660F771F881F991FCA95D2F70E949319EA
:1046F0000F900F900F900F90CF910C948615CF9341
:10470000DF93482F50E0FA013597EF33F10508F0B9
:1047100063C2EC58FF4F0C945D2F89E19CE00E942E
:10472000590785E59BE00E9459070E94211D1F92B1
:104730008F9382E59BE09F938F930E94F20780E521
:104740009BE00E9459070E941D1DC82F8DE39BE02E
:104750000E9459071F92CF9388E39BE09F938F930A
:104760000E94F20786E39BE00E9459078CE29BE0DF
:104770000E9459078C2F81701F928F9389E29BE0D2
:104780009F938F930E94F20787E29BE00E94590754
:104790008DE19BE00E945907C1FB882780F91F9299
:1047A0008F938AE19BE09F938F930E94F20788E1A9
:1047B0009BE00E9459078CE09BE00E945907C2FBD6
:1047C000882780F91F928F9389E09BE09F938F93B6
:1047D0000E94F20787E09BE00E9459078EEF9AE063
:1047E0000E945907C3FBCC27C0F91F92CF938BEFD0
:1047F0009AE09F938F930E94F20789EF9AE00E94BC
:1048000059070E94251DEC0185EE9AE00E94590788
:10481000DF93CF9380EE9AE09F938F930E94F207ED
:104820008EED9AE00E94590785EC9AE00E945907A4
:104830008C2F81701F928F9382EC9AE09F938F93BD
:104840000E94F2078DB79EB780960FB6F8949EBF70
:104850000FBE8DBF80EC9AE00E94590789EA9AE06A
:104860000E945907C1FB882780F91F928F9386EA1F
:104870009AE09F938F930E94F20784EA9AE00E9445
:10488000590782E99AE00E9459078D2F81701F9283
:104890008F938FE89AE09F938F930E94F2078DE8A1
:1048A0009AE00E9459078BE79AE00E945907D69533
:1048B000D1701F92DF9388E79AE09F938F930E94B5
:1048C000F20786E79AE00E94590784E69AE00E9480
:1048D0005907C2FB882780F91F928F9381E69AE0DF
:1048E0009F938F930E94F2078FE59AE00E945907E9
:1048F0008DE49AE00E945907C3FB882780F91F9234
:104900008F938AE49AE09F938F930E94F20788E442
:104910009AE00E9459078EE39AE00E945907C4FB6F
:10492000882780F91F928F938BE39AE09F938F9350
:104930000E94F20789E39AE00E94590787E29AE011
:104940000E945907C5FB882780F91F928F9384E244
:104950009AE09F938F930E94F20782E29AE00E946E
:10496000590786E09AE00E945907C6FB882780F91C
:104970001F928F9383E09AE09F938F930E94F20798
:104980008DB79EB780960FB6F8949EBF0FBE8DBFB1
:1049900081E09AE00E94590789EF99E00E94590747
:1049A000C7FBCC27C0F91F92CF9386EF99E09F9366
:1049B0008F930E94F20784EF99E00E9459070F90AD
:1049C0000F900F900F9006C088E09CE00E9459075E
:1049D0000E94B21DC1E005C182E498E07FC08091D1
:1049E0000202817F8E7F809302028BE198E00E9419
:1049F000590784E09CE00E94590781E080930F02F0
:104A0000E9CF0E94861588EE9BE00E9459079FEF30
:104A100023ED80E3915020408040E1F700C000008A
:104A20000E945B1FD7CF80910202C82FC095C17032
:104A3000C0FB80F980930202CC2319F08CED9BE03F
:104A4000BDC08FEC9BE00E94590780910202897FD4
:104A5000877F80930202BECF9091020291FBCC2708
:104A6000C0F981E0C827892FC0FB81F98093020239
:104A7000CC2319F082EC9BE027C084EB9BE02EC096
:104A80009091020292FBCC27C0F981E0C827892FC0
:104A9000C0FB82F980930202CC2319F085EA9BE0E7
:104AA00013C085E99BE01AC09091020293FBCC27CA
:104AB000C0F981E0C827892FC0FB83F980930202E7
:104AC000CC2351F089E89BE00E94590780910202B3
:104AD00081608093020285C08CE79BE00E945907A9
:104AE00079CF8CE098E00E94590781EE97E00E9410
:104AF00059078BEA97E00E94590782E797E00E94E6
:104B0000590787E397E00E9459078CE097E0E6CFCA
:104B10008EEF96E00E9459070E94E00F1F928F933C
:104B200084EE96E09F938F930E94F207809112018A
:104B30001F928F938DEC96E09F938F930E94F207C4
:104B4000809134021F928F938AEB96E09F938F930C
:104B50000E94F2078091410287FB882780F91F920B
:104B60008F9382EA96E09F938F930E94F2070E94B0
:104B7000FF1E9F938F937F936F938BE896E09F9395
:104B80008F930E94F2078DB79EB746960FB6F894A2
:104B90009EBF0FBE8DBF1ECF0E9486159091410211
:104BA00097FBCC27C0F981E0C827892FC0FB87F984
:104BB00080934102CC2329F082E79BE00E945907B1
:104BC00010C087E69BE08ACF895303C08D5101C096
:104BD00080E00E945F23FECE85E69BE00E9459079D
:104BE000C0E08C2FDF91CF91089580E008950C9460
:104BF000F5258E518A3030F4E82FF0E0ED5EFE4F5F
:104C00008081089580E00895CF93C82F80910F028E
:104C1000813059F020F0823009F445C039C10E943A
:104C2000B71B823209F036C104C00E94B71B823222
:104C300061F48C2F0E94F725811104C08C2F0E94F3
:104C40007F232FC081E090E02CC08C2F0E94F5259F
:104C5000811126C0C431E1F070F4CB3081F0C03155
:104C6000D1F40E9427228EE796E00E94590782E045
:104C700080930F0215C0C93259F0C83361F48BE13B
:104C800098E00E94590782E896E00E94590708C000
:104C900010920F0201C18CE796E00E945907FCC0F8
:104CA00081E08170FBC0C43228F5CE3108F0C1C06C
:104CB000CB30A1F1D0F4C73009F0D0C08EE18093A1
:104CC000070182E3809306018AE08093050184E175
:104CD0008093040188E08093030188E280930201BD
:104CE00082E295E00E945907BCC0C33149F1C4314A
:104CF000C1F0B4C0CB3409F4A6C028F4C93289F09D
:104D0000C83361F0ABC0C13509F49BC0C23509F4AA
:104D100096C0CE3409F0A2C06AE09BC00E94272250
:104D2000A0C080910E02882319F010920E0299C043
:104D30008FE295E00E94590781E080930F02AEC098
:104D400089E095E00E94590787EF94E00E94590797
:104D5000809107011F928F9384EF94E09F938F932C
:104D60000E94F20782EF94E00E94590780EE94E0DF
:104D70000E945907809106011F928F938DED94E058
:104D80009F938F930E94F2078BED94E00E94590746
:104D90008CEC94E00E945907809105011F928F933B
:104DA00089EC94E09F938F930E94F20787EC94E044
:104DB0000E94590786EB94E00E94590780910401F4
:104DC0001F928F9383EB94E09F938F930E94F2073F
:104DD00081EB94E00E9459078CE994E00E94590706
:104DE000809103011F928F9389E994E09F938F93A1
:104DF0000E94F20787E994E00E94590780E894E056
:104E00000E945907809102011F928F938DE794E0D1
:104E10009F938F930E94F2078BE794E00E945907BB
:104E20008DB79EB748960FB6F8949EBF0FBE8DBF44
:104E300018C08C2F0E94F92580930E0212C061E0E9
:104E400003C061E006C06AE080910E020E943E222B
:104E500008C080910E020E94E12203C080E295E02A
:104E600013C080910E02882369F01F928F938AE10C
:104E700095E09F938F930E94F2070F900F900F90F1
:104E80000F9004C087E195E00E94590781E006C0B9
:104E900010920F0280E002C080E003CFCF9108950E
:104EA0008091330208959FB7F894109212029FBF29
:104EB00090914702943009F057C09091E9009F709B
:104EC0003091EC00232F217030FD20E8922B23E05D
:104ED0002093E9002091EB0020FF43C02091EE00D9
:104EE00027FF3FC020911002222321F02091E800EB
:104EF00025FF37C01092100226E03091E80035FD02
:104F000015C030914702343061F53091EB0035FD2A
:104F100028C0215021F481E08093100222C0EFE9E3
:104F2000FFE03197F1F700C00000E7CF8093F10078
:104F30008091E80085FD0AC08091E80080FFFCCFE9
:104F40008091E8008E778093E80006C08FB7F894D0
:104F500021E0209312028FBF9F709093E90080E0C0
:104F600008959F709093E9008FEF08950F931F931A
:104F7000CF93DF9300D01F92CDB7DEB78C010E9494
:104F8000832A823011F0843021F584E089831B83E9
:104F90000A8382E08093E9008FEF9091E8008150CE
:104FA00095FD06C095ED9A95F1F700008111F5CFBA
:104FB0008091E80085FF0DC040E050E063E070E0C4
:104FC000CE0101960E94A02A8091E8008E778093FE
:104FD000E8000F900F900F90DF91CF911F910F91EC
:104FE0000895CF93DF9300D01F92CDB7DEB7209105
:104FF0004702243031F523E02983805891099B83AF
:105000008A8382E08093E9008FEF9091E8008150DD
:1050100095FD06C095ED9A95F1F700008111F5CF49
:105020008091E80085FF0DC040E050E063E070E053
:10503000CE0101960E94A02A8091E8008E7780938D
:10504000E8000F900F900F90DF91CF910895CF93CC
:10505000DF93EC010E94832A823011F08430F9F44E
:1050600082E08093E9008FEF9091E800815095FDF8
:1050700006C095ED9A95F1F700008111F5CF80916A
:10508000E80085FF0CC040E050E066E070E0CE0133
:105090000E94A02A8091E8008E778093E800DF913B
:1050A000CF910895CF93DF93EC010E94832A823041
:1050B00011F08430D9F580911201882339F0809164
:1050C000410287FF03C060E282E002C068E081E045
:1050D0008093E9008FEF9091E800815095FD06C024
:1050E00095ED9A95F1F700008111F5CF8091E800D8
:1050F00085FF1CC080911201811105C040E050E085
:1051000068E070E003C070E040E050E0CE010E9433
:10511000A02A8091E8008E778093E80080E2FE016B
:10512000A3E1B2E001900D928A95E1F7DF91CF9172
:10513000089589E49CE00E945907809146028111FC
:1051400009C00E94312C0E948E2C8091E200846064
:105150008093E200089585E49CE00E945907109234
:105160004602089581E49CE00C9459078DE39CE08D
:105170000C94590789E39CE00E9459070C94B91ECE
:10518000209111022F5F822F62E30E943D2F99230D
:1051900019F02093110208951092110280911202C9
:1051A000882371F180914702843041F58091E900B4
:1051B0008F702091EC00922F917020FD90E8892B48
:1051C00093E09093E9009091EB0090FF14C09091D0
:1051D000EE0097FF10C09091E80095FF03C0109279
:1051E000F100F9CF9091E80090FF05C09091E800A0
:1051F0009E779093E8008F708093E90010921202DE
:10520000089542E061EC81E00E94AA2B42E261EC49
:1052100082E00E94AA2B42E261EC83E00C94AA2B6C
:1052200080914902833009F460C030F4813071F01C
:10523000823009F499C008958A3009F485C08B3012
:1052400009F46BC0893009F0A7C020C080914802E2
:10525000813A09F0A1C08091E800877F8093E8003F
:1052600080914C0290914D02892B21F460E283E100
:1052700092E003C060E080E090E070E00E94EB2AE2
:105280008091E8008B778093E80008958091480230
:10529000813209F081C080914C0290914D020297B9
:1052A00008F07AC08091E800877F8093E8008091C1
:1052B000E80082FD05C0809147028111F8CF6CC0E3
:1052C0002091F3008091F20090E0922B029729F454
:1052D0008091F1008B7F813021F48091F1008093E7
:1052E00033028091E8008B7753C080914802813A65
:1052F00009F052C080914C0290914D02892B09F027
:105300004BC08091E800877F8093E8008091E8009F
:1053100080FFFCCF8091120136C08091480281321B
:10532000D9F580914C0290914D02892BA9F580917D
:10533000E800877F8093E8000E94DF2B80914A027B
:10534000809312010C94861580914802813221F5D8
:105350008091E800877F8093E8000E94DF2B809196
:105360004B0280933402089580914802813AA1F45F
:105370008091E800877F8093E8008091E80080FFBB
:10538000FCCF809134028093F1008091E8008E7709
:105390008093E8000C94DF2B089584B7877F84BF47
:1053A0000FB6F894A89580916000886180936000A2
:1053B000109260000FBE80E880936100109261003F
:1053C0000E948B100E94312C0E948E2C8091E20052
:1053D00084608093E20083E597E20E94981C7894B1
:1053E0000E94222F0E94931088E091E00E94DB0F20
:1053F00088E29CE00E94590780914702853089F439
:1054000084E29CE00E9459070E94871E8091450219
:10541000882391F30E946E1E882371F30E948A2ACA
:10542000EBCF0E94C310E8CF0C94162A292F332704
:1054300023303105C9F060F42130310581F022308C
:10544000310509F047C08BE590E029E73CE046C014
:105450002132310511F12232310561F13BC082E187
:1054600090E024ED3CE03AC099278130910561F04D
:1054700040F08230910559F0039761F5EDE4FCE0CE
:1054800008C0E5E7FCE005C0E3E6FCE002C0E3E5B8
:10549000FCE0849190E09F0121C063307105D0F45D
:1054A000660F771FFB01EA5DFE4F2081318189E0A5
:1054B00090E014C06330710568F4FB01EE0FFF1F2C
:1054C000E05EFE4F20813181FB01E35EFE4F808173
:1054D00090E004C080E090E020E030E0FA01318309
:1054E000208308950895CF93C82F0E94722AC093F5
:1054F0003502CF91089580914702843011F081E008
:10550000089582E0089580913502811102C00C94C3
:105510007B2A089580E189BD82E189BD09B400FE3E
:10552000FDCF8091D8008F7D8093D8008091E000DE
:1055300082608093E0008091E00081FDFCCF0895BF
:10554000CF92DF92EF92FF920F931F93CF93DF934F
:10555000EC018B017A010E94FE2B811133C0E11412
:10556000F10439F0F70180819181081B190BC80FF4
:10557000D91FC12CD12C0115110519F18091E8001A
:1055800085FD16C08091E8008E778093E800E114D5
:10559000F10449F0F70180819181C80ED91ED182B2
:1055A000C08285E00FC00E94FE2B882321F30AC031
:1055B00089918093F10001501109FFEFCF1ADF0AA2
:1055C000DACF80E0DF91CF911F910F91FF90EF90A4
:1055D000DF90CF90089520914E0230914F02261710
:1055E000370748F06115710539F42091E8002E77EE
:1055F0002093E80001C0B901FC0120E061157105AC
:1056000079F1809147028823F1F18530F1F18091A1
:10561000E80083FD3CC08091E80082FD2EC08091AF
:10562000E80080FFEBCF2091F3008091F20090E042
:10563000922B6115710551F08830910538F4219154
:105640002093F100615071090196F3CF21E0089792
:1056500009F020E08091E8008E778093E800CECFBB
:105660002111CFCF0AC080914702882361F0853095
:1056700061F08091E80083FD0AC08091E80082FF1C
:10568000F2CF80E0089582E0089583E0089581E0FC
:10569000089520914E0230914F022617370748F0A7
:1056A0006115710539F42091E8002E772093E80008
:1056B00001C0B901FC0120E06115710591F18091F3
:1056C0004702882309F440C0853009F43FC0809127
:1056D000E80083FD3DC08091E80082FD2FC08091ED
:1056E000E80080FFE9CF2091F3008091F20090E084
:1056F000922B6115710559F08830910540F4249181
:105700002093F1003196615071090196F2CF21E0AA
:10571000089709F020E08091E8008E778093E800F8
:10572000CBCF2111CCCF0AC080914702882361F0F2
:10573000853061F08091E80083FD0AC08091E80027
:1057400082FFF2CF80E0089582E0089583E008951B
:1057500081E00895982F973068F59093E9009817A5
:1057600039F07091EC002091ED005091F00003C0F1
:10577000242F762F50E021FD02C09F5FECCF3091A7
:10578000EB003E7F3093EB003091ED003D7F309396
:10579000ED003091EB0031603093EB007093EC0042
:1057A0002093ED005093F0002091EE0027FDE5CF0F
:1057B00080E008958F708093E90081E008958091E2
:1057C000480287FF11C08091E80082FD05C08091EA
:1057D00047028111F8CF11C08091E8008B770BC090
:1057E00080914702882349F08091E80080FFF8CF3C
:1057F0008091E8008E778093E80008952091E4007E
:105800003091E50095E64091EC00842F817040FFD7
:1058100023C08091E80080FD1DC08091470288234D
:1058200099F0853099F08091EB0085FD11C0409191
:10583000E4005091E5002417350729F3915011F049
:105840009A01E1CF84E0089582E0089583E008950D
:1058500081E0089580E008954091E80042FFDDCFA7
:1058600008950E949F2C0E94A72CE0EEF0E080811A
:1058700081608083E8EDF0E080818F77808319BCC0
:10588000A7EDB0E08C918E7F8C9380818F7E80839A
:105890001092460208950F931F93CF93DF930E94B7
:1058A0009F2C0E94A72CC8EDD0E088818F77888339
:1058B00088818068888388818F7D888319BC109255
:1058C000470210924302109245021092440200EEE9
:1058D00010E0F80180818B7F8083888181608883DC
:1058E00042E060E080E00E94AA2BE1EEF0E08081DF
:1058F0008E7F8083E2EEF0E0808181608083808112
:1059000088608083F80180818E7F808388818061B8
:105910008883DF91CF911F910F910895E8EDF0E01A
:1059200080818F7E8083E7EDF0E0808181608083DD
:1059300084E082BF81E0809346020C944B2CE8ED1A
:10594000F0E080818E7F80831092E20008951092B3
:10595000DA001092E10008951F920F920FB60F9295
:1059600011242F933F934F935F936F937F938F9364
:105970009F93AF93BF93EF93FF938091E10082FFDA
:105980000BC08091E20082FF07C08091E1008B7F15
:105990008093E1000E94C0288091DA0080FF1FC040
:1059A0008091D80080FF1BC08091DA008E7F8093A9
:1059B000DA008091D90080FF0DC080E189BD82E1CD
:1059C00089BD09B400FEFDCF81E0809347020E94AB
:1059D000992805C019BC109247020E94AB288091FB
:1059E000E10080FF19C08091E20080FF15C0809126
:1059F000E2008E7F8093E2008091E20080618093DC
:105A0000E2008091D80080628093D80019BC85E0C4
:105A1000809347020E94B6288091E10084FF30C045
:105A20008091E20084FF2CC080E189BD82E189BDC4
:105A300009B400FEFDCF8091D8008F7D8093D800FF
:105A40008091E1008F7E8093E1008091E2008F7E63
:105A50008093E2008091E20081608093E200809177
:105A60004302882311F084E007C08091E30087FDA2
:105A700002C081E001C083E0809347020E94BA28FF
:105A80008091E10083FF29C08091E20083FF25C05F
:105A90008091E100877F8093E10082E0809347025C
:105AA000109243028091E1008E7F8093E10080910B
:105AB000E2008E7F8093E2008091E200806180931B
:105AC000E20042E060E080E00E94AA2B8091F000BA
:105AD00088608093F0000E94B228FF91EF91BF91FF
