:100000000C94FC060C9443070C9443070C94430790
:100010000C9443070C9443070C9443070C94430738
:100020000C9443070C9443070C948D2C0C945F2D77
:100030000C94A21E0C9443070C9443070C944307A2
:100040000C9443070C9443070C9443070C94430708
:100050000C9443070C94161F0C9443070C9443070D
:100060000C9443070C9443070C9443070C944307E8
:100070000C9443070C9443070C9443070C944307D8
:100080000C9443070C9443070C9443070C944307C8
:100090000C9443070C9443070C9443070C944307B8
:1000A0000C9443070C9443070C944307FE12FE1272
:1000B000301330137D139B13F314F314DD137214F8
:1000C00083148314E314F314F314EC1479157915E1
:1000D0008B158B1582158B158B158B15791579154D
:1000E00087158B158B158715E224D024F4246E23F5
:1000F000CD25CD25CD24CD25CD252125CD253525B5
:10010000AD25CD25CD25CD25CD256925CD25CD25E3
:100110005225CD250D25CD25CD25C725C725C7259C
:10012000C725C725C725C725C725C725C925CD2567
:10013000E224C524CD25CD25CD25CD25CD25CD2524
:10014000CD25CD25CD25CD25C925CD25CD25CD2424
:10015000CD25C525C525C525C525C525C525C52547
:10016000C525C525C925CC2DF32DEB2EF32DEB2E62
:100170003F2E622EEB2EB92EC82E0A0025303136C6
:1001800062003A200025303258000A722F63203076
:100190003132333435363738394142434445460AE3
:1001A0000029001E001F002000210022002E002D2B
:1001B00000230024002500260027002A002B00141D
:1001C000001A000800150017002F0030001C00184E
:1001D000000C001200130031003900040016000763
:1001E0000009000A00000000000B000D000E000FC7
:1001F0000033003400E1001D001B0006001900055B
:10020000004C0000001100100036003700380028B4
:1002100000E000E3003500E20000002C002C002C80
:10022000002C0000005000510052004F0000000060
:1002300000000000000000000000000000000000BE
:1002400000000000000000000044454255473A20ED
:1002500064697361626C65642E0A004445425547C7
:100260003A20656E61626C65642E0A00556E6963A2
:100270006F646520696E707574206D6F646520739E
:10028000657420746F3A2025750A00556E69636F96
:10029000646520696E707574206D6F646520696E89
:1002A000697420746F3A2025750A000A00253032DF
:1002B0005820006B6579626F6172645F7265706F60
:1002C00072743A20000A0025303258006B6579625A
:1002D0006F6172645F7365745F6C65643A20004F90
:1002E0006E6573686F743A2074696D656F75740A12
:1002F0000064656C5F6B65795F6269743A20636165
:100300006E27742064656C3A20253032580A0061EB
:1003100064645F6B65795F6269743A2063616E271C
:1003200074206164643A20253032580A00290A009A
:100330002575002F002575005D280025640020002C
:10034000256400200025640020002564007C002531
:10035000303258006D6F7573656B6579205B627420
:100360006E7C782079207620685D287265702F6118
:10037000636C293A205B006D6B5F776865656C5F25
:1003800074696D655F746F5F6D6178203D202564D1
:100390000A006D6B5F776865656C5F6D61785F7390
:1003A00070656564203D2025640A006D6B5F74698B
:1003B0006D655F746F5F6D6178203D2025640A0074
:1003C0006D6B5F6D61785F7370656564203D20259E
:1003D000640A006D6B5F696E74657276616C203DB6
:1003E0002025640A006D6B5F64656C6179203D2097
:1003F00025640A006D6B5F776865656C5F74696D75
:10040000655F746F5F6D6178203D2025640A006D23
:100410006B5F776865656C5F6D61785F737065654C
:1004200064203D2025640A006D6B5F74696D655F13
:10043000746F5F6D6178203D2025640A006D6B5FED
:100440006D61785F7370656564203D2025640A00E6
:100450006D6B5F696E74657276616C203D202564FA
:100460000A006D6B5F64656C6179203D2025640A2C
:10047000000A00257500363A20776865656C5F7460
:10048000696D655F746F5F6D61783A20000A0025C1
:100490007500353A20776865656C5F6D61785F73CC
:1004A000706565643A20000A00257500343A2074AE
:1004B000696D655F746F5F6D61783A20000A002591
:1004C0007500333A206D61785F73706565643A201A
:1004D000000A00257500323A20696E7465727661F3
:1004E0006C286D73293A20000A00257500313A20E6
:1004F00064656C6179282A31306D73293A20000ACD
:10050000092D2056616C756573202D0A004D3E0043
:100510004D25643E20003F0073657420646566616C
:10052000756C740A00433E2000776865726520642C
:10053000656C74613A20637572736F723D25642C2B
:1005400020776865656C3D25640A5365652068748D
:1005500074703A2F2F656E2E77696B6970656469C8
:10056000612E6F72672F77696B692F4D6F75736599
:100570005F6B6579730A000A092D204D6F757365ED
:100580006B6579202D0A4553432F713A09717569BE
:10059000740A313A0964656C6179282A31306D73C7
:1005A000290A323A09696E74657276616C286D7336
:1005B000290A333A096D61785F73706565640A349E
:1005C0003A0974696D655F746F5F6D61780A353AD9
:1005D00009776865656C5F6D61785F7370656564E8
:1005E0000A363A09776865656C5F74696D655F7492
:1005F0006F5F6D61780A0A703A097072696E7420D3
:1006000076616C7565730A643A0973657420646574
:100610006661756C74730A75703A092B310A646FE0
:10062000776E3A092D310A706775703A092B3130AF
:100630000A7067646F776E3A092D31300A0A737059
:10064000656564203D2064656C7461202A206D61BD
:10065000785F7370656564202A2028726570656113
:1006600074202F2074696D655F746F5F6D617829E8
:100670000A003F004D3E2000433E20004C25640A06
:100680000074696D65725F72656164333228293A5E
:10069000202530346C580A006B65796D61705F639A
:1006A0006F6E6669672E6E6B726F3A2025580A006E
:1006B0006B6579626F6172645F69646C653A20256D
:1006C000580A006B6579626F6172645F70726F7453
:1006D0006F636F6C3A2025580A00686F73745F6B04
:1006E0006579626F6172645F6C65647328293A2072
:1006F00025580A000A092D20537461747573202D42
:100700000A004743433A20352E342E3020415652BA
:100710002D4C4942433A20322E302E302041565241
:100720005F415243483A20617672350A004F505477
:10073000494F4E533A204C554641204D4F55534555
:100740004B45592045585452414B455920434F4E33
:10075000534F4C4520434F4D4D414E44204E4B523C
:100760004F20343039360A004255494C443A202251
:10077000302E372E32392D392D676166623933625A
:100780003722202832323A32303A3132204F6374E5
:100790002031362032303139290A005649443A2076
:1007A00030784645454428556E6B6E6F776E29202C
:1007B0005049443A203078363036302842697265E4
:1007C0006D6529205645523A203078303030310A54
:1007D00000444553433A20712E6D2E6B2E206B65DD
:1007E00079626F617264206669726D7761726520EB
:1007F000666F7220426972656D650A000A092D20D4
:1008000056657273696F6E202D0A000A092D204308
:100810006F6E736F6C65202D0A4553432F713A0933
:10082000717569740A6D3A096D6F7573656B6579D9
:100830000A000A092D204D61676963202D0A443A98
:10084000094465627567204D65737361676520545F
:100850006F67676C650A583A094D61747269782050
:100860004465627567204D6F646520546F67676CDF
:1008700065202D2053686F77206B657970726573E2
:1008800073657320696E206D617472697820677278
:1008900069640A4B3A094B6579626F61726420445E
:1008A0006562756720546F67676C65202D205368FB
:1008B0006F77206B65797072657373207265706FE6
:1008C00072740A4D3A094465627567204D6F7573FD
:1008D0006520546F67676C650A563A0956657273EE
:1008E000696F6E0A533A095374617475730A433A17
:1008F00009416374697661746520436F6E736F6C30
:1009000065204D6F64650A46312D4631303A0953F2
:10091000776974636820746F204C61796572203048
:100920002D392028463130203D204C30290A302DE9
:10093000393A0953776974636820746F204C617980
:10094000657220302D390A47524156453A0953778E
:100950006974636820746F204C617965722030205F
:1009600028616C7465726E617465290A423A094A9D
:10097000756D7020746F20426F6F746C6F61646569
:10098000720A4553433A094A756D7020746F2042CC
:100990006F6F746C6F616465722028616C7465722E
:1009A0006E617465290A453A095072696E74204572
:1009B0004550524F4D2053657474696E67730A42F7
:1009C00053504143453A09436C6561722045455097
:1009D000524F4D0A4E3A094E4B524F20546F6767A3
:1009E0006C650A000A002575002E6E6B726F3A2046
:1009F000000A002575002E737761705F6261636B7A
:100A0000736C6173685F6261636B73706163653A95
:100A100020000A002575002E737761705F67726190
:100A200076655F6573633A20000A002575002E6EB7
:100A30006F5F6775693A20000A002575002E73778D
:100A400061705F72616C745F726775693A20000A49
:100A5000002575002E737761705F6C616C745F6C3C
:100A60006775693A20000A002575002E737761705A
:100A70005F7263746C5F726775693A20000A0025C3
:100A800075002E737761705F6C63746C5F6C677553
:100A9000693A20000A002575002E636170736C6F3F
:100AA000636B5F746F5F636F6E74726F6C3A20007C
:100AB0000A002575002E737761705F636F6E747224
:100AC0006F6C5F636170736C6F636B3A20000A0038
:100AD00025303258006B65796D61705F636F6E66AB
:100AE00069672E7261773A20000A002575002E6D25
:100AF0006F7573653A20000A002575002E6B6579C5
:100B0000626F6172643A20000A002575002E6D61E3
:100B1000747269783A20000A002575002E656E61AE
:100B2000626C653A20000A00253032580064656224
:100B300075675F636F6E6669672E7261773A200032
:100B40000A0025750064656661756C745F6C617977
:100B500065723A20003F004E4B524F3A206F666656
:100B60000A004E4B524F3A206F6E0A000A6D6F75A5
:100B700073653A206F66660A000A6D6F7573653A91
:100B8000206F6E0A000A6B6579626F6172643A20A9
:100B90006F66660A000A6B6579626F6172643A205B
:100BA0006F6E0A000A6D61747269783A206F66662A
:100BB0000A000A6D61747269783A206F6E0A000A41
:100BC00064656275673A206F66660A000A6465624A
:100BD00075673A206F6E0A000A0A4A756D70696E71
:100BE0006720746F20626F6F746C6F616465722E22
:100BF0002E2E2000433E2000436C656172696E67B3
:100C000020454550524F4D0A006565636F6E666919
:100C1000673A0A005B735D004B6579626F617264CD
:100C20002073746172742E0A005B575D005B535D24
:100C3000005B525D005B445D005B435D000403307C
:100C40000000000E0342006900720065006D00653F
:100C5000000000100355006E006B006E006F0077FF
:100C6000006E0000000403090409025B0003010098
:100C7000A0FA09040000010301010009211101008B
:100C8000012240000705810308000A090401000150
:100C90000300000009211101000122C000070582A4
:100CA0000320000A090402000203000000092111C8
:100CB000010001222200070583032000010705032C
:100CC000032000011201100100000008EDFE606029
:100CD0000100010203010631FF0974A10109751524
:100CE0000026FF009520750881020976150026FF71
:100CF00000952075089102C005010902A101850235
:100D00000901A1000509190129051500250195050D
:100D100075018102950175038101050109300931D1
:100D20001581257F95027508810609381581257F73
:100D3000950175088106050C0A38021581257F95F5
:100D40000175088106C0C005010980A10185031A4B
:100D500081002A8300160100260300950175108189
:100D600000C0050C0901A10185041A01002A9C029A
:100D7000160100269C02950175108100C00501092D
:100D800006A1018505050719E029E715002501954C
:100D900008750181020507190029EF150025019545
:100DA000F075018102050819012905950575019164
:100DB00002950175039101C005010906A10105070E
:100DC00019E029E7150025019508750181029501B3
:100DD000750881010507190029FF150026FF0095F8
:100DE0000675088100050819012905950575019109
:100DF00002950175039101C011241FBECFEFDAE007
:100E0000DEBFCDBF04B603FE27C080914D02909196
:100E10004E02A0914F02B09150028730904BA740F4
:100E2000B04BD1F410924D0210924E0210924F022C
:100E30001092500214BE84B7877F84BF0FB6F89417
:100E4000A895809160008861809360001092600096
:100E50000FBEE0E0F8E3099511E0A0E0B1E0E8E3BF
:100E6000FFE502C005900D92AC32B107D9F722E040
:100E7000ACE2B1E001C01D92AD34B207E1F70E94CF
:100E8000AE290C949A2F0C940000FF93EF93E091FD
:100E90002C01F0912D01309709F00995EF91FF9108
:100EA0000895FC018591803011F0EFDFFBCF0895AC
:100EB000FF27E0E230E247FF0CC0419597FF09C0F1
:100EC000EDE26095709580959095611D711D811D75
:100ED000911D27FF02C0219530E350E2AA27660F3B
:100EE000771F881F991FAA1FA41710F0A41B6395D2
:100EF0005A95A9F7AA3008F0A95FA05DAF93F395C2
:100F0000611571058105910541F7ED3211F4EF93FB
:100F1000F395F21718F43F93F395FBCF8F91B5DF5C
:100F2000FA95E1F70895E991F9918591803021F0E2
:100F3000853219F0AADFF9CF089520E0E8945591A1
:100F40005532C1F3503311F4689455915A3348F433
:100F5000505390F3220F022E220F220F200D250F47
:100F6000F4CF0EF4219589919991533619F35337A3
:100F700029F1533559F1BC0188279927E8945C364B
:100F800021F48991999168945591543639F446EF3A
:100F90007EF077FF0DC08FEF9FEF0AC055374AE014
:100FA00039F0583540E121F0523642E009F0089519
:100FB000FF93EF937DDFEF91FF91B7CFFF93EF9317
:100FC000FC0181918030B9F360DFFBCFFF93EF9399
:100FD00068DFF1CFDF93CF93CDB7DEB72596A3DFE0
:100FE000CF91DF91089508950C94F3070C94AD0808
:100FF0000C9482091092CC001092CD0088E180936D
:10100000C90086E08093CA008DE0EEE2F1E0DF01E6
:101010001D928A95E9F783E78093CE00DF0140E0D7
:1010200050E0BA018091C80087FD0CC04F5F5F4F50
:101030006F4F7F4F413A26E8520721E06207710562
:1010400088F38C9A8091CE008D9381E0AB33B80702
:1010500049F780913A01803E89F48C98ABE3B1E086
:10106000818120E8829FC00111242081822B8D93F1
:101070009D93329681E0EA33F80791F70E948C093C
:1010800081E00895E82FF0E0EE0FFF1FE55CFE4FD2
:10109000808191810895CF92DF92EF92FF920F931A
:1010A0001F93CF93DF938AE891E00E9451078BE36F
:1010B000E82E81E0F82EC0E0D0E095E8C92E91E05E
:1010C000D92E0CE711E0DF93CF93DF92CF920E94ED
:1010D000EA0782E891E00E945107F701819191911E
:1010E0007F010E94E01C9F938F931F930F930E9498
:1010F000EA078AE791E00E94510721968DB79EB7D3
:1011000008960FB6F8949EBF0FBE8DBFC630D105AE
:10111000D1F6DF91CF911F910F91FF90EF90DF906B
:10112000CF9008951092CC001092CD0088E180936A
:10113000C90086E08093CA00089580B3836380BBB2
:101140008D9A8C9A899A889808950E94F4070E9433
:1011500092080C949D0881E008956091CE017091F1
:10116000CF018091D0019091D1010C947E1C80918F
:10117000FF01816082608093FF0108950F931F93A8
:10118000CF93DF939C013A9521153F4148F5EB0140
:101190008C0190FF03C080EEFB01099511FF03C095
:1011A00081EEFE01099512FF03C082EEFE01099552
:1011B00013FF03C083EEFE0109950115104180F075
:1011C00084EEFE01099585EEFE01099586EEFE018D
:1011D000099587EEFE01DF91CF911F910F91099440
:1011E000DF91CF911F910F910895877091E001C019
:1011F000990F8A95EAF7892F0E94AE1B0C94F81B71
:101200000C94F508877091E001C0990F8A95EAF770
:10121000892F0E94B41B0C94F81B0C940209CF93E5
:10122000DF93EC01805E9109089710F0209719F484
:1012300065EF78E002C060E079E0CE010E94BE0870
:101240008C2FDF91CF910C94A111CF93DF93EC0100
:101250000E947712CE01805E9109089710F02097C6
:1012600019F462E079E002C06DE079E0CE01DF912F
:10127000CF910C94BE08CF93DF93EC010E940F092D
:10128000CE01DF91CF910C94250981E008950C9453
:10129000AB081F93CF93DF9300D000D01F92CDB740
:1012A000DEB749835A836B8320915E0189819A81DD
:1012B000211112C0662349F00E94C91A182F682F05
:1012C00089819A810E94721A03C00E949D1A182F68
:1012D00069817A81812F04C00E94C91A69817A814B
:1012E0000F900F900F900F900F90DF91CF911F9163
:1012F0000C94770BFC014081518162817381848160
:101300000C9449090E94F31C811102C00E94931D94
:101310000E94380E0C94A5080C94F607282F2F7005
:1013200041F0822F90E02A3010F44D9608950697F0
:10133000089587E290E0089508950C949C090C9418
:101340009D0908950E9467150E94A1092FEF84E36B
:101350009CE0215080409040E1F700C0000087E70A
:1013600097E790930108809300080C943C1F0F931B
:101370001F93CF93DF938C010E947A09EC01B8018F
:101380000E944709882309F1B801CE010E94D50EB9
:101390008823D9F0B801CE010E947B0F8823A9F0E1
:1013A000C631FCE5DF0799F008F051C0C130ECE52B
:1013B000DE07A1F108F058C0C115DC4509F06EC187
:1013C000F801828181110E94A209C0E086C10E94B9
:1013D000981B982FF8018281209100013091010122
:1013E000882379F09A7A81E009F480E080934701BC
:1013F000911102C069E201C065E3C9010E94221E89
:101400000AC080914701811102C069E201C065E311
:10141000C9010E942D1E0E94F81BD7CFF8018281BE
:10142000882399F28091FF01C82FC095C170C0FB3D
:1014300080F98093FF01CC2329F08BE592E00E9494
:101440005107C3CF89E492E00E94510746C1CE3DC7
:10145000ECE5DE0709F429C108F419C1CE018A5F61
:101460009C45099708F01AC1F8018281882309F484
:1014700015C10E94F31C811102C00E94931D0E949D
:10148000061D90933F0280933E02C031FCE5DF07CA
:1014900009F4BFC008F03FC0C830ECE5DE0709F42E
:1014A00096C0F0F4C4308CE5D80709F483C068F422
:1014B000C230FCE5DF0709F473C0C330DC4509F036
:1014C000DDC080913E02826072C0C630ECE5DE076E
:1014D00009F46AC008F077C080913E02886067C056
:1014E000CC308CE5D80709F481C058F4CA30FCE54B
:1014F000DF0709F470C008F075C080913E02806873
:1015000056C0CE30ECE5DE0709F474C008F07DC0AB
:1015100080913E0289C0CB3F8CE5D80709F44DC0CD
:1015200008F5C331FCE5DF0709F47BC068F4C1317D
:10153000ECE5DE0709F471C0C231DC4509F09EC05C
:1015400080913E028F7733C0C5318CE5D80709F40E
:1015500072C008F486C0CA3FDC4509F08FC0809194
:101560003F023EC0CF3F8CE5D80709F45FC058F476
:10157000CD3FFCE5DF0709F444C008F43FC080918B
:101580003F0282602DC0C130EDE5DE0709F473C073
:1015900008F45DC0C230DD4509F070C080E06CC069
:1015A00080913E02816003C080913E028061809301
:1015B0003E0264C080913E0211C080913F02826071
:1015C00080933F025BC080913E028062F0CF8091A9
:1015D0003E028064ECCF80913E0288608460E7CF59
:1015E0008160EECF80913E028E7FE1CF80913E02FE
:1015F0008D7FDDCF80913E02877FD9CF80913F02E2
:1016000018C080913F028D7FDBCF80913E028F7E9C
:10161000CECF80913E028F7DCACF80913E028F7BDC
:10162000C6CF80913E02877F8B7FC1CF80913F02E2
:101630008D7F8E7FC5CF80913E0282FB222720F9CD
:1016400091E0922790FB82F990FB83F9B0CF8091D3
:101650003F02982F909591708E7F892B90FB81F996
:10166000AFCF80913E0287FB222720F991E092279D
:1016700090FB87F99CCF81E00E94951D80913E02EE
:1016800090913F020E94171D0E9467159ECECC3D8F
:101690008CE5D80791F0CD3DDC45B1F0C801DF9174
:1016A000CF911F910F910C944509F80182818823F5
:1016B00009F48BCE0E94931D88CEF8018281882385
:1016C00009F483CE80E006C0F8018281882309F402
:1016D0007CCE82E00E94542A78CE8C2FDF91CF916D
:1016E0001F910F91089580E090E00895089524E5FA
:1016F000829FC0011124FC012EE0729FE00DF11DBC
:101700001124E60FF11DEE0FFF1FEF55FE4F8591DF
:1017100094910895880F991FFC01E459FD4F85911C
:1017200094910895CF93DF930E94770B0E944C0D04
:10173000EC018115904508F041C0C11580E4D8073F
:1017400008F028C1C83ED10510F5C03ED10508F00B
:101750009FC1C83AD10578F4C53AD10508F0A2C0B6
:10176000C130D10509F494C108F445C1C430D10594
:1017700008F08EC140C1CF3BD10508F49EC0C03CEB
:10178000D10508F438C1CE01805C9109F5C0C115BE
:1017900090E2D90758F4C11521E0D20708F078C1CA
:1017A000C03FD10508F427C1D06572C1C11580E3DF
:1017B000D80708F0E5C0CE019F70DEC0C11595E5E1
:1017C000D90708F043C0C11524E5D20708F0F9C0D5
:1017D000C11582E5D80708F5C11591E5D90708F0CC
:1017E000DCC0CE0174E0969587957A95E1F7837019
:1017F0009C2F937021E030E002C0220F331F9A9596
:10180000E2F73C68382BCF70C695C69580E2C89F3A
:10181000E0011124C22BD32B3BC19E01237033273F
:101820008C2F86958695C115D34508F0BBC0C1E0C5
:10183000D0E002C0CC0FDD1F2A95E2F720E2829FA4
:10184000C0011124C82BD92BDC6822C1C11529E5A0
:10185000D207A0F4C11588E5D80708F0B7C0C115B4
:1018600096E5D90708F0C7C08C2F0E94E00D8F7154
:10187000C82FD0E0DC2FCC27D0620AC1C1152AE5E1
:10188000D20708F4A8C0CE0190568115904208F006
:10189000B2C08D2F8F710E94E00DDD27D0628F7155
:1018A000D82BF6C0C53AD10509F4A8C0C63AD1056F
:1018B00009F0A7C0C2E8D0E4EBC0C83AD10509F4EA
:1018C000A3C0C93AD10509F4A2C0CA3AD10509F4A6
:1018D000A1C0CB3AD10509F4A0C0CC3AD10509F496
:1018E0009FC0CB3BD10509F49EC0CC3BD10509F488
:1018F0009DC0CD3AD10509F49CC0C03BD10509F487
:101900009BC0CE3AD10509F49AC0CF3AD10509F46B
:1019100099C0C13BD10509F498C0C23BD10509F477
:1019200097C0C33BD10509F496C0C43BD10509F467
:1019300095C0C53BD10509F494C0C63BD10509F457
:1019400093C0C73BD10509F492C0C83BD10509F447
:1019500091C0C93BD10509F490C0CD3BD10509F434
:101960008FC0CE3BD10509F48EC0CA3BD10509F426
:101970008DC0C0E0D4E48CC00E948A0BEC0188C00A
:10198000CE019927D3FF03C0EC01D86C81C0EC01D4
:10199000D06C7EC0DF70D06A7BC0DC2FCC27C16FDB
:1019A000D06A76C0C1E0D0E002C0CC0FDD1F2A951E
:1019B000E2F720E2829FC0011124C82BD92BDA68FC
:1019C00067C0DC2FCC27C46FD06A62C0DC2FCC2765
:1019D000C06FD06A5DC08C2F8F700E94E00D94E0C4
:1019E000D695C7959A95E1F7CF70D0E0DC2FCC273C
:1019F000D069C82B4DC0C0E0D0E04AC0C1E8D0E4F7
:101A000047C0C3E8D0E444C0C2EED4E441C0C9EE4C
:101A1000D4E43EC0CAEED4E43BC0C5EBD4E438C045
:101A2000C6EBD4E435C0C3EBD4E432C0C4EBD4E499
:101A30002FC0C7EBD4E42CC0CCECD4E429C0CDEC4F
:101A4000D4E426C0C3E8D5E423C0CAE8D5E420C066
:101A5000C2E9D5E41DC0C4E9D5E41AC0C1E2D6E4A8
:101A600017C0C3E2D6E414C0C4E2D6E411C0C5E294
:101A7000D6E40EC0C6E2D6E40BC0C7E2D6E408C086
:101A8000CFE6D4E405C0C0E7D4E402C0CAE2D6E49D
:101A9000CE01DF91CF9108958238910569F1B0F4BC
:101AA0008133910509F46DC048F48932910509F438
:101AB00063C08A32910509F469C0089585339105A0
:101AC00009F455C089339105B9F00895833E910515
:101AD00069F138F4803E9105B1F0823E910509F13B
:101AE0000895863E9105A9F1873E9105B9F1843E9E
:101AF000910509F064C023C020913E0220FD4FC033
:101B000021FD4DC0089580913E0280FD44C080912A
:101B10003F0280FF44C080913E0284FD42C083EEBC
:101B20004DC080913E0282FF38C0F5CF80913E02C9
:101B300082FD33C080913F0280FD31C0ECCF8091A7
:101B40003F0281FF32C080913E0284FD2AC087EEB1
:101B500035C080913E0283FF26C0F5CF80913E02C2
:101B600083FD21C080913F0281FD1FC0ECCF809199
:101B70003E0285FD1CC01DC080913E0285FD19C03E
:101B800016C080913E0286FD16C017C080913E02AD
:101B900086FD13C010C089E311C082EE0FC080EE35
:101BA0000DC080E00BC086EE09C084EE07C089E25C
:101BB00005C085E303C08AE201C081E390E0089597
:101BC00090913E0292FF0DC0282F2871283019F401
:101BD000877F846006C0282F2471243011F48B7F06
:101BE000886093FF0DC0282F2871283119F4877E53
:101BF000846106C0282F2471243111F48B7E886102
:101C000020913F0220FF0DC0382F3871383019F471
:101C1000877F816006C0382F3171313011F48E7F9B
:101C2000886021FF0DC0282F2871283119F4877E84
:101C3000816106C0282F2171213111F48E7E8861C7
:101C400094FD877E0895CF93DF9397FF0DC0FB012E
:101C50002281222349F0EC010E94770ECE019F776A
:101C60000E94B80E0E94A10E81E0DF91CF910895ED
:101C70008CE090E00E94582F90E0A0E0B0E08093CC
:101C8000330290933402A0933502B09336028091D0
:101C9000FF0180FF0EC0809133021F928F938BE86B
:101CA00092E09F938F930E94EA070F900F900F90FE
:101CB0000F900895609133028CE090E00C94662FB1
:101CC000809333020E945A0E8091FF0180FF0EC064
:101CD000809133021F928F938CE692E09F938F93B3
:101CE0000E94EA070F900F900F900F9008950E94A6
:101CF000981B809337020E94AB1B80913302813086
:101D000071F048F0823081F08430A1F486EE0E94B8
:101D1000AB1288E10DC082EE0E94A1110BC088E1D8
:101D200093E00E943B0906C082EE0E94A11187E564
:101D30000E94AB128FE39CE90197F1F700C000000D
:101D4000089580913302813039F040F0823031F0D3
:101D5000843051F488E206C08CE204C082EE0E9416
:101D6000771202C00E94AB12809137020C94A81B1C
:101D70000F931F93CF93DF938C01CCE0D0E0C80189
:101D80000C2E02C0969587950A94E2F78F700E94F8
:101D90008E090E94AB122497CC3F8FEFD80779F7BA
:101DA000DF91CF911F910F9108950F931F93CF93C0
:101DB000DF93EC018B01FB018281882301F1C33E9B
:101DC000FCE5DF07B9F050F4C13EECE5DE0781F039
:101DD000C23EFCE5DF0799F481E00FC0C43E8CE50C
:101DE000D80751F0C53EECE5DE0749F484E005C0B4
:101DF00080E003C082E001C083E00E94600EB80171
:101E0000CE01DF91CF911F910F910C94230E0F9370
:101E10001F93CF93DF93C62FD42F122FFC01828103
:101E20008823C9F060934A010E94D41E909349010F
:101E30008093480180E28C0F883008F057C0C7704B
:101E400081E001C0880FCA95EAF7DF91CF911F9119
:101E50000F910C94BE1280914A01681330C080919A
:101E60004801909149010E94EC1E883C910538F58B
:101E700000E20D0FCD17B9F080E28C0F883040F4EE
:101E8000C77081E001C0880FCA95EAF70E94C512A9
:101E9000083028F581E09D2F977001C0880F9A9532
:101EA000EAF70E94BE12812F0E94AB120830F0F4B4
:101EB000D77081E001C0880FDA95EAF70AC080E2A6
:101EC0008C0F883098F4C77081E001C0880FCA95E4
:101ED000EAF7DF91CF911F910F910C94C512812FDA
:101EE000DF91CF911F910F910C94AB12DF91CF91A5
:101EF0001F910F9108959C01CB01233F4CE53407BE
:101F0000F9F078F4283DFCE53F07B9F0293D4CE5B0
:101F1000340711F1273D3C4531F526E241EE61EEF3
:101F20001EC0253FFCE53F0799F070F0263F3C4579
:101F3000D1F427E245EE66EE12C027E245EE0EC070
:101F400026E241EE60EE0BC027E245EE64EE07C0EC
:101F500026E241EE62EE03C028E241E065EE0E9417
:101F6000070F80E00895FC018281882319F0109208
:101F70004A01089581E008959093500180934F01A4
:101F80000895E0914F01F0915001309721F00190B8
:101F9000F081E02D099480E00895EF92FF921F9365
:101FA000CF93DF93FC01A0914F01B09150011097A6
:101FB00009F442C080911201882341F080913E02D1
:101FC00087FF04C08081818385E08083EF011296C2
:101FD000ED91FC911397CE0109958091FF0182FF4D
:101FE0002BC080FF04C083EB92E00E94510718E0F1
:101FF0008DEAE82E82E0F82E8091FF0180FF0BC071
:1020000088811F928F93FF92EF920E94EA070F90B0
:102010000F900F900F90115021961111EDCF8091DC
:10202000FF0180FF09C08BEA92E0DF91CF911F9101
:10203000FF90EF900C945107DF91CF911F91FF908B
:10204000EF900895E0914F01F0915001309739F0F1
:1020500022E0DC012C930480F581E02D09940895A1
:1020600020914D0130914E012817390771F090935E
:102070004E0180934D01E0914F01F0915001309756
:1020800021F00680F781E02D0994089520914B01FD
:1020900030914C012817390771F090934C018093CF
:1020A0004B01E0914F01F0915001309721F00084F5
:1020B000F185E02D0994089585B7806885BF85B7BF
:1020C000806885BF089508950C9463100C94641083
:1020D0000C9463100C94B7080E945C100E94681066
:1020E0000C94661081E008950E94CB1E0E94F807B0
:1020F0000E944D1F0C946A10CF93C82F8091FF014E
:1021000082FF1EC080FF04C08CEC92E00E94510749
:102110008091FF0180FF0CC01F92CF9387EC92E06B
:102120009F938F930E94EA070F900F900F900F904C
:102130008091FF0180FF04C085EC92E00E9451076E
:102140008C2FCF910C949F095F926F927F928F9208
:102150009F92AF92BF92CF92DF92EF92FF920F9336
:102160001F93CF93DF93CDB7DEB72A970FB6F894BE
:10217000DEBF0FBECDBF0E94FA070E947210811110
:1021800011C08FEF89838A831B820E94D41E8160D5
:10219000782F9D838C8349815A816B818D810E9428
:1021A000611156C092E5692E91E0792E00E010E0B1
:1021B00088248394912C502E802F0E9442086C0119
:1021C000F301A190B1903F01A826B926A114B10452
:1021D00031F40F5F1F4F0630110569F7D2CF8091A0
:1021E000FF0181FD0E944B0880E090E07401082E01
:1021F00002C0EE0CFF1C0A94E2F795012E213F214C
:10220000232B09F18E835F82CE20DF2081E0CD2851
:1022100009F480E088870E94D41E8160782F9A8715
:1022200089874E815F8168858A850E946111000FD0
:10223000111FF801EE5AFE4F80819181E826F926A0
:10224000F182E08205C001968E30910579F6C1CF0A
:102250000E9461210E94C10F909151018917D9F00C
:102260000E94C10F809351012A960FB6F894DEBFE9
:102270000FBECDBFDF91CF911F910F91FF90EF90D7
:10228000DF90CF90BF90AF909F908F907F906F9096
:102290005F900C947C102A960FB6F894DEBF0FBEA8
:1022A000CDBFDF91CF911F910F91FF90EF90DF9005
:1022B000CF90BF90AF909F908F907F906F905F90E6
:1022C0000895CF93DF93CDB7DEB72B970FB6F89471
:1022D000DEBF0FBECDBF4F83588769877A878B8754
:1022E000DE01119686E0FD0111928A95E9F785E0FD
:1022F000FE01379601900D928A95E1F70E94661BC8
:10230000882319F082E00E94601C0E94391B811111
:102310000E94EA1B49815A816B817C818D819E815B
:102320000E9437182B960FB6F894DEBF0FBECDBFB4
:10233000DF91CF910895FC01808191810E940B1B58
:102340000895CF93882309F4D0C0C82F8CEF8C0F49
:10235000813A68F48C2F0E94E5258111C6C06C2F4C
:1023600080910001909101010E94221E0CC080E228
:102370008C0F883058F4C77081E001C0880FCA956F
:10238000EAF70E949B1BCF910C94F81B8BE58C0FF6
:10239000833078F4C53A29F0C63A31F083E890E00A
:1023A00005C081E890E002C082E890E0CF910C94F3
:1023B000301088E58C0F873108F08FC0C83A09F4D7
:1023C00045C0C93A09F445C0CA3A09F445C0CB3AF8
:1023D00009F445C0CC3A09F445C0CB3B09F445C0EB
:1023E000CC3B09F445C0CD3A09F445C0C03B09F4E3
:1023F00045C0CE3A09F445C0CF3A09F445C0C13BC7
:1024000009F445C0C23B09F445C0C33B09F445C0CB
:10241000C43B09F445C0C53B09F445C0C63B09F4BB
:1024200045C0C73B09F445C0C83B09F445C0C93B9A
:1024300009F445C0CD3B09F445C0CE3B09F445C085
:10244000CA3B09F445C080E090E044C082EE90E0D1
:1024500041C089EE90E03EC08AEE90E03BC085EB43
:1024600090E038C086EB90E035C083EB90E032C05E
:1024700084EB90E02FC087EB90E02CC08CEC90E0D8
:1024800029C08DEC90E026C083E891E023C08AE863
:1024900091E020C082E991E01DC084E991E01AC07A
:1024A00081E292E017C083E292E014C084E292E0FD
:1024B00011C085E292E00EC086E292E00BC087E296
:1024C00092E008C08FE690E005C080E790E002C08F
:1024D0008AE292E0CF910C944610C03F30F08C2FEE
:1024E0000E94E71FCF910C94D420CF9108958823A8
:1024F00089F19CEF980F913A40F4682F8091000188
:10250000909101010E942D1E0DC090E2980F98300D
:1025100058F4877091E001C0990F8A95EAF7892FE6
:102520000E94A11B0C94F81B9BE5980F933020F49C
:1025300080E090E00C94301098E5980F973120F4EB
:1025400080E090E00C944610803F20F00E944F20E5
:102550000C94D4200895CF93C82F0E94A111C933A1
:1025600049F42FEF87EE93E0215080409040E1F74F
:1025700000C000008C2FCF910C947712882321F09B
:102580000E949B1B0C94F81B0895882321F00E9445
:10259000A11B0C94F81B0895CF92DF92EF92FF924B
:1025A0000F931F93CF93DF937C01062FC72FFC015E
:1025B000158112951F70D281D1110E94BB1B0E9400
:1025C000911B882379F0DD2369F080E2800F883049
:1025D00048F082E00E94601C0E94911B91E0D82E7E
:1025E000D92601C0D12CCC2EC2948FE0C8228C2DCC
:1025F00090E0FC01EA5AFF4F0C943E2F8C2F807F15
:10260000CF70882311F0C295C07FDD2399F0CC23D1
:1026100009F4C4C180E2800F883010F0011104C0B9
:102620008C2F0E949B1B03C08C2F0E94AE1B0E940C
:10263000F81BB4C1802F0E947712CC2309F4D3C1B8
:1026400080E2800F883010F0011104C08C2F0E94AE
:10265000A11B03C08C2F0E94B41B0E94F81BC3C196
:102660008C2F807FCF70803211F0C295C07F002305
:1026700019F00130C9F022C0DD2371F0112341F0BF
:10268000113031F40E94CE1B8C2B0E94D61BABC1A3
:102690000E94CE1B8C2B1DC0112319F0113009F4A0
:1026A000A2C10E94EA1B25C0DD2321F0163008F0EC
:1026B0009AC10EC0153008F096C11BC0DD2361F031
:1026C000112331F0F701858180FF68C18F70858308
:1026D0008C2F0E94BE1287C1112359F0093309F0D3
:1026E0006EC1FFEF27EE83E0F15020408040E1F71C
:1026F00064C18C2F0E94C51276C18C2F8695869559
:10270000837019F0813061F06EC1DD2321F0802FDC
:102710009C2F937002C080E090E00E9430106BC14B
:10272000DD2321F0802F9C2F937002C080E090E089
:102730000E94461060C1DD23F9F0053F51F0063FCD
:1027400071F0043FA9F480913802909139028160C0
:102750000BC08091380290913902826005C080914F
:102760003802909139028460909339028093380244
:10277000802F0E94E71F1EC0053F51F0063F71F0F9
:10278000043FA9F480913802909139028E7F0BC0EA
:1027900080913802909139028D7F05C08091380276
:1027A000909139028B7F9093390280933802802F69
:1027B0000E944F200E94D4201EC18C2F837009F0EC
:1027C00045C0D11114C1402F429546954770440F22
:1027D000440F602F6F70862F90E0A0E0B0E0042ED1
:1027E00004C0880F991FAA1FBB1F0A94D2F704FFC9
:1027F00010C00FE010E020E030E004C0000F111F17
:10280000221F331F4A95D2F70095109520953095D9
:1028100003C000E010E09801C695C695C370BC01E6
:10282000CD01602B712B822B932BC23049F058F4D1
:10283000C13019F00E948819DAC00E947619D7C0F9
:102840000E949A19D4C00E947419D1C0DD2319F0D6
:102850008C2F817001C08695882309F4C8C0402F51
:10286000429546954770440F440F602F6F70862F36
:1028700090E0A0E0B0E0042E04C0880F991FAA1FCA
:10288000BB1F0A94D2F704FF10C00FE010E020E055
:1028900030E004C0000F111F221F331F4A95D2F7EA
:1028A000009510952095309503C000E010E0980148
:1028B000C695C695C370BC01CD01602B712B822BD0
:1028C000932BC23049F058F4C13019F00E944D1AD0
:1028D0008EC00E943B1A8BC00E945F1A88C00E9463
:1028E000AE1985C0CF70DD2339F08C2F0E94D4192A
:1028F000802F0E94BE127BC0802F0E94C5128C2F99
:102900000E94F51974C0023F01F128F4003F41F024
:10291000013FA1F03FC0033FF9F0043F39F13AC055
:10292000DD2341F0153008F05EC08C2F8F710E94BE
:102930001A1A59C0163008F056C0F7CFDD2339F007
:102940008C2F8F710E94D4194EC0DD23C9F38C2FB8
:102950008F710E94F51947C0DD2329F08C2F8F71EC
:102960000E94BF1940C00E94BA193DC0DD2349F042
:10297000CF718C2F0E94D41963E08C2F0E94411CD0
:1029800032C081E00E94601C123068F182E00E9437
:10299000601C29C0DD2331F0112391F2802F0E94A9
:1029A000A11121C0112399F2093349F49FEFE7EEF9
:1029B000F3E09150E040F040E1F700C00000802FCC
:1029C0000E94771210C04C2F4F70602FC7010E94D9
:1029D000730B0E94E5180FC04C2F4F70602FC7017A
:1029E0000E94760B08C088EF8C0D843020F40E9482
:1029F000C10F0E949F09DD20C9F00E94621B80FD6B
:102A000015C0F70112820E945C1B0E94D419C701F5
:102A10000E941F150E945C1BDF91CF911F910F91A7
:102A2000FF90EF90DF90CF900C94F519DF91CF914C
:102A30001F910F91FF90EF90DF90CF9008950F932B
:102A40001F93CF93DF93EC01988189812B813C8187
:102A5000232B31F08F3F31F481E09F3F19F403C005
:102A600081E001C080E080FD13C0CE010E94B70963
:102A7000882371F0688179818A810E94161B8C01FC
:102A80000E94711A0E946219B801CE010E94CC12F4
:102A9000DF91CF911F910F9108950E94BB1B0E945F
:102AA000CB1B0E94F81B0E94FC210E94D42080E0D6
:102AB00090E00E94301080E090E00C9446108091ED
:102AC0000001909101010E94381E0C944D150E9446
:102AD000AB1B0C945F15E92FE295EF704E2F50E081
:102AE000FA013297EE30F105B0F4EA59FF4F0C9439
:102AF0003E2F803F91F018F4883E68F40EC0843F6A
:102B000051F40BC0883E48F0813F29F406C093FB86
:102B1000882780F9089580E0089581E008950E9453
:102B20000B1B0E946B150895CF93DF9300D000D04C
:102B30001F92CDB7DEB70F900F900F900F900F90B0
:102B4000DF91CF910895CF93DF9300D000D000D0D4
:102B5000CDB7DEB726960FB6F894DEBF0FBECDBF59
:102B6000DF91CF9108951F93CF93DF93C0915F01C1
:102B700016E080916001C81799F0D0E01C9FF00129
:102B80001D9FF00D1124EF59FE4F4081518162814C
:102B90007381848195810E94A3152196C770E9CF26
:102BA000DF91CF911F910895409191015091920131
:102BB000609193017091940180919501909196019B
:102BC0000C94A315CF938091960182958F7009F094
:102BD0005FC080919301882309F45AC080915F01FE
:102BE000B091600170919101A09192014091940186
:102BF0005091950191E07F3F09F090E0692FC6E088
:102C00008B1709F445C04115510521F0AF3F21F064
:102C100020E003C021E001C0262F90E020FD35C058
:102C2000C89FF001C99FF00D1124EF59FE4F21817B
:102C30002A132BC02081271328C02281211125C0EF
:102C4000238134812417350710F421503109241BC6
:102C5000350B283C3105C8F4209196012F70206176
:102C60002093960126E0289FF001299FF00D112462
:102C7000EA59FE4F80818F708061808381E991E005
:102C80000E941F15CF910C94B31501968770B8CF91
:102C9000CF910895AF92BF92CF92DF92EF92FF92C1
:102CA0000F931F93CF93DF93CDB7DEB761970FB626
:102CB000F894DEBF0FBECDBF8C0185E0F801DE01C8
:102CC0001D9601900D928A95E1F7D8014C911196CD
:102CD0005C9111971296EC90309191016091920164
:102CE0008091940190919501009731F06F3F31F4FC
:102CF00021E03F3F19F403C021E001C020E0B22FE2
:102D0000B170BB2E20FD60C1F801C380D480A090BB
:102D10009301AA2009F4EEC020919601C816D906A5
:102D200028F0D601A81BB90BCD0104C08095909561
:102D30008C0D9D1DFF24F394883C910580F0F12CAF
:102D4000207F09F09CC07C2DD98AC88A6E2D898984
:102D50000E94941581E991E00E941F152DC1822FD8
:102D6000807F09F054C0561314C0431312C0FE2CC8
:102D7000E1100FC02F702061209396010E94D4159E
:102D800081E991E00E941F1580919601F8018583E9
:102D90005CC1CD2831F05F3F31F481E04F3F19F441
:102DA00003C081E001C080E080FD03C081E08E258A
:102DB00002C080E090E0F82FF170FF2E80FF1CC071
:102DC00080915F012091600136E0821709F41AC1F9
:102DD00090E0389FF001399FF00D1124EF59FE4F1C
:102DE0006181561306C06081461303C06281E612FA
:102DF00003C001968770E9CFFE2CEE2009F425C1AF
:102E000080919601816080939601F12C1EC156132A
:102E100009C0431307C0E11005C080919601F80175
:102E20008583A4C04D875E878D859E850E948F1502
:102E3000882379F1EE2069F120919601822F829505
:102E40008F7090E0029774F08091910190919201BF
:102E500098878F831986DB86CA862C87CE010796D2
:102E60000E941F1586E0F801A1E9B1E001900D92E2
:102E70008A95E1F70E94E2150E94D4150DC05617FD
:102E800071F04D875E878D859E850E948F1581111B
:102E90001AC0C8010E941F15FF24F394D6C0431323
:102EA000F0CFE110EECF80919601F8018583C80143
:102EB0000E941F1586E0E1E9F1E0DF011D928A958D
:102EC000E9F7FA2CC2C0EE2021F320919601822F5F
:102ED00082958F7090E002972CF2809191019091F1
:102EE00092019A8389831B82DD82CC822E83CE015C
:102EF0000196B6CFC816D90628F0F601E81BF90BE3
:102F0000CF0104C0809590958C0D9D1D883C910546
:102F100048F0F12C7C2DD98AC88A6E2D89890E94AF
:102F200094154AC0FE2CEE2009F4B3CF561333C0DB
:102F3000431331C02091960120FD24C0822F829539
:102F40008F70482F50E041155105E1F0D8011596DA
:102F50002C9315974F30510549F08F5F982F92951C
:102F6000907F822F8F70892B15968C93C8010E94B9
:102F70001F1586E0F801A1E9B1E001900D928A9554
:102F8000E1F73DC086E0F801A1E9B1E001900D92C2
:102F90008A95E1F75AC04D875E878D859E850E9490
:102FA0008F1581115FCF809196018160809396018A
:102FB000C8010E941F1549C0E1E9F1E086E0DF0188
:102FC0001D928A95E9F71BC0EE2009F462CF4D8768
:102FD0005E878D859E850E948F15F82E882309F4C3
:102FE00058CF86E0F801A1E9B1E001900D928A95F1
:102FF000E1F781E991E00E949B110E94E2150E9495
:10300000D41523C04D875E878D859E850E940B1B3E
:10301000292F22952F70223028F49F7039F08111CA
:1030200005C00BC0243028F49F7049F4805E8830BE
:1030300020F0C8010E941F15BF2CFB2C06C0D80130
:1030400015969C91907F91F7F8CF8F2D61960FB6D2
:10305000F894DEBF0FBECDBFDF91CF911F910F91CE
:10306000FF90EF90DF90CF90BF90AF9008951F93A7
:10307000CF93DF93CDB7DEB72C970FB6F894DEBFB2
:103080000FBECDBF4F83588769877A878B879C8710
:10309000CE0107960E944A168823D1F09F81888529
:1030A0002A853B85232B31F08F3F31F481E09F3F10
:1030B00019F403C081E001C080E080FD47C04F816A
:1030C000588569857A858B859C850E94A3153EC0AD
:1030D00086E0FE013796DE01119601900D928A95E9
:1030E000E1F7FF81E8856A857B856115710531F01F
:1030F000EF3F31F481E0FF3F19F403C081E001C0EC
:1031000080E080FD23C02091600130E0C90101967C
:103110008770992740915F0150E084179507F1F17E
:10312000F983EA837D836C8396E0929FD001939F1D
:10313000B00D1124AF59BE4FFE01319601900D9292
:103140009A95E1F7809360010E94B31516E0809193
:103150005F0190916001891771F1189FC0011124DE
:103160008F599E4F0E944A16882329F1E0915F01F2
:103170001E9FF0011124EF59FE4F40815181628161
:103180007381848195810E94A31580915F0190E0F5
:1031900001968770992780935F01D9CF0E946715A8
:1031A0001092600110925F01E1E9F1E086E0DF0139
:1031B0001D928A95E9F72C960FB6F894DEBF0FBEE4
:1031C000CDBFDF91CF911F910895EF92FF920F93A2
:1031D0001F93CF93DF938C01892B09F46CC0F12CE2
:1031E000EE24E394E8012196F8018491843740F4B9
:1031F000843008F051C0813081F0823019F15BC019
:10320000853709F444C0A8F19CE7980F903708F07F
:1032100052C08F770E94771241C00E5F1F4FFE0190
:10322000849190E2980F983050F48770FE2D01C081
:10323000FF0F8A95EAF78F2F0E94BE1B14C00E94D1
:10324000A1112DC00E5F1F4FFE01849190E2980FD7
:10325000983060F48770FE2D01C0FF0F8A95EAF761
:103260008F2F0E94C41B0E94F81B19C00E94771266
:1032700016C00E5F1F4FFE01C491CC2381F08FE971
:103280009FE00197F1F700C00000C150F6CF0E5F3C
:103290001F4FFE01F49003C00E94A1118E018F2DDB
:1032A000882309F49FCFEFE9FFE03197F1F700C0E1
:1032B00000008150F5CFDF91CF911F910F91FF90CA
:1032C000EF900895089508950C9463190C9464196F
:1032D0000E9466196093D2017093D3018093D40148
:1032E0009093D5010C944D150C9468190F931F936E
:1032F0000091D2011091D3012091D4013091D501D8
:10330000602B712B822B932B1F910F910C946819BA
:103310000F931F930091D2011091D3012091D401FA
:103320003091D50160237123822393231F910F9144
:103330000C9468190F931F930091D2011091D3013F
:103340002091D4013091D5016027712782279327DE
:103350001F910F910C9468190C9463190E94AC1979
:103360006093CE017093CF018093D0019093D101EF
:103370000C944D1560E070E0CB010C94AE190F93E6
:103380001F9341E050E060E070E08A019B0104C0BF
:10339000000F111F221F331F8A95D2F7C901B801F0
:1033A0001F910F910C94AE190F931F9341E050E0C1
:1033B00060E070E004C0440F551F661F771F8A95B8
:1033C000D2F78091CE019091CF01A091D001B09120
:1033D000D1018A019B01082B192B2A2B3B2BC901F8
:1033E000B8011F910F910C94AE190F931F9341E0F8
:1033F00050E060E070E004C0440F551F661F771F67
:103400008A95D2F740955095609570958091CE0140
:103410009091CF01A091D001B091D1018A019B017F
:10342000082319232A233B23C901B8011F910F91B7
:103430000C94AE190F931F9341E050E060E070E0F0
:1034400004C0440F551F661F771F8A95D2F78091DD
:10345000CE019091CF01A091D001B091D1018A010C
:103460009B01082719272A273B27C901B8011F916B
:103470000F910C94AE190F931F930091CE011091F0
:10348000CF012091D0013091D101602B712B822B83
:10349000932B1F910F910C94AE190F931F930091D2
:1034A000CE011091CF012091D0013091D101602344
:1034B0007123822393231F910F910C94AE190F93C4
:1034C0001F930091CE011091CF012091D001309136
:1034D000D10160277127822793271F910F910C94A8
:1034E000AE1908952EE0929F800D1124E82FE695E5
:1034F000E695E695877051E001C0550F8A95EAF789
:1035000085E0E89FF0011124E956FE4F20E030E00D
:1035100070E04081CB01022E02C0969587950A94F7
:10352000E2F78170819584278523842781932F5F1B
:103530003F4F2530310569F708952EE0929F800DA9
:103540001124682F669566956695982F977085E08B
:10355000689FB001112440E050E080E0FB01E40FDF
:10356000F51FE956FE4F208130E0092E02C0369546
:1035700027950A94E2F721703327042E01C0220F09
:103580000A94EAF7822B4F5F5F4F4530510531F7C0
:103590000895BF92CF92DF92EF92FF920F931F9305
:1035A000CF93DF938C01C090CE01D090CF01E090FB
:1035B000D001F090D1018091D2019091D301A091DE
:1035C000D401B091D501C82AD92AEA2AFB2ACFE131
:1035D000D0E0D701C6010C2E04C0B695A7959795EB
:1035E00087950A94D2F780FD04C0219790F7B12CFB
:1035F00007C0BC2EB8018C2F0E94920B0197A9F333
:103600008B2DDF91CF911F910F91FF90EF90DF9065
:10361000CF90BF900895CF93DF93EC010E94C91A19
:10362000BE010E94920BDF91CF9108951F93CF931B
:10363000DF93EB0190915E01992321F0CB010E9471
:103640000B1B13C0882349F0CB010E94C91A182F05
:10365000682FCE010E94721A04C0CB010E949D1AED
:10366000182FBE01812F0E94920BDF91CF911F91E5
:1036700008950E94D41E2091D9013091DA01821759
:10368000930750F00E94D41E2091D9013091DA01A5
:10369000821B930B9C010AC00E94D41E2091D90169
:1036A0003091DA0120953095280F391F81E0243FB1
:1036B000314008F480E008958091D8018595859582
:1036C000859508958091D801877008950E94D41E31
:1036D0002091D6013091D70182179307A8F00E945C
:1036E000D41E2091D6013091D701821B930B843FC9
:1036F000914010F480E013C08091D80182FB8827AC
:1037000080F991E089270BC00E94D41E2091D60138
:103710003091D70120953095820F931FE8CF8170AB
:1037200008959091D801977081E009F480E00895A0
:103730008091FE0108959091FE01892B8093FE01F6
:10374000089580959091FE0189238093FE0108954C
:103750008093FE0108951092FE0108959091FD015D
:10376000892B8093FD01089580959091FD01892317
:103770008093FD0108951092FD0108959091FC0140
:10378000892B8093FC01089580959091FC018923F9
:103790008093FC0108951092FC0108958091DB0153
:1037A000089508950C94D11B0C94D21BCF93909143
:1037B000DB01981769F0C82F0E94D41E9093DA019C
:1037C0008093D901C093DB018C2FCF910C94D41B33
:1037D000CF9108958091DB01882349F01092DB019D
:1037E0001092DA011092D90180E00C94D41B089554
:1037F000E0910001F09101018091FE018083E09150
:103800000001F091010190818091FD01892B80835D
:10381000E0910001F091010190818091FC01892BE0
:1038200080838091DB01882321F10E94391B88234A
:1038300071F08091FF0180FF08C08FED92E09F93AF
:103840008F930E94EA070F900F900E94EA1BE0916D
:103850000001F091010190818091DB01892B80832F
:1038600080910001909101010E949A1D81110E9496
:10387000EA1B80910001909101010C94CD0F0C94F2
:10388000D11B98E0899F90011124262B2093D80109
:103890000E94D4190E94D41E9093D7018093D60120
:1038A0008091D8018595859585950C943F1C109243
:1038B000D8011092D7011092D60180E00C943F1CE1
:1038C0002091D801809582238093D801982F9770FA
:1038D00079F430E0482F082E000C550B24173507DB
:1038E00039F08595859585950E94F5190C94571C9E
:1038F000089590932D0180932C010895CF92DF922B
:10390000EF92FF926C01EE24FF24C114D104E10474
:10391000F10421F0C701B60120E101C020E0C72E6B
:10392000D82EE92EFF24C114D104E104F10419F0CA
:10393000285FC701B6016B017C0154E0F694E7945F
:10394000D794C7945A95D1F7C114D104E104F10476
:1039500019F02C5FC701B6016B017C0142E0F694BF
:10396000E794D794C7944A95D1F7C114D104E104E0
:10397000F10419F02E5FC701B601DC01CB01B69549
:10398000A79597958795892B8A2B8B2B09F02F5F0D
:10399000822FFF90EF90DF90CF9008958295982F1F
:1039A000937344E0949F900111248C7C86958695B6
:1039B000282B822F8575880F2A7A2695822B0895C9
:1039C000CF93DF93D92F0E94CE1CC82F8D2F0E943A
:1039D000CE1C2C2F30E0322F2227A901482BCA0100
:1039E000DF91CF91089580E090E00E94602F21E068
:1039F0008C3E9E4F09F020E0822F089582E090E0F7
:103A00000C94582F83E090E00C94582FCF9384E0CF
:103A100090E00E94582FC82F81E290E00E94582F1A
:103A20002C2F30E0A901582BCA01CF910895CF93D4
:103A3000C92F682F84E090E00E94662F6C2F81E2EE
:103A400090E0CF910C94662FAB01BC018FE090E029
:103A50000C94782FAB01BC0183E190E00C94782F9B
:103A600060E070E0CB010C942A1D60E070E0CB01B7
:103A70000E94241D0C94301D6CEE7EEF80E090E0DF
:103A80000E94842F60E082E090E00E94662F60E058
:103A900083E090E00E94662F1092D2011092D30131
:103AA0001092D4011092D50160E084E090E00E9471
:103AB000662F60E081E290E00E94662F60E085E082
:103AC00090E00E94662F60E086E090E00E94662F02
:103AD0006FEF87E090E00E94662F40E050E0BA016F
:103AE00088E090E00E94782F60E08DE090E00E94F6
:103AF000662F40E050E0BA0188E190E00E94782F04
:103B000060E087E190E00E94662F40E050E0BA015B
:103B10008CE190E00E94782F60E080E290E00E94CB
:103B2000662F0C94351D0C943C1D682F8EE090E0A0
:103B30000C94662FFC01329680911201882331F09B
:103B400080913E0287FF02C09EE101C096E080E0C6
:103B5000915028F021912223D9F38F5FF9CF089556
:103B60009C01FC0132969FEF80E04191461789F05D
:103B70009F3F19F4411101C0982F8F5F8630A9F73C
:103B80009F3F39F0F901E90FF11D97FDFA95628326
:103B9000089508959C012A5F3F4FFC01428146131E
:103BA00001C01282019682179307B9F70895262F54
:103BB0002695269526952E3170F4FC01E20FF11D15
:103BC000677021E030E001C0220F6A95EAF7828138
:103BD000282B228308958091FF0180FF0CC01F9243
:103BE0006F938FE093E09F938F930E94EA070F906B
:103BF0000F900F900F900895262F269526952695C5
:103C00002E3178F4FC01E20FF11D677021E030E005
:103C100001C0220F6A95EAF720958281282322832A
:103C200008958091FF0180FF0CC01F926F9381EF78
:103C300092E09F938F930E94EA070F900F900F904E
:103C40000F90089520911201222329F020913E0225
:103C500027FD0C94D71D0C94B01D20911201222336
:103C600029F020913E0227FD0C94FC1D0C94CA1DE6
:103C700020911201FC013296222331F080913E0204
:103C800087FF02C08EE101C086E0DF011D928A95A8
:103C9000E9F7089508950C944A1E0C944A1ECF9398
:103CA0000E944D1E0E94FA070E944B1EC0E08C2FFE
:103CB0000E944208892B29F4CF5FC630C1F780E00B
:103CC00001C081E0CF9108950C944A1E0C94641EAB
:103CD0000E94661E80914402843049F110920002D5
:103CE00020E488E190E00FB6F894A89580936000F6
:103CF0000FBE2093600080E00E949F090E94661E14
:103D000083B7817F846083BF83B7816083BF7894EA
:103D1000889583B78E7F83BF0FB6F894A89580915E
:103D20006000886180936000109260000FBE08956B
:103D30000C944A1E0E9467150E94C10F0E949F09A1
:103D40000C94981E1F920F920FB60F9211248F930E
:103D50009F93AF93BF9380910002811113C0809114
:103D60003A0290913B02A0913C02B0913D024196F3
:103D7000A11DB11D80933A0290933B02A0933C0297
:103D8000B0933D02BF91AF919F918F910F900FBE65
:103D90000F901F90189582E084BD93E095BD9AEF37
:103DA00097BD80936E0008952FB7F89480913A02E2
:103DB00090913B02A0913C02B0913D022FBF08952B
:103DC0002FB7F89460913A0270913B0280913C02C7
:103DD00090913D022FBF0895CF92DF92EF92FF9214
:103DE0000F931F932FB7F89440913A0250913B02E2
:103DF00060913C0270913D022FBF6A017B01EE246D
:103E0000FF248C0120E030E0C016D106E206F30664
:103E100010F4415051099A01281B390BC9011F9117
:103E20000F91FF90EF90DF90CF90089578941F92BC
:103E30000F920FB60F9211248F939F93AF93BF935E
:103E400080913A0290913B02A0913C02B0913D02D8
:103E50000196A11DB11D80933A0290933B02A0935D
:103E60003C02B0933D02BF91AF919F918F910F9013
:103E70000FBE0F901F90189587E797E79093010862
:103E8000809300089AE088E10FB6F894A895809393
:103E900060000FBE90936000FFCF0E94F31C811161
:103EA00002C00E94931D0E94FE1C8093FF010E948D
:103EB000061D90933F0280933E020E94021D682FD0
:103EC00070E080E090E00C9474198091040280FF0F
:103ED0000BC06091050185E0689FB00111247595C4
:103EE0006795759567952BC081FF09C060910501A5
:103EF00085E0689FB00111247595679520C082FF09
:103F000007C06091050185E0689FB001112417C0CA
:103F1000909103029923D1F060910401961788F7DC
:103F20002091050185E0289F90011124929FA00116
:103F3000939F500D112470E0CA010E942A2F60380F
:103F4000710540F46115710519F406C065E070E073
:103F5000862F08958FE7089581E0089580910402E7
:103F600080FF08C06091030170E0759567957595B5
:103F7000679521C081FF06C06091030170E07595CF
:103F8000679519C082FF04C06091030170E010C002
:103F900090910302992399F0609102019617A0F77E
:103FA00080910301899FC001112470E00E942A2F93
:103FB0006038710540F46115710519F406C061E0BF
:103FC00070E0862F08958FE7089581E00895803F7F
:103FD00021F40E94651F819504C0813F29F40E944D
:103FE000651F809308020895823F21F40E94651F97
:103FF000819504C0833F29F40E94651F80930702C6
:104000000895893F19F40E94AE1F05C08A3F31F41C
:104010000E94AE1F81958093090208958B3F21F481
:104020000E94AE1F819504C08C3F29F40E94AE1FF0
:1040300080930A020895843F21F4809106028160F2
:1040400017C0853F21F480910602826011C0863F2F
:1040500021F48091060284600BC0873F21F4809197
:104060000602886005C0883F31F4809106028061B5
:104070008093060208958D3F21F4809104028160AF
:104080000BC08E3F21F480910402826005C08F3FF7
:1040900029F4809104028460809304020895803F93
:1040A00039F48091080287FF6CC01092080269C041
:1040B000813F29F4809108021816BCF362C09091E8
:1040C0000702823F29F497FF5CC01092070259C093
:1040D000833F19F41916CCF354C0893F41F4809101
:1040E000090218160CF04DC0109209024AC08A3F0E
:1040F00029F48091090287FF44C0F6CF8B3F39F441
:1041000080910A0287FF3DC010920A023AC08C3F9C
:1041100029F480910A021816BCF333C0843F21F4BD
:10412000809106028E7F17C0853F21F480910602A0
:104130008D7F11C0863F21F4809106028B7F0BC0DA
:10414000873F21F480910602877F05C0883F31F4C4
:10415000809106028F7E8093060213C08D3F21F46A
:10416000809104028E7F0BC08E3F21F48091040267
:104170008D7F05C08F3F29F4809104028B7F80934F
:1041800004028091070281110EC080910802811102
:104190000AC080910902811106C080910A02811132
:1041A00002C01092030208958091FF0183FF7EC038
:1041B00084E593E00E945107809106021F928F933D
:1041C0008FE493E09F938F930E94EA078DE493E03E
:1041D0000E94510780910702282F082E000C330BF4
:1041E0003F938F938AE493E09F938F930E94EA0713
:1041F00088E493E00E94510780910802282F082E3E
:10420000000C330B3F938F9385E493E09F938F9340
:104210000E94EA0783E493E00E945107809109021B
:10422000282F082E000C330B3F938F9380E493E0EC
:104230009F938F930E94EA078EE393E00E945107B9
:1042400080910A02282F082E000C330B3F938F9386
:104250008BE393E09F938F930E94EA0788E393E0B8
:104260000E945107809103021F928F9385E393E090
:104270009F938F930E94EA0783E393E00E94510784
:10428000809104021F928F9380E393E09F938F931A
:104290000E94EA078DE293E00E9451078DB79EB716
:1042A0004C960FB6F8949EBF0FBE8DBF85E092E08E
:1042B0000E9422100E94D41E909302028093010259
:1042C00008951F93CF93DF93809101029091020292
:1042D0000E94EC1EAC0190910302992321F02091E1
:1042E000060130E006C0209107018AE0289F900176
:1042F00011244217530708F47BC080910702C09134
:104300000802D091090210910A02811107C0C1115F
:104310006BC0D11169C0111167C06AC09F3F19F00D
:104320009F5F90930302181624F40E94651F8093E8
:1043300007028091070287FF05C00E94651F8195D3
:10434000809307021C1624F40E94651F80930802C4
:104350008091080287FF05C00E94651F81958093A8
:104360000802309107023323E1F020910802222352
:10437000C1F045EB3403C0011124992319F0909347
:10438000070203C081E08093070235EB2303C001DD
:104390001124992319F09093080203C081E08093BF
:1043A00008021D1624F40E94AE1F8093090280911A
:1043B000090287FF05C00E94AE1F81958093090204
:1043C000111624F40E94AE1F80930A0280910A0203
:1043D00087FF05C00E94AE1F819580930A02DF917E
:1043E000CF911F910C94D4209F3F09F099CFAACF71
:1043F000DF91CF911F910895E5E0F2E086E0DF01C3
:104400001D928A95E9F71092030210920402089512
:1044100087E795E00E9451071F9281E08F931F92DA
:1044200085E08F9389E295E09F938F930E94EA073E
:104430000F900F900F900F900F900F900895833072
:10444000E9F128F4813061F0823009F10895853076
:1044500009F462C008F449C0863009F474C00895B4
:1044600080910701262F30E0280F311D2F3F3105A5
:1044700024F4680F6093070103C08FEF8093070156
:10448000809107011F928F9382E694E072C0809121
:104490000601262F30E0280F311D2F3F310524F46F
:1044A000680F6093060103C08FEF8093060180912F
:1044B00006011F928F9380E594E05BC08091050117
:1044C000262F30E0280F311D2F3F310524F4680FCF
:1044D0006093050103C08FEF809305018091050172
:1044E0001F928F938DE394E044C080910401262FA6
:1044F00030E0280F311D2F3F310524F4680F609301
:10450000040103C08FEF80930401809104011F9286
:104510008F9388E294E02DC080910301262F30E034
:10452000280F311D2F3F310524F4680F60930301DC
:1045300003C08FEF80930301809103011F928F933B
:104540008FE094E016C080910201262F30E0280F02
:10455000311D2F3F310524F4680F6093020103C021
:104560008FEF80930201809102011F928F9384EF5D
:1045700093E09F938F930E94EA070F900F900F9004
:104580000F900895833081F128F4813059F0823002
:10459000D1F00895853009F449C0B8F1863009F4A6
:1045A00056C0089580910701681720F4861B8093F8
:1045B000070102C010920701809107011F928F939B
:1045C00085EE93E054C080910601681720F4861BA5
:1045D0008093060102C010920601809106011F928D
:1045E0008F9383ED93E043C080910501681720F419
:1045F000861B8093050102C0109205018091050180
:104600001F928F9380EC93E032C080910401681771
:1046100020F4861B8093040102C010920401809153
:1046200004011F928F938BEA93E021C080910301D4
:10463000681720F4861B8093030102C010920301C7
:10464000809103011F928F9382E993E010C08091C3
:104650000201681720F4861B8093020102C01092A9
:104660000201809102011F928F9387E793E09F934D
:104670008F930E94EA070F900F900F900F9008956C
:10468000CF93C82F1F928F938CE796E09F938F93C1
:104690000E94EA0781E090E0A0E0B0E0BC01CD011B
:1046A00004C0660F771F881F991FCA95D2F70E9412
:1046B00074190F900F900F900F90CF910C94671575
:1046C000CF93DF93482F50E0FA013597EF33F10590
:1046D00008F063C2EC58FF4F0C943E2F89E09CE039
:1046E0000E94510785E49BE00E9451070E94021D31
:1046F0001F928F9382E49BE09F938F930E94EA071F
:1047000080E49BE00E9451070E94FE1CC82F8DE2AE
:104710009BE00E9451071F92CF9388E29BE09F93FA
:104720008F930E94EA0786E29BE00E9451078CE18A
:104730009BE00E9451078C2F81701F928F9389E11B
:104740009BE09F938F930E94EA0787E19BE00E9482
:1047500051078DE09BE00E945107C1FB882780F93B
:104760001F928F938AE09BE09F938F930E94EA07AA
:1047700088E09BE00E9451078CEF9AE00E9451076D
:10478000C2FB882780F91F928F9389EF9AE09F934D
:104790008F930E94EA0787EF9AE00E9451078EEEFE
:1047A0009AE00E945107C3FBCC27C0F91F92CF9318
:1047B0008BEE9AE09F938F930E94EA0789EE9AE02E
:1047C0000E9451070E94061DEC0185ED9AE00E94AF
:1047D0005107DF93CF9380ED9AE09F938F930E94D0
:1047E000EA078EEC9AE00E94510785EB9AE00E945E
:1047F00051078C2F81701F928F9382EB9AE09F93C9
:104800008F930E94EA078DB79EB780960FB6F894F3
:104810009EBF0FBE8DBF80EB9AE00E94510789E9D1
:104820009AE00E945107C1FB882780F91F928F935D
:1048300086E99AE09F938F930E94EA0784E99AE0C1
:104840000E94510782E89AE00E9451078D2F8170E3
:104850001F928F938FE79AE09F938F930E94EA07AE
:104860008DE79AE00E9451078BE69AE00E9451077B
:10487000D695D1701F92DF9388E69AE09F938F932D
:104880000E94EA0786E69AE00E94510784E59AE0D2
:104890000E945107C2FB882780F91F928F9381E500
:1048A0009AE09F938F930E94EA078FE49AE00E9418
:1048B00051078DE39AE00E945107C3FB882780F9D6
:1048C0001F928F938AE39AE09F938F930E94EA0747
:1048D00088E39AE00E9451078EE29AE00E94510715
:1048E000C4FB882780F91F928F938BE29AE09F93F5
:1048F0008F930E94EA0789E29AE00E94510787E1BC
:104900009AE00E945107C5FB882780F91F928F9378
:1049100084E19AE09F938F930E94EA0782E19AE0F4
:104920000E94510786EF99E00E945107C6FB882735
:1049300080F91F928F9383EF99E09F938F930E944A
:10494000EA078DB79EB780960FB6F8949EBF0FBE4C
:104950008DBF81EF99E00E94510789EE99E00E9496
:104960005107C7FBCC27C0F91F92CF9386EE99E081
:104970009F938F930E94EA0784EE99E00E9451076B
:104980000F900F900F900F9006C088EF9BE00E9451
:1049900051070E94931DC1E005C182E398E07FC0EA
:1049A0008091FF01817F8E7F8093FF018BE098E0F3
:1049B0000E94510784EF9BE00E94510781E08093A1
:1049C0000C02E9CF0E94671588ED9BE00E94510719
:1049D0009FEF23ED80E3915020408040E1F700C03D
:1049E00000000E943C1FD7CF8091FF01C82FC095C7
:1049F000C170C0FB80F98093FF01CC2319F08CECCF
:104A00009BE0BDC08FEB9BE00E9451078091FF01AE
:104A1000897F877F8093FF01BECF9091FF0191FB3B
:104A2000CC27C0F981E0C827892FC0FB81F980938A
:104A3000FF01CC2319F082EB9BE027C084EA9BE0C6
:104A40002EC09091FF0192FBCC27C0F981E0C827CE
:104A5000892FC0FB82F98093FF01CC2319F085E9EF
:104A60009BE013C085E89BE01AC09091FF0193FB87
:104A7000CC27C0F981E0C827892FC0FB83F9809338
:104A8000FF01CC2351F089E79BE00E945107809100
:104A9000FF0181608093FF0185C08CE69BE00E944E
:104AA000510779CF8CEF97E00E94510781ED97E095
:104AB0000E9451078BE997E00E94510788E697E032
:104AC0000E9451078DE297E00E94510782E097E033
:104AD000E6CF84EF96E00E9451070E94C10F1F921B
:104AE0008F938AED96E09F938F930E94EA078091BF
:104AF00012011F928F9383EC96E09F938F930E94F5
:104B0000EA07809131021F928F9380EB96E09F938A
:104B10008F930E94EA0780913E0287FB882780F9E5
:104B20001F928F9388E996E09F938F930E94EA07E4
:104B30000E94E01E9F938F937F936F9381E896E08E
:104B40009F938F930E94EA078DB79EB746960FB644
:104B5000F8949EBF0FBE8DBF1ECF0E946715909127
:104B60003E0297FBCC27C0F981E0C827892FC0FB04
:104B700087F980933E02CC2329F082E69BE00E94D5
:104B8000510710C087E59BE08ACF895303C08D5140
:104B900001C080E00E944023FECE85E59BE00E949C
:104BA0005107C0E08C2FDF91CF91089580E00895E8
:104BB0000C94D6258E518A3030F4E82FF0E0ED5E6B
:104BC000FE4F8081089580E00895CF93C82F809193
:104BD0000C02813059F020F0823009F445C039C10F
:104BE0000E94981B823209F036C104C00E94981BB3
:104BF000823261F48C2F0E94D825811104C08C2F41
:104C00000E9460232FC081E090E02CC08C2F0E9476
:104C1000D625811126C0C431E1F070F4CB3081F08B
:104C2000C031D1F40E94082284E796E00E94510727
:104C300082E080930C0215C0C93259F0C83361F488
:104C40008BE098E00E94510788E796E00E945107A8
:104C500008C010920C0201C182E796E00E94510741
:104C6000FCC081E08170FBC0C43228F5CE3108F071
:104C7000C1C0CB30A1F1D0F4C73009F0D0C08EE173
:104C80008093070182E3809306018AE08093050107
:104C900084E18093040188E08093030188E280939B
:104CA000020188E195E00E945107BCC0C33149F17F
:104CB000C431C1F0B4C0CB3409F4A6C028F4C93261
:104CC00089F0C83361F0ABC0C13509F49BC0C2356F
:104CD00009F496C0CE3409F0A2C06AE09BC00E94DD
:104CE0000822A0C080910B02882319F010920B02B9
:104CF00099C085E295E00E94510781E080930C0203
:104D0000AEC08FEF94E00E9451078DEE94E00E94B8
:104D10005107809107011F928F938AEE94E09F9331
:104D20008F930E94EA0788EE94E00E94510786ED77
:104D300094E00E945107809106011F928F9383EDAA
:104D400094E09F938F930E94EA0781ED94E00E9484
:104D5000510782EC94E00E945107809105011F9257
:104D60008F938FEB94E09F938F930E94EA078DEBD4
:104D700094E00E9451078CEA94E00E9451078091D0
:104D800004011F928F9389EA94E09F938F930E946E
:104D9000EA0787EA94E00E94510782E994E00E94C2
:104DA0005107809103011F928F938FE894E09F93A6
:104DB0008F930E94EA078DE894E00E94510786E7EE
:104DC00094E00E945107809102011F928F9383E724
:104DD00094E09F938F930E94EA0781E794E00E94FA
:104DE00051078DB79EB748960FB6F8949EBF0FBE79
:104DF0008DBF18C08C2F0E94DA2580930B0212C041
:104E000061E003C061E006C06AE080910B020E948D
:104E10001F2208C080910B020E94C22203C086E1BB
:104E200095E013C080910B02882369F01F928F9345
:104E300080E195E09F938F930E94EA070F900F9077
:104E40000F900F9004C08DE095E00E94510781E023
:104E500006C010920C0280E002C080E003CFCF9128
:104E600008958091300208959FB7F89410920F0230
:104E70009FBF90914402943009F057C09091E9008F
:104E80009F703091EC00232F217030FD20E8922B91
:104E900023E02093E9002091EB0020FF43C0209104
:104EA000EE0027FF3FC020910D02222321F0209128
:104EB000E80025FF37C010920D0226E03091E8008F
:104EC00035FD15C030914402343061F53091EB006E
:104ED00035FD28C0215021F481E080930D0222C0CD
:104EE000EFE9FFE03197F1F700C00000E7CF8093D2
:104EF000F1008091E80085FD0AC08091E80080FF04
:104F0000FCCF8091E8008E778093E80006C08FB7D1
:104F1000F89421E020930F028FBF9F709093E900D7
:104F200080E008959F709093E9008FEF08950F93AC
:104F30001F93CF93DF9300D01F92CDB7DEB78C01C4
:104F40000E94642A823011F0843021F584E0898344
:104F50001B830A8382E08093E9008FEF9091E80041
:104F6000815095FD06C095ED9A95F1F700008111ED
:104F7000F5CF8091E80085FF0DC040E050E063E090
:104F800070E0CE0101960E94812A8091E8008E7720
:104F90008093E8000F900F900F90DF91CF911F91B9
:104FA0000F910895CF93DF9300D01F92CDB7DEB756
:104FB00020914402243031F523E02983805891095F
:104FC0009B838A8382E08093E9008FEF9091E800D1
:104FD000815095FD06C095ED9A95F1F7000081117D
:104FE000F5CF8091E80085FF0DC040E050E063E020
:104FF00070E0CE0101960E94812A8091E8008E77B0
:105000008093E8000F900F900F90DF91CF9108955B
:10501000CF93DF93EC010E94642A823011F0843038
:10502000F9F482E08093E9008FEF9091E8008150DD
:1050300095FD06C095ED9A95F1F700008111F5CF29
:105040008091E80085FF0CC040E050E066E070E031
:10505000CE010E94812A8091E8008E778093E8003B
:10506000DF91CF910895CF93DF93EC010E94642AE2
:10507000823011F08430D9F580911201882339F003
:1050800080913E0287FF03C060E282E002C068E0D8
:1050900081E08093E9008FEF9091E800815095FDC9
:1050A00006C095ED9A95F1F700008111F5CF80913A
:1050B000E80085FF1CC080911201811105C040E00D
:1050C00050E068E070E003C070E040E050E0CE01E6
:1050D0000E94812A8091E8008E778093E80080E228
:1050E000FE01A0E1B2E001900D928A95E1F7DF9117
:1050F000CF91089589E39CE00E945107809143027B
:10510000811109C00E94122C0E946F2C8091E20034
:1051100084608093E200089585E39CE00E9451073B
:1051200010924302089581E39CE00C9451078DE2B4
:105130009CE00C94510789E29CE00E9451070C947A
:105140009A1E20910E022F5F822F62E30E941E2F73
:10515000992319F020930E02089510920E02809167
:105160000F02882371F180914402843041F58091CF
:10517000E9008F702091EC00922F917020FD90E853
:10518000892B93E09093E9009091EB0090FF14C07D
:105190009091EE0097FF10C09091E80095FF03C03A
:1051A0001092F100F9CF9091E80090FF05C0909126
:1051B000E8009E779093E8008F708093E90010924A
:1051C0000F02089542E061EC81E00E948B2B42E2E5
:1051D00061EC82E00E948B2B42E261EC83E00C9454
:1051E0008B2B80914602833009F460C030F481300B
:1051F00071F0823009F499C008958A3009F485C0AD
:105200008B3009F46BC0893009F0A7C020C08091B1
:105210004502813A09F0A1C08091E800877F809320
:10522000E8008091490290914A02892B21F460E2C2
:1052300080E192E003C060E080E090E070E00E94D6
:10524000CC2A8091E8008B778093E80008958091C4
:105250004502813209F081C08091490290914A0251
:10526000029708F07AC08091E800877F8093E80079
:105270008091E80082FD05C0809144028111F8CF41
:105280006CC02091F3008091F20090E0922B029785
:1052900029F48091F1008B7F813021F48091F1001D
:1052A000809330028091E8008B7753C08091450253
:1052B000813A09F052C08091490290914A02892BAB
:1052C00009F04BC08091E800877F8093E8008091CF
:1052D000E80080FFFCCF8091120136C0809145022A
:1052E0008132D9F58091490290914A02892BA9F522
:1052F0008091E800877F8093E8000E94C02B809116
:105300004702809312010C94671580914502813207
:1053100021F58091E800877F8093E8000E94C02BF0
:105320008091480280933102089580914502813A2C
:10533000A1F48091E800877F8093E8008091E800E5
:1053400080FFFCCF809131028093F1008091E800D2
:105350008E778093E8000C94C02B089584B7877FE4
:1053600084BF0FB6F894A8958091600088618093FF
:105370006000109260000FBE80E880936100109280
:1053800061000E946C100E94122C0E946F2C809170
:10539000E20084608093E20084E397E20E94791C3B
:1053A00078940E94032F0E94741088E091E00E947C
:1053B000BC0F88E19CE00E94510780914402853037
:1053C00089F484E19CE00E9451070E94681E80914C
:1053D0004202882391F30E944F1E882371F30E949A
:1053E0006B2AEBCF0E94A410E8CF0C94F729292F49
:1053F000332723303105C9F060F42130310581F0C5
:105400002230310509F047C08BE590E029E63CE009
:1054100046C02132310511F12232310561F13BC024
:1054200082E190E024EC3CE03AC09927813091057C
:1054300061F040F08230910559F0039761F5EDE39A
:10544000FCE008C0E5E6FCE005C0E3E5FCE002C0E6
:10545000E3E4FCE0849190E09F0121C0633071059A
:10546000D0F4660F771FFB01EA5DFE4F208131818A
:1054700089E090E014C06330710568F4FB01EE0F21
:10548000FF1FE05EFE4F20813181FB01E35EFE4F96
:10549000808190E004C080E090E020E030E0FA01FC
:1054A0003183208308950895CF93C82F0E94532AF3
:1054B000C0933202CF91089580914402843011F05C
:1054C00081E0089582E0089580913202811102C046
:1054D0000C945C2A089580E189BD82E189BD09B4FC
:1054E00000FEFDCF8091D8008F7D8093D800809101
:1054F000E00082608093E0008091E00081FDFCCFBD
:105500000895CF92DF92EF92FF920F931F93CF9364
:10551000DF93EC018B017A010E94DF2B811133C0F4
:10552000E114F10439F0F70180819181081B190B16
:10553000C80FD91FC12CD12C0115110519F180916B
:10554000E80085FD16C08091E8008E778093E80022
:10555000E114F10449F0F70180819181C80ED91E50
:10556000D182C08285E00FC00E94DF2B882321F307
:105570000AC089918093F10001501109FFEFCF1A01
:10558000DF0ADACF80E0DF91CF911F910F91FF907A
:10559000EF90DF90CF90089520914B0230914C0214
:1055A0002617370748F06115710539F42091E80096
:1055B0002E772093E80001C0B901FC0120E06115BD
:1055C000710579F1809144028823F1F18530F1F180
:1055D0008091E80083FD3CC08091E80082FD2EC0F0
:1055E0008091E80080FFEBCF2091F3008091F200E2
:1055F00090E0922B6115710551F08830910538F4D7
:1056000021912093F100615071090196F3CF21E0BF
:10561000089709F020E08091E8008E778093E800F9
:10562000CECF2111CFCF0AC080914402882361F0F0
:10563000853061F08091E80083FD0AC08091E80028
:1056400082FFF2CF80E0089582E0089583E008951C
:1056500081E0089520914B0230914C0226173707C4
:1056600048F06115710539F42091E8002E772093F8
:10567000E80001C0B901FC0120E06115710591F15C
:1056800080914402882309F440C0853009F43FC06A
:105690008091E80083FD3DC08091E80082FD2FC02D
:1056A0008091E80080FFE9CF2091F3008091F20023
:1056B00090E0922B6115710559F08830910540F406
:1056C00024912093F1003196615071090196F2CF37
:1056D00021E0089709F020E08091E8008E77809320
:1056E000E800CBCF2111CCCF0AC08091440288239F
:1056F00061F0853061F08091E80083FD0AC08091FF
:10570000E80082FFF2CF80E0089582E0089583E010
:10571000089581E00895982F973068F59093E900F7
:10572000981739F07091EC002091ED005091F00045
:1057300003C0242F762F50E021FD02C09F5FECCFE5
:105740003091EB003E7F3093EB003091ED003D7FD8
:105750003093ED003091EB0031603093EB007093AB
:10576000EC002093ED005093F0002091EE0027FD17
:10577000E5CF80E008958F708093E90081E008957F
:105780008091450287FF11C08091E80082FD05C02D
:10579000809144028111F8CF11C08091E8008B778D
:1057A0000BC080914402882349F08091E80080FF7B
:1057B000F8CF8091E8008E778093E80008952091DB
:1057C000E4003091E50095E64091EC00842F817073
:1057D00040FF23C08091E80080FD1DC080914402FD
:1057E000882399F0853099F08091EB0085FD11C0F8
:1057F0004091E4005091E5002417350729F39150BA
:1058000011F09A01E1CF84E0089582E0089583E0E9
:10581000089581E0089580E008954091E80042FFF6
:10582000DDCF08950E94802C0E94882CE0EEF0E0ED
:10583000808181608083E8EDF0E080818F778083D4
:1058400019BCA7EDB0E08C918E7F8C9380818F7E08
:1058500080831092430208950F931F93CF93DF9399
:105860000E94802C0E94882CC8EDD0E088818F7720
:10587000888388818068888388818F7D888319BC2C
:105880001092440210924002109242021092410281
:1058900000EE10E0F80180818B7F80838881816039
:1058A000888342E060E080E00E948B2BE1EEF0E034
:1058B00080818E7F8083E2EEF0E080818160808352
:1058C000808188608083F80180818E7F80838881D9
:1058D00080618883DF91CF911F910F910895E8ED4A
:1058E000F0E080818F7E8083E7EDF0E08081816051
:1058F000808384E082BF81E0809343020C942C2C4F
:10590000E8EDF0E080818E7F80831092E2000895C0
:105910001092DA001092E10008951F920F920FB6D4
:105920000F9211242F933F934F935F936F937F9325
:105930008F939F93AF93BF93EF93FF938091E10079
:1059400082FF0BC08091E20082FF07C08091E100DE
:105950008B7F8093E1000E94A1288091DA0080FF74
:105960001FC08091D80080FF1BC08091DA008E7F1D
:105970008093DA008091D90080FF0DC080E189BD5D
:1059800082E189BD09B400FEFDCF81E0809344022D
:105990000E947A2805C019BC109244020E948C28EB
:1059A0008091E10080FF19C08091E20080FF15C066
:1059B0008091E2008E7F8093E2008091E20080611E
:1059C0008093E2008091D80080628093D80019BC57
:1059D00085E0809344020E9497288091E10084FF33
:1059E00030C08091E20084FF2CC080E189BD82E15B
:1059F00089BD09B400FEFDCF8091D8008F7D8093D2
:105A0000D8008091E1008F7E8093E1008091E200D8
:105A10008F7E8093E2008091E20081608093E200BB
:105A200080914002882311F084E007C08091E30058
:105A300087FD02C081E001C083E0809344020E94A0
:105A40009B288091E10083FF29C08091E20083FFC1
:105A500025C08091E100877F8093E10082E0809300
:105A60004402109240028091E1008E7F8093E10019
:105A70008091E2008E7F8093E2008091E20080615D
:105A80008093E20042E060E080E00E948B2B8091F6
:105A9000F00088608093F0000E949328FF91EF91BE
:105AA000BF91AF919F918F917F916F915F914F9136
:105AB0003F912F910F900FBE0F901F9018951F923E
:105AC0000F920FB60F9211242F933F934F935F9332
:105AD0006F937F938F939F93AF93BF93CF93DF93F6
